{
  "address": "0x5FbDB2315678afecb367f032d93F642f64180aa3",
  "abi": [
    {
      "inputs": [
        {
          "internalType": "string",
          "name": "_name",
          "type": "string"
        },
        {
          "internalType": "string",
          "name": "_symbol",
          "type": "string"
        },
        {
          "internalType": "string",
          "name": "_initBaseURI",
          "type": "string"
        }
      ],
      "stateMutability": "nonpayable",
      "type": "constructor"
    },
    {
      "anonymous": false,
      "inputs": [
        {
          "indexed": true,
          "internalType": "address",
          "name": "owner",
          "type": "address"
        },
        {
          "indexed": true,
          "internalType": "address",
          "name": "approved",
          "type": "address"
        },
        {
          "indexed": true,
          "internalType": "uint256",
          "name": "tokenId",
          "type": "uint256"
        }
      ],
      "name": "Approval",
      "type": "event"
    },
    {
      "anonymous": false,
      "inputs": [
        {
          "indexed": true,
          "internalType": "address",
          "name": "owner",
          "type": "address"
        },
        {
          "indexed": true,
          "internalType": "address",
          "name": "operator",
          "type": "address"
        },
        {
          "indexed": false,
          "internalType": "bool",
          "name": "approved",
          "type": "bool"
        }
      ],
      "name": "ApprovalForAll",
      "type": "event"
    },
    {
      "anonymous": false,
      "inputs": [
        {
          "indexed": true,
          "internalType": "address",
          "name": "previousOwner",
          "type": "address"
        },
        {
          "indexed": true,
          "internalType": "address",
          "name": "newOwner",
          "type": "address"
        }
      ],
      "name": "OwnershipTransferred",
      "type": "event"
    },
    {
      "anonymous": false,
      "inputs": [
        {
          "indexed": false,
          "internalType": "uint256",
          "name": "tokenId",
          "type": "uint256"
        },
        {
          "components": [
            {
              "internalType": "address payable",
              "name": "account",
              "type": "address"
            },
            {
              "internalType": "uint96",
              "name": "value",
              "type": "uint96"
            }
          ],
          "indexed": false,
          "internalType": "struct LibPart.Part[]",
          "name": "royalties",
          "type": "tuple[]"
        }
      ],
      "name": "RoyaltiesSet",
      "type": "event"
    },
    {
      "anonymous": false,
      "inputs": [
        {
          "indexed": true,
          "internalType": "address",
          "name": "from",
          "type": "address"
        },
        {
          "indexed": true,
          "internalType": "address",
          "name": "to",
          "type": "address"
        },
        {
          "indexed": true,
          "internalType": "uint256",
          "name": "tokenId",
          "type": "uint256"
        }
      ],
      "name": "Transfer",
      "type": "event"
    },
    {
      "inputs": [
        {
          "internalType": "address",
          "name": "to",
          "type": "address"
        },
        {
          "internalType": "uint256",
          "name": "tokenId",
          "type": "uint256"
        }
      ],
      "name": "approve",
      "outputs": [],
      "stateMutability": "nonpayable",
      "type": "function"
    },
    {
      "inputs": [
        {
          "internalType": "address",
          "name": "owner",
          "type": "address"
        }
      ],
      "name": "balanceOf",
      "outputs": [
        {
          "internalType": "uint256",
          "name": "",
          "type": "uint256"
        }
      ],
      "stateMutability": "view",
      "type": "function"
    },
    {
      "inputs": [],
      "name": "baseExtension",
      "outputs": [
        {
          "internalType": "string",
          "name": "",
          "type": "string"
        }
      ],
      "stateMutability": "view",
      "type": "function"
    },
    {
      "inputs": [],
      "name": "cost",
      "outputs": [
        {
          "internalType": "uint256",
          "name": "",
          "type": "uint256"
        }
      ],
      "stateMutability": "view",
      "type": "function"
    },
    {
      "inputs": [
        {
          "internalType": "uint256",
          "name": "tokenId",
          "type": "uint256"
        }
      ],
      "name": "getApproved",
      "outputs": [
        {
          "internalType": "address",
          "name": "",
          "type": "address"
        }
      ],
      "stateMutability": "view",
      "type": "function"
    },
    {
      "inputs": [],
      "name": "getBaseURI",
      "outputs": [
        {
          "internalType": "string",
          "name": "",
          "type": "string"
        }
      ],
      "stateMutability": "view",
      "type": "function"
    },
    {
      "inputs": [],
      "name": "getBasedExtension",
      "outputs": [
        {
          "internalType": "string",
          "name": "",
          "type": "string"
        }
      ],
      "stateMutability": "view",
      "type": "function"
    },
    {
      "inputs": [],
      "name": "getCost",
      "outputs": [
        {
          "internalType": "uint256",
          "name": "",
          "type": "uint256"
        }
      ],
      "stateMutability": "view",
      "type": "function"
    },
    {
      "inputs": [],
      "name": "getMaxMintAmount",
      "outputs": [
        {
          "internalType": "uint256",
          "name": "",
          "type": "uint256"
        }
      ],
      "stateMutability": "view",
      "type": "function"
    },
    {
      "inputs": [],
      "name": "getMaxSupply",
      "outputs": [
        {
          "internalType": "uint256",
          "name": "",
          "type": "uint256"
        }
      ],
      "stateMutability": "view",
      "type": "function"
    },
    {
      "inputs": [
        {
          "internalType": "uint256",
          "name": "id",
          "type": "uint256"
        }
      ],
      "name": "getRaribleV2Royalties",
      "outputs": [
        {
          "components": [
            {
              "internalType": "address payable",
              "name": "account",
              "type": "address"
            },
            {
              "internalType": "uint96",
              "name": "value",
              "type": "uint96"
            }
          ],
          "internalType": "struct LibPart.Part[]",
          "name": "",
          "type": "tuple[]"
        }
      ],
      "stateMutability": "view",
      "type": "function"
    },
    {
      "inputs": [
        {
          "internalType": "address",
          "name": "owner",
          "type": "address"
        },
        {
          "internalType": "address",
          "name": "operator",
          "type": "address"
        }
      ],
      "name": "isApprovedForAll",
      "outputs": [
        {
          "internalType": "bool",
          "name": "",
          "type": "bool"
        }
      ],
      "stateMutability": "view",
      "type": "function"
    },
    {
      "inputs": [],
      "name": "isPaused",
      "outputs": [
        {
          "internalType": "bool",
          "name": "",
          "type": "bool"
        }
      ],
      "stateMutability": "view",
      "type": "function"
    },
    {
      "inputs": [],
      "name": "maxMintAmount",
      "outputs": [
        {
          "internalType": "uint256",
          "name": "",
          "type": "uint256"
        }
      ],
      "stateMutability": "view",
      "type": "function"
    },
    {
      "inputs": [],
      "name": "maxSupply",
      "outputs": [
        {
          "internalType": "uint256",
          "name": "",
          "type": "uint256"
        }
      ],
      "stateMutability": "view",
      "type": "function"
    },
    {
      "inputs": [
        {
          "internalType": "uint256",
          "name": "_mintAmount",
          "type": "uint256"
        }
      ],
      "name": "mint",
      "outputs": [],
      "stateMutability": "payable",
      "type": "function"
    },
    {
      "inputs": [],
      "name": "name",
      "outputs": [
        {
          "internalType": "string",
          "name": "",
          "type": "string"
        }
      ],
      "stateMutability": "view",
      "type": "function"
    },
    {
      "inputs": [],
      "name": "owner",
      "outputs": [
        {
          "internalType": "address",
          "name": "",
          "type": "address"
        }
      ],
      "stateMutability": "view",
      "type": "function"
    },
    {
      "inputs": [
        {
          "internalType": "uint256",
          "name": "tokenId",
          "type": "uint256"
        }
      ],
      "name": "ownerOf",
      "outputs": [
        {
          "internalType": "address",
          "name": "",
          "type": "address"
        }
      ],
      "stateMutability": "view",
      "type": "function"
    },
    {
      "inputs": [
        {
          "internalType": "bool",
          "name": "_state",
          "type": "bool"
        }
      ],
      "name": "pause",
      "outputs": [],
      "stateMutability": "nonpayable",
      "type": "function"
    },
    {
      "inputs": [],
      "name": "paused",
      "outputs": [
        {
          "internalType": "bool",
          "name": "",
          "type": "bool"
        }
      ],
      "stateMutability": "view",
      "type": "function"
    },
    {
      "inputs": [],
      "name": "renounceOwnership",
      "outputs": [],
      "stateMutability": "nonpayable",
      "type": "function"
    },
    {
      "inputs": [
        {
          "internalType": "uint256",
          "name": "id",
          "type": "uint256"
        },
        {
          "internalType": "uint256",
          "name": "_salePrice",
          "type": "uint256"
        }
      ],
      "name": "royaltyInfo",
      "outputs": [
        {
          "internalType": "address",
          "name": "receiver",
          "type": "address"
        },
        {
          "internalType": "uint256",
          "name": "royaltyAmount",
          "type": "uint256"
        }
      ],
      "stateMutability": "view",
      "type": "function"
    },
    {
      "inputs": [
        {
          "internalType": "address",
          "name": "from",
          "type": "address"
        },
        {
          "internalType": "address",
          "name": "to",
          "type": "address"
        },
        {
          "internalType": "uint256",
          "name": "tokenId",
          "type": "uint256"
        }
      ],
      "name": "safeTransferFrom",
      "outputs": [],
      "stateMutability": "nonpayable",
      "type": "function"
    },
    {
      "inputs": [
        {
          "internalType": "address",
          "name": "from",
          "type": "address"
        },
        {
          "internalType": "address",
          "name": "to",
          "type": "address"
        },
        {
          "internalType": "uint256",
          "name": "tokenId",
          "type": "uint256"
        },
        {
          "internalType": "bytes",
          "name": "_data",
          "type": "bytes"
        }
      ],
      "name": "safeTransferFrom",
      "outputs": [],
      "stateMutability": "nonpayable",
      "type": "function"
    },
    {
      "inputs": [
        {
          "internalType": "address",
          "name": "operator",
          "type": "address"
        },
        {
          "internalType": "bool",
          "name": "approved",
          "type": "bool"
        }
      ],
      "name": "setApprovalForAll",
      "outputs": [],
      "stateMutability": "nonpayable",
      "type": "function"
    },
    {
      "inputs": [
        {
          "internalType": "string",
          "name": "_newBaseExtension",
          "type": "string"
        }
      ],
      "name": "setBaseExtension",
      "outputs": [],
      "stateMutability": "nonpayable",
      "type": "function"
    },
    {
      "inputs": [
        {
          "internalType": "string",
          "name": "_newBaseURI",
          "type": "string"
        }
      ],
      "name": "setBaseURI",
      "outputs": [],
      "stateMutability": "nonpayable",
      "type": "function"
    },
    {
      "inputs": [
        {
          "internalType": "uint256",
          "name": "_newCost",
          "type": "uint256"
        }
      ],
      "name": "setCost",
      "outputs": [],
      "stateMutability": "nonpayable",
      "type": "function"
    },
    {
      "inputs": [
        {
          "internalType": "uint256",
          "name": "_tokenId",
          "type": "uint256"
        },
        {
          "internalType": "address payable",
          "name": "_royaltiesRecipientAddress",
          "type": "address"
        },
        {
          "internalType": "uint96",
          "name": "_percentageBasisPoints",
          "type": "uint96"
        }
      ],
      "name": "setRoyalties",
      "outputs": [],
      "stateMutability": "nonpayable",
      "type": "function"
    },
    {
      "inputs": [
        {
          "internalType": "uint256",
          "name": "_newmaxMintAmount",
          "type": "uint256"
        }
      ],
      "name": "setmaxMintAmount",
      "outputs": [],
      "stateMutability": "nonpayable",
      "type": "function"
    },
    {
      "inputs": [
        {
          "internalType": "bytes4",
          "name": "interfaceId",
          "type": "bytes4"
        }
      ],
      "name": "supportsInterface",
      "outputs": [
        {
          "internalType": "bool",
          "name": "",
          "type": "bool"
        }
      ],
      "stateMutability": "view",
      "type": "function"
    },
    {
      "inputs": [],
      "name": "symbol",
      "outputs": [
        {
          "internalType": "string",
          "name": "",
          "type": "string"
        }
      ],
      "stateMutability": "view",
      "type": "function"
    },
    {
      "inputs": [
        {
          "internalType": "uint256",
          "name": "index",
          "type": "uint256"
        }
      ],
      "name": "tokenByIndex",
      "outputs": [
        {
          "internalType": "uint256",
          "name": "",
          "type": "uint256"
        }
      ],
      "stateMutability": "view",
      "type": "function"
    },
    {
      "inputs": [
        {
          "internalType": "address",
          "name": "_owner",
          "type": "address"
        }
      ],
      "name": "tokenIdOfOwner",
      "outputs": [
        {
          "internalType": "uint256[]",
          "name": "",
          "type": "uint256[]"
        }
      ],
      "stateMutability": "view",
      "type": "function"
    },
    {
      "inputs": [
        {
          "internalType": "address",
          "name": "owner",
          "type": "address"
        },
        {
          "internalType": "uint256",
          "name": "index",
          "type": "uint256"
        }
      ],
      "name": "tokenOfOwnerByIndex",
      "outputs": [
        {
          "internalType": "uint256",
          "name": "",
          "type": "uint256"
        }
      ],
      "stateMutability": "view",
      "type": "function"
    },
    {
      "inputs": [
        {
          "internalType": "uint256",
          "name": "tokenId",
          "type": "uint256"
        }
      ],
      "name": "tokenURI",
      "outputs": [
        {
          "internalType": "string",
          "name": "",
          "type": "string"
        }
      ],
      "stateMutability": "view",
      "type": "function"
    },
    {
      "inputs": [],
      "name": "totalSupply",
      "outputs": [
        {
          "internalType": "uint256",
          "name": "",
          "type": "uint256"
        }
      ],
      "stateMutability": "view",
      "type": "function"
    },
    {
      "inputs": [
        {
          "internalType": "address",
          "name": "from",
          "type": "address"
        },
        {
          "internalType": "address",
          "name": "to",
          "type": "address"
        },
        {
          "internalType": "uint256",
          "name": "tokenId",
          "type": "uint256"
        }
      ],
      "name": "transferFrom",
      "outputs": [],
      "stateMutability": "nonpayable",
      "type": "function"
    },
    {
      "inputs": [
        {
          "internalType": "address",
          "name": "newOwner",
          "type": "address"
        }
      ],
      "name": "transferOwnership",
      "outputs": [],
      "stateMutability": "nonpayable",
      "type": "function"
    },
    {
      "inputs": [],
      "name": "withdraw",
      "outputs": [],
      "stateMutability": "nonpayable",
      "type": "function"
    }
  ],
  "transactionHash": "0x3fb91fbe0188f72f7f70854e0669e8a5979f112f9b9b130e5710fe5ba2333c3e",
  "args": [
    "DeezNuts",
    "Nutz",
    "ipfs://QmSXYMJqC1UBwJ3ZRVWThc9eoV5y2UvDNxnCbxjSUK8Lut/"
  ],
  "solcInputHash": "af571460747f2205bab937516f48b91a",
  "bytecode": "0x60806040526040518060400160405280600581526020017f2e6a736f6e000000000000000000000000000000000000000000000000000000815250600d908051906020019062000051929190620002c9565b5066f5232269808000600e55611b39600f55600f6010556000601160006101000a81548160ff0219169083151502179055503480156200009057600080fd5b5060405162005ba438038062005ba48339818101604052810190620000b69190620003eb565b82828160009080519060200190620000d0929190620002c9565b508060019080519060200190620000e9929190620002c9565b5050506200010c620001006200012660201b60201c565b6200012e60201b60201c565b6200011d81620001f460201b60201c565b5050506200067f565b600033905090565b6000600a60009054906101000a900473ffffffffffffffffffffffffffffffffffffffff16905081600a60006101000a81548173ffffffffffffffffffffffffffffffffffffffff021916908373ffffffffffffffffffffffffffffffffffffffff1602179055508173ffffffffffffffffffffffffffffffffffffffff168173ffffffffffffffffffffffffffffffffffffffff167f8be0079c531659141344cd1fd0a4f28419497f9722a3daafe3b4186f6b6457e060405160405180910390a35050565b620002046200012660201b60201c565b73ffffffffffffffffffffffffffffffffffffffff166200022a6200029f60201b60201c565b73ffffffffffffffffffffffffffffffffffffffff161462000283576040517f08c379a00000000000000000000000000000000000000000000000000000000081526004016200027a90620004b3565b60405180910390fd5b80600c90805190602001906200029b929190620002c9565b5050565b6000600a60009054906101000a900473ffffffffffffffffffffffffffffffffffffffff16905090565b828054620002d7906200057b565b90600052602060002090601f016020900481019282620002fb576000855562000347565b82601f106200031657805160ff191683800117855562000347565b8280016001018555821562000347579182015b828111156200034657825182559160200191906001019062000329565b5b5090506200035691906200035a565b5090565b5b80821115620003755760008160009055506001016200035b565b5090565b6000620003906200038a84620004fe565b620004d5565b905082815260208101848484011115620003a957600080fd5b620003b684828562000545565b509392505050565b600082601f830112620003d057600080fd5b8151620003e284826020860162000379565b91505092915050565b6000806000606084860312156200040157600080fd5b600084015167ffffffffffffffff8111156200041c57600080fd5b6200042a86828701620003be565b935050602084015167ffffffffffffffff8111156200044857600080fd5b6200045686828701620003be565b925050604084015167ffffffffffffffff8111156200047457600080fd5b6200048286828701620003be565b9150509250925092565b60006200049b60208362000534565b9150620004a88262000656565b602082019050919050565b60006020820190508181036000830152620004ce816200048c565b9050919050565b6000620004e1620004f4565b9050620004ef8282620005b1565b919050565b6000604051905090565b600067ffffffffffffffff8211156200051c576200051b62000616565b5b620005278262000645565b9050602081019050919050565b600082825260208201905092915050565b60005b838110156200056557808201518184015260208101905062000548565b8381111562000575576000848401525b50505050565b600060028204905060018216806200059457607f821691505b60208210811415620005ab57620005aa620005e7565b5b50919050565b620005bc8262000645565b810181811067ffffffffffffffff82111715620005de57620005dd62000616565b5b80604052505050565b7f4e487b7100000000000000000000000000000000000000000000000000000000600052602260045260246000fd5b7f4e487b7100000000000000000000000000000000000000000000000000000000600052604160045260246000fd5b6000601f19601f8301169050919050565b7f4f776e61626c653a2063616c6c6572206973206e6f7420746865206f776e6572600082015250565b615515806200068f6000396000f3fe6080604052600436106102465760003560e01c806370a0823111610139578063b88d4fde116100b6578063d5abeb011161007a578063d5abeb0114610884578063d6e7b8e4146108af578063da3ef23f146108da578063da87741b14610903578063e985e9c514610940578063f2fde38b1461097d57610246565b8063b88d4fde1461078b578063bd3e19d4146107b4578063c6682862146107df578063c87b56dd1461080a578063cad96cca1461084757610246565b806392de3bd4116100fd57806392de3bd4146106c557806395d89b41146106f0578063a0712d681461071b578063a22cb46514610737578063b187bd261461076057610246565b806370a08231146105f2578063714c53981461062f578063715018a61461065a5780637f00c7a6146106715780638da5cb5b1461069a57610246565b80632a55205a116101c75780634c0f38c21161018b5780634c0f38c2146104f95780634f6ccce71461052457806355f804b3146105615780635c975abb1461058a5780636352211e146105b557610246565b80632a55205a146104155780632f745c59146104535780633ccfd60b1461049057806342842e0e146104a757806344a0d68a146104d057610246565b806313faede61161020e57806313faede614610342578063143094db1461036d57806318160ddd14610396578063239c70ae146103c157806323b872dd146103ec57610246565b806301ffc9a71461024b57806302329a291461028857806306fdde03146102b1578063081812fc146102dc578063095ea7b314610319575b600080fd5b34801561025757600080fd5b50610272600480360381019061026d9190613c7c565b6109a6565b60405161027f91906144ed565b60405180910390f35b34801561029457600080fd5b506102af60048036038101906102aa9190613c53565b610a0f565b005b3480156102bd57600080fd5b506102c6610aa8565b6040516102d39190614508565b60405180910390f35b3480156102e857600080fd5b5061030360048036038101906102fe9190613d0f565b610b3a565b6040516103109190614419565b60405180910390f35b34801561032557600080fd5b50610340600480360381019061033b9190613c17565b610bbf565b005b34801561034e57600080fd5b50610357610cd7565b604051610364919061486a565b60405180910390f35b34801561037957600080fd5b50610394600480360381019061038f9190613d38565b610cdd565b005b3480156103a257600080fd5b506103ab610eca565b6040516103b8919061486a565b60405180910390f35b3480156103cd57600080fd5b506103d6610ed7565b6040516103e3919061486a565b60405180910390f35b3480156103f857600080fd5b50610413600480360381019061040e9190613b11565b610edd565b005b34801561042157600080fd5b5061043c60048036038101906104379190613d87565b610f3d565b60405161044a929190614480565b60405180910390f35b34801561045f57600080fd5b5061047a60048036038101906104759190613c17565b61115b565b604051610487919061486a565b60405180910390f35b34801561049c57600080fd5b506104a5611200565b005b3480156104b357600080fd5b506104ce60048036038101906104c99190613b11565b6112d2565b005b3480156104dc57600080fd5b506104f760048036038101906104f29190613d0f565b6112f2565b005b34801561050557600080fd5b5061050e611378565b60405161051b919061486a565b60405180910390f35b34801561053057600080fd5b5061054b60048036038101906105469190613d0f565b611382565b604051610558919061486a565b60405180910390f35b34801561056d57600080fd5b5061058860048036038101906105839190613cce565b611419565b005b34801561059657600080fd5b5061059f6114af565b6040516105ac91906144ed565b60405180910390f35b3480156105c157600080fd5b506105dc60048036038101906105d79190613d0f565b6114c2565b6040516105e99190614419565b60405180910390f35b3480156105fe57600080fd5b5061061960048036038101906106149190613aac565b611574565b604051610626919061486a565b60405180910390f35b34801561063b57600080fd5b5061064461162c565b6040516106519190614508565b60405180910390f35b34801561066657600080fd5b5061066f6116be565b005b34801561067d57600080fd5b5061069860048036038101906106939190613d0f565b611746565b005b3480156106a657600080fd5b506106af6117cc565b6040516106bc9190614419565b60405180910390f35b3480156106d157600080fd5b506106da6117f6565b6040516106e79190614508565b60405180910390f35b3480156106fc57600080fd5b50610705611888565b6040516107129190614508565b60405180910390f35b61073560048036038101906107309190613d0f565b61191a565b005b34801561074357600080fd5b5061075e60048036038101906107599190613bdb565b611b14565b005b34801561076c57600080fd5b50610775611c95565b60405161078291906144ed565b60405180910390f35b34801561079757600080fd5b506107b260048036038101906107ad9190613b60565b611cac565b005b3480156107c057600080fd5b506107c9611d0e565b6040516107d6919061486a565b60405180910390f35b3480156107eb57600080fd5b506107f4611d18565b6040516108019190614508565b60405180910390f35b34801561081657600080fd5b50610831600480360381019061082c9190613d0f565b611da6565b60405161083e9190614508565b60405180910390f35b34801561085357600080fd5b5061086e60048036038101906108699190613d0f565b611e50565b60405161087b91906144a9565b60405180910390f35b34801561089057600080fd5b50610899611f52565b6040516108a6919061486a565b60405180910390f35b3480156108bb57600080fd5b506108c4611f58565b6040516108d1919061486a565b60405180910390f35b3480156108e657600080fd5b5061090160048036038101906108fc9190613cce565b611f62565b005b34801561090f57600080fd5b5061092a60048036038101906109259190613aac565b611ff8565b60405161093791906144cb565b60405180910390f35b34801561094c57600080fd5b5061096760048036038101906109629190613ad5565b612174565b60405161097491906144ed565b60405180910390f35b34801561098957600080fd5b506109a4600480360381019061099f9190613aac565b612208565b005b600063cad96cca60e01b7bffffffffffffffffffffffffffffffffffffffffffffffffffffffff1916827bffffffffffffffffffffffffffffffffffffffffffffffffffffffff191614156109fe5760019050610a0a565b610a0782612300565b90505b919050565b610a1761237a565b73ffffffffffffffffffffffffffffffffffffffff16610a356117cc565b73ffffffffffffffffffffffffffffffffffffffff1614610a8b576040517f08c379a0000000000000000000000000000000000000000000000000000000008152600401610a829061470a565b60405180910390fd5b80601160006101000a81548160ff02191690831515021790555050565b606060008054610ab790614bfb565b80601f0160208091040260200160405190810160405280929190818152602001828054610ae390614bfb565b8015610b305780601f10610b0557610100808354040283529160200191610b30565b820191906000526020600020905b815481529060010190602001808311610b1357829003601f168201915b5050505050905090565b6000610b4582612382565b610b84576040517f08c379a0000000000000000000000000000000000000000000000000000000008152600401610b7b906146ea565b60405180910390fd5b6004600083815260200190815260200160002060009054906101000a900473ffffffffffffffffffffffffffffffffffffffff169050919050565b6000610bca826114c2565b90508073ffffffffffffffffffffffffffffffffffffffff168373ffffffffffffffffffffffffffffffffffffffff161415610c3b576040517f08c379a0000000000000000000000000000000000000000000000000000000008152600401610c329061478a565b60405180910390fd5b8073ffffffffffffffffffffffffffffffffffffffff16610c5a61237a565b73ffffffffffffffffffffffffffffffffffffffff161480610c895750610c8881610c8361237a565b612174565b5b610cc8576040517f08c379a0000000000000000000000000000000000000000000000000000000008152600401610cbf9061466a565b60405180910390fd5b610cd283836123ee565b505050565b600e5481565b610ce561237a565b73ffffffffffffffffffffffffffffffffffffffff16610d036117cc565b73ffffffffffffffffffffffffffffffffffffffff1614610d59576040517f08c379a0000000000000000000000000000000000000000000000000000000008152600401610d509061470a565b60405180910390fd5b6000600167ffffffffffffffff811115610d9c577f4e487b7100000000000000000000000000000000000000000000000000000000600052604160045260246000fd5b604051908082528060200260200182016040528015610dd557816020015b610dc2613868565b815260200190600190039081610dba5790505b5090508181600081518110610e13577f4e487b7100000000000000000000000000000000000000000000000000000000600052603260045260246000fd5b6020026020010151602001906bffffffffffffffffffffffff1690816bffffffffffffffffffffffff16815250508281600081518110610e7c577f4e487b7100000000000000000000000000000000000000000000000000000000600052603260045260246000fd5b60200260200101516000019073ffffffffffffffffffffffffffffffffffffffff16908173ffffffffffffffffffffffffffffffffffffffff1681525050610ec484826124a7565b50505050565b6000600880549050905090565b60105481565b610eee610ee861237a565b826127c2565b610f2d576040517f08c379a0000000000000000000000000000000000000000000000000000000008152600401610f24906147ca565b60405180910390fd5b610f388383836128a0565b505050565b6000806000600b6000868152602001908152602001600020805490501415610f6c576000915060009050611154565b6000600b6000868152602001908152602001600020805480602002602001604051908101604052809291908181526020016000905b82821015611063578382906000526020600020016040518060400160405290816000820160009054906101000a900473ffffffffffffffffffffffffffffffffffffffff1673ffffffffffffffffffffffffffffffffffffffff1673ffffffffffffffffffffffffffffffffffffffff1681526020016000820160149054906101000a90046bffffffffffffffffffffffff166bffffffffffffffffffffffff166bffffffffffffffffffffffff168152505081526020019060010190610fa1565b505050509050806000815181106110a3577f4e487b7100000000000000000000000000000000000000000000000000000000600052603260045260246000fd5b6020026020010151600001519250600080600090505b8251811015611135578281815181106110fb577f4e487b7100000000000000000000000000000000000000000000000000000000600052603260045260246000fd5b6020026020010151602001516bffffffffffffffffffffffff16826111209190614a06565b9150808061112d90614c5e565b9150506110b9565b5061271085826111459190614a8d565b61114f9190614a5c565b925050505b9250929050565b600061116683611574565b82106111a7576040517f08c379a000000000000000000000000000000000000000000000000000000000815260040161119e9061452a565b60405180910390fd5b600660008473ffffffffffffffffffffffffffffffffffffffff1673ffffffffffffffffffffffffffffffffffffffff168152602001908152602001600020600083815260200190815260200160002054905092915050565b61120861237a565b73ffffffffffffffffffffffffffffffffffffffff166112266117cc565b73ffffffffffffffffffffffffffffffffffffffff161461127c576040517f08c379a00000000000000000000000000000000000000000000000000000000081526004016112739061470a565b60405180910390fd5b60006112866117cc565b90508073ffffffffffffffffffffffffffffffffffffffff166108fc479081150290604051600060405180830381858888f193505050501580156112ce573d6000803e3d6000fd5b5050565b6112ed83838360405180602001604052806000815250611cac565b505050565b6112fa61237a565b73ffffffffffffffffffffffffffffffffffffffff166113186117cc565b73ffffffffffffffffffffffffffffffffffffffff161461136e576040517f08c379a00000000000000000000000000000000000000000000000000000000081526004016113659061470a565b60405180910390fd5b80600e8190555050565b6000600f54905090565b600061138c610eca565b82106113cd576040517f08c379a00000000000000000000000000000000000000000000000000000000081526004016113c4906147ea565b60405180910390fd5b60088281548110611407577f4e487b7100000000000000000000000000000000000000000000000000000000600052603260045260246000fd5b90600052602060002001549050919050565b61142161237a565b73ffffffffffffffffffffffffffffffffffffffff1661143f6117cc565b73ffffffffffffffffffffffffffffffffffffffff1614611495576040517f08c379a000000000000000000000000000000000000000000000000000000000815260040161148c9061470a565b60405180910390fd5b80600c90805190602001906114ab9291906138a6565b5050565b601160009054906101000a900460ff1681565b6000806002600084815260200190815260200160002060009054906101000a900473ffffffffffffffffffffffffffffffffffffffff169050600073ffffffffffffffffffffffffffffffffffffffff168173ffffffffffffffffffffffffffffffffffffffff16141561156b576040517f08c379a0000000000000000000000000000000000000000000000000000000008152600401611562906146aa565b60405180910390fd5b80915050919050565b60008073ffffffffffffffffffffffffffffffffffffffff168273ffffffffffffffffffffffffffffffffffffffff1614156115e5576040517f08c379a00000000000000000000000000000000000000000000000000000000081526004016115dc9061468a565b60405180910390fd5b600360008373ffffffffffffffffffffffffffffffffffffffff1673ffffffffffffffffffffffffffffffffffffffff168152602001908152602001600020549050919050565b6060600c805461163b90614bfb565b80601f016020809104026020016040519081016040528092919081815260200182805461166790614bfb565b80156116b45780601f10611689576101008083540402835291602001916116b4565b820191906000526020600020905b81548152906001019060200180831161169757829003601f168201915b5050505050905090565b6116c661237a565b73ffffffffffffffffffffffffffffffffffffffff166116e46117cc565b73ffffffffffffffffffffffffffffffffffffffff161461173a576040517f08c379a00000000000000000000000000000000000000000000000000000000081526004016117319061470a565b60405180910390fd5b6117446000612afc565b565b61174e61237a565b73ffffffffffffffffffffffffffffffffffffffff1661176c6117cc565b73ffffffffffffffffffffffffffffffffffffffff16146117c2576040517f08c379a00000000000000000000000000000000000000000000000000000000081526004016117b99061470a565b60405180910390fd5b8060108190555050565b6000600a60009054906101000a900473ffffffffffffffffffffffffffffffffffffffff16905090565b6060600d805461180590614bfb565b80601f016020809104026020016040519081016040528092919081815260200182805461183190614bfb565b801561187e5780601f106118535761010080835404028352916020019161187e565b820191906000526020600020905b81548152906001019060200180831161186157829003601f168201915b5050505050905090565b60606001805461189790614bfb565b80601f01602080910402602001604051908101604052809291908181526020018280546118c390614bfb565b80156119105780601f106118e557610100808354040283529160200191611910565b820191906000526020600020905b8154815290600101906020018083116118f357829003601f168201915b5050505050905090565b6000611924610eca565b9050601160009054906101000a900460ff1615611976576040517f08c379a000000000000000000000000000000000000000000000000000000000815260040161196d9061454a565b60405180910390fd5b600082116119b9576040517f08c379a00000000000000000000000000000000000000000000000000000000081526004016119b09061482a565b60405180910390fd5b6010548211156119fe576040517f08c379a00000000000000000000000000000000000000000000000000000000081526004016119f59061476a565b60405180910390fd5b600f548282611a0d9190614a06565b1115611a4e576040517f08c379a0000000000000000000000000000000000000000000000000000000008152600401611a459061458a565b60405180910390fd5b611a566117cc565b73ffffffffffffffffffffffffffffffffffffffff163373ffffffffffffffffffffffffffffffffffffffff1614611ad95781600e54611a969190614a8d565b341015611ad8576040517f08c379a0000000000000000000000000000000000000000000000000000000008152600401611acf906147aa565b60405180910390fd5b5b6000600190505b828111611b0f57611afc338284611af79190614a06565b612bc2565b8080611b0790614c5e565b915050611ae0565b505050565b611b1c61237a565b73ffffffffffffffffffffffffffffffffffffffff168273ffffffffffffffffffffffffffffffffffffffff161415611b8a576040517f08c379a0000000000000000000000000000000000000000000000000000000008152600401611b819061460a565b60405180910390fd5b8060056000611b9761237a565b73ffffffffffffffffffffffffffffffffffffffff1673ffffffffffffffffffffffffffffffffffffffff16815260200190815260200160002060008473ffffffffffffffffffffffffffffffffffffffff1673ffffffffffffffffffffffffffffffffffffffff16815260200190815260200160002060006101000a81548160ff0219169083151502179055508173ffffffffffffffffffffffffffffffffffffffff16611c4461237a565b73ffffffffffffffffffffffffffffffffffffffff167f17307eab39ab6107e8899845ad3d59bd9653f200f220920489ca2b5937696c3183604051611c8991906144ed565b60405180910390a35050565b6000601160009054906101000a900460ff16905090565b611cbd611cb761237a565b836127c2565b611cfc576040517f08c379a0000000000000000000000000000000000000000000000000000000008152600401611cf3906147ca565b60405180910390fd5b611d0884848484612be0565b50505050565b6000600e54905090565b600d8054611d2590614bfb565b80601f0160208091040260200160405190810160405280929190818152602001828054611d5190614bfb565b8015611d9e5780601f10611d7357610100808354040283529160200191611d9e565b820191906000526020600020905b815481529060010190602001808311611d8157829003601f168201915b505050505081565b6060611db182612382565b611df0576040517f08c379a0000000000000000000000000000000000000000000000000000000008152600401611de79061474a565b60405180910390fd5b6000611dfa612c3c565b90506000815111611e1a5760405180602001604052806000815250611e48565b80611e2484612cce565b600d604051602001611e38939291906143e8565b6040516020818303038152906040525b915050919050565b6060600b6000838152602001908152602001600020805480602002602001604051908101604052809291908181526020016000905b82821015611f47578382906000526020600020016040518060400160405290816000820160009054906101000a900473ffffffffffffffffffffffffffffffffffffffff1673ffffffffffffffffffffffffffffffffffffffff1673ffffffffffffffffffffffffffffffffffffffff1681526020016000820160149054906101000a90046bffffffffffffffffffffffff166bffffffffffffffffffffffff166bffffffffffffffffffffffff168152505081526020019060010190611e85565b505050509050919050565b600f5481565b6000601054905090565b611f6a61237a565b73ffffffffffffffffffffffffffffffffffffffff16611f886117cc565b73ffffffffffffffffffffffffffffffffffffffff1614611fde576040517f08c379a0000000000000000000000000000000000000000000000000000000008152600401611fd59061470a565b60405180910390fd5b80600d9080519060200190611ff49291906138a6565b5050565b6060600061200583611574565b9050600081141561208857600067ffffffffffffffff811115612051577f4e487b7100000000000000000000000000000000000000000000000000000000600052604160045260246000fd5b60405190808252806020026020018201604052801561207f5781602001602082028036833780820191505090505b5091505061216f565b60008167ffffffffffffffff8111156120ca577f4e487b7100000000000000000000000000000000000000000000000000000000600052604160045260246000fd5b6040519080825280602002602001820160405280156120f85781602001602082028036833780820191505090505b50905060005b8281101561216857612110858261115b565b828281518110612149577f4e487b7100000000000000000000000000000000000000000000000000000000600052603260045260246000fd5b602002602001018181525050808061216090614c5e565b9150506120fe565b5080925050505b919050565b6000600560008473ffffffffffffffffffffffffffffffffffffffff1673ffffffffffffffffffffffffffffffffffffffff16815260200190815260200160002060008373ffffffffffffffffffffffffffffffffffffffff1673ffffffffffffffffffffffffffffffffffffffff16815260200190815260200160002060009054906101000a900460ff16905092915050565b61221061237a565b73ffffffffffffffffffffffffffffffffffffffff1661222e6117cc565b73ffffffffffffffffffffffffffffffffffffffff1614612284576040517f08c379a000000000000000000000000000000000000000000000000000000000815260040161227b9061470a565b60405180910390fd5b600073ffffffffffffffffffffffffffffffffffffffff168173ffffffffffffffffffffffffffffffffffffffff1614156122f4576040517f08c379a00000000000000000000000000000000000000000000000000000000081526004016122eb906145aa565b60405180910390fd5b6122fd81612afc565b50565b60007f780e9d63000000000000000000000000000000000000000000000000000000007bffffffffffffffffffffffffffffffffffffffffffffffffffffffff1916827bffffffffffffffffffffffffffffffffffffffffffffffffffffffff19161480612373575061237282612e7b565b5b9050919050565b600033905090565b60008073ffffffffffffffffffffffffffffffffffffffff166002600084815260200190815260200160002060009054906101000a900473ffffffffffffffffffffffffffffffffffffffff1673ffffffffffffffffffffffffffffffffffffffff1614159050919050565b816004600083815260200190815260200160002060006101000a81548173ffffffffffffffffffffffffffffffffffffffff021916908373ffffffffffffffffffffffffffffffffffffffff160217905550808273ffffffffffffffffffffffffffffffffffffffff16612461836114c2565b73ffffffffffffffffffffffffffffffffffffffff167f8c5be1e5ebec7d5bd14f71427d1e84f3dd0314c0f7b2291e5b200ac8c7c3b92560405160405180910390a45050565b600080600090505b825181101561276e57600073ffffffffffffffffffffffffffffffffffffffff16838281518110612509577f4e487b7100000000000000000000000000000000000000000000000000000000600052603260045260246000fd5b60200260200101516000015173ffffffffffffffffffffffffffffffffffffffff16141561256c576040517f08c379a00000000000000000000000000000000000000000000000000000000081526004016125639061484a565b60405180910390fd5b60008382815181106125a7577f4e487b7100000000000000000000000000000000000000000000000000000000600052603260045260246000fd5b6020026020010151602001516bffffffffffffffffffffffff161415612602576040517f08c379a00000000000000000000000000000000000000000000000000000000081526004016125f99061464a565b60405180910390fd5b82818151811061263b577f4e487b7100000000000000000000000000000000000000000000000000000000600052603260045260246000fd5b6020026020010151602001516bffffffffffffffffffffffff16826126609190614a06565b9150600b60008581526020019081526020016000208382815181106126ae577f4e487b7100000000000000000000000000000000000000000000000000000000600052603260045260246000fd5b60200260200101519080600181540180825580915050600190039060005260206000200160009091909190915060008201518160000160006101000a81548173ffffffffffffffffffffffffffffffffffffffff021916908373ffffffffffffffffffffffffffffffffffffffff16021790555060208201518160000160146101000a8154816bffffffffffffffffffffffff02191690836bffffffffffffffffffffffff1602179055505050808061276690614c5e565b9150506124af565b5061271081106127b3576040517f08c379a00000000000000000000000000000000000000000000000000000000081526004016127aa9061480a565b60405180910390fd5b6127bd8383612f5d565b505050565b60006127cd82612382565b61280c576040517f08c379a00000000000000000000000000000000000000000000000000000000081526004016128039061462a565b60405180910390fd5b6000612817836114c2565b90508073ffffffffffffffffffffffffffffffffffffffff168473ffffffffffffffffffffffffffffffffffffffff16148061288657508373ffffffffffffffffffffffffffffffffffffffff1661286e84610b3a565b73ffffffffffffffffffffffffffffffffffffffff16145b8061289757506128968185612174565b5b91505092915050565b8273ffffffffffffffffffffffffffffffffffffffff166128c0826114c2565b73ffffffffffffffffffffffffffffffffffffffff1614612916576040517f08c379a000000000000000000000000000000000000000000000000000000000815260040161290d9061472a565b60405180910390fd5b600073ffffffffffffffffffffffffffffffffffffffff168273ffffffffffffffffffffffffffffffffffffffff161415612986576040517f08c379a000000000000000000000000000000000000000000000000000000000815260040161297d906145ea565b60405180910390fd5b612991838383612f9a565b61299c6000826123ee565b6001600360008573ffffffffffffffffffffffffffffffffffffffff1673ffffffffffffffffffffffffffffffffffffffff16815260200190815260200160002060008282546129ec9190614ae7565b925050819055506001600360008473ffffffffffffffffffffffffffffffffffffffff1673ffffffffffffffffffffffffffffffffffffffff1681526020019081526020016000206000828254612a439190614a06565b92505081905550816002600083815260200190815260200160002060006101000a81548173ffffffffffffffffffffffffffffffffffffffff021916908373ffffffffffffffffffffffffffffffffffffffff160217905550808273ffffffffffffffffffffffffffffffffffffffff168473ffffffffffffffffffffffffffffffffffffffff167fddf252ad1be2c89b69c2b068fc378daa952ba7f163c4a11628f55a4df523b3ef60405160405180910390a4505050565b6000600a60009054906101000a900473ffffffffffffffffffffffffffffffffffffffff16905081600a60006101000a81548173ffffffffffffffffffffffffffffffffffffffff021916908373ffffffffffffffffffffffffffffffffffffffff1602179055508173ffffffffffffffffffffffffffffffffffffffff168173ffffffffffffffffffffffffffffffffffffffff167f8be0079c531659141344cd1fd0a4f28419497f9722a3daafe3b4186f6b6457e060405160405180910390a35050565b612bdc8282604051806020016040528060008152506130ae565b5050565b612beb8484846128a0565b612bf784848484613109565b612c36576040517f08c379a0000000000000000000000000000000000000000000000000000000008152600401612c2d9061456a565b60405180910390fd5b50505050565b6060600c8054612c4b90614bfb565b80601f0160208091040260200160405190810160405280929190818152602001828054612c7790614bfb565b8015612cc45780601f10612c9957610100808354040283529160200191612cc4565b820191906000526020600020905b815481529060010190602001808311612ca757829003601f168201915b5050505050905090565b60606000821415612d16576040518060400160405280600181526020017f30000000000000000000000000000000000000000000000000000000000000008152509050612e76565b600082905060005b60008214612d48578080612d3190614c5e565b915050600a82612d419190614a5c565b9150612d1e565b60008167ffffffffffffffff811115612d8a577f4e487b7100000000000000000000000000000000000000000000000000000000600052604160045260246000fd5b6040519080825280601f01601f191660200182016040528015612dbc5781602001600182028036833780820191505090505b5090505b60008514612e6f57600182612dd59190614ae7565b9150600a85612de49190614ca7565b6030612df09190614a06565b60f81b818381518110612e2c577f4e487b7100000000000000000000000000000000000000000000000000000000600052603260045260246000fd5b60200101907effffffffffffffffffffffffffffffffffffffffffffffffffffffffffffff1916908160001a905350600a85612e689190614a5c565b9450612dc0565b8093505050505b919050565b60007f80ac58cd000000000000000000000000000000000000000000000000000000007bffffffffffffffffffffffffffffffffffffffffffffffffffffffff1916827bffffffffffffffffffffffffffffffffffffffffffffffffffffffff19161480612f4657507f5b5e139f000000000000000000000000000000000000000000000000000000007bffffffffffffffffffffffffffffffffffffffffffffffffffffffff1916827bffffffffffffffffffffffffffffffffffffffffffffffffffffffff1916145b80612f565750612f55826132a0565b5b9050919050565b7f3fa96d7b6bcbfe71ef171666d84db3cf52fa2d1c8afdb1cc8e486177f208b7df8282604051612f8e929190614885565b60405180910390a15050565b612fa583838361330a565b600073ffffffffffffffffffffffffffffffffffffffff168373ffffffffffffffffffffffffffffffffffffffff161415612fe857612fe38161330f565b613027565b8173ffffffffffffffffffffffffffffffffffffffff168373ffffffffffffffffffffffffffffffffffffffff1614613026576130258382613358565b5b5b600073ffffffffffffffffffffffffffffffffffffffff168273ffffffffffffffffffffffffffffffffffffffff16141561306a57613065816134c5565b6130a9565b8273ffffffffffffffffffffffffffffffffffffffff168273ffffffffffffffffffffffffffffffffffffffff16146130a8576130a78282613608565b5b5b505050565b6130b88383613687565b6130c56000848484613109565b613104576040517f08c379a00000000000000000000000000000000000000000000000000000000081526004016130fb9061456a565b60405180910390fd5b505050565b600061312a8473ffffffffffffffffffffffffffffffffffffffff16613855565b15613293578373ffffffffffffffffffffffffffffffffffffffff1663150b7a0261315361237a565b8786866040518563ffffffff1660e01b81526004016131759493929190614434565b602060405180830381600087803b15801561318f57600080fd5b505af19250505080156131c057506040513d601f19601f820116820180604052508101906131bd9190613ca5565b60015b613243573d80600081146131f0576040519150601f19603f3d011682016040523d82523d6000602084013e6131f5565b606091505b5060008151141561323b576040517f08c379a00000000000000000000000000000000000000000000000000000000081526004016132329061456a565b60405180910390fd5b805181602001fd5b63150b7a0260e01b7bffffffffffffffffffffffffffffffffffffffffffffffffffffffff1916817bffffffffffffffffffffffffffffffffffffffffffffffffffffffff191614915050613298565b600190505b949350505050565b60007f01ffc9a7000000000000000000000000000000000000000000000000000000007bffffffffffffffffffffffffffffffffffffffffffffffffffffffff1916827bffffffffffffffffffffffffffffffffffffffffffffffffffffffff1916149050919050565b505050565b6008805490506009600083815260200190815260200160002081905550600881908060018154018082558091505060019003906000526020600020016000909190919091505550565b6000600161336584611574565b61336f9190614ae7565b9050600060076000848152602001908152602001600020549050818114613454576000600660008673ffffffffffffffffffffffffffffffffffffffff1673ffffffffffffffffffffffffffffffffffffffff168152602001908152602001600020600084815260200190815260200160002054905080600660008773ffffffffffffffffffffffffffffffffffffffff1673ffffffffffffffffffffffffffffffffffffffff168152602001908152602001600020600084815260200190815260200160002081905550816007600083815260200190815260200160002081905550505b6007600084815260200190815260200160002060009055600660008573ffffffffffffffffffffffffffffffffffffffff1673ffffffffffffffffffffffffffffffffffffffff16815260200190815260200160002060008381526020019081526020016000206000905550505050565b600060016008805490506134d99190614ae7565b905060006009600084815260200190815260200160002054905060006008838154811061352f577f4e487b7100000000000000000000000000000000000000000000000000000000600052603260045260246000fd5b906000526020600020015490508060088381548110613577577f4e487b7100000000000000000000000000000000000000000000000000000000600052603260045260246000fd5b9060005260206000200181905550816009600083815260200190815260200160002081905550600960008581526020019081526020016000206000905560088054806135ec577f4e487b7100000000000000000000000000000000000000000000000000000000600052603160045260246000fd5b6001900381819060005260206000200160009055905550505050565b600061361383611574565b905081600660008573ffffffffffffffffffffffffffffffffffffffff1673ffffffffffffffffffffffffffffffffffffffff168152602001908152602001600020600083815260200190815260200160002081905550806007600084815260200190815260200160002081905550505050565b600073ffffffffffffffffffffffffffffffffffffffff168273ffffffffffffffffffffffffffffffffffffffff1614156136f7576040517f08c379a00000000000000000000000000000000000000000000000000000000081526004016136ee906146ca565b60405180910390fd5b61370081612382565b15613740576040517f08c379a0000000000000000000000000000000000000000000000000000000008152600401613737906145ca565b60405180910390fd5b61374c60008383612f9a565b6001600360008473ffffffffffffffffffffffffffffffffffffffff1673ffffffffffffffffffffffffffffffffffffffff168152602001908152602001600020600082825461379c9190614a06565b92505081905550816002600083815260200190815260200160002060006101000a81548173ffffffffffffffffffffffffffffffffffffffff021916908373ffffffffffffffffffffffffffffffffffffffff160217905550808273ffffffffffffffffffffffffffffffffffffffff16600073ffffffffffffffffffffffffffffffffffffffff167fddf252ad1be2c89b69c2b068fc378daa952ba7f163c4a11628f55a4df523b3ef60405160405180910390a45050565b600080823b905060008111915050919050565b6040518060400160405280600073ffffffffffffffffffffffffffffffffffffffff16815260200160006bffffffffffffffffffffffff1681525090565b8280546138b290614bfb565b90600052602060002090601f0160209004810192826138d4576000855561391b565b82601f106138ed57805160ff191683800117855561391b565b8280016001018555821561391b579182015b8281111561391a5782518255916020019190600101906138ff565b5b509050613928919061392c565b5090565b5b8082111561394557600081600090555060010161392d565b5090565b600061395c613957846148da565b6148b5565b90508281526020810184848401111561397457600080fd5b61397f848285614bb9565b509392505050565b600061399a6139958461490b565b6148b5565b9050828152602081018484840111156139b257600080fd5b6139bd848285614bb9565b509392505050565b6000813590506139d481615455565b92915050565b6000813590506139e98161546c565b92915050565b6000813590506139fe81615483565b92915050565b600081359050613a138161549a565b92915050565b600081519050613a288161549a565b92915050565b600082601f830112613a3f57600080fd5b8135613a4f848260208601613949565b91505092915050565b600082601f830112613a6957600080fd5b8135613a79848260208601613987565b91505092915050565b600081359050613a91816154b1565b92915050565b600081359050613aa6816154c8565b92915050565b600060208284031215613abe57600080fd5b6000613acc848285016139c5565b91505092915050565b60008060408385031215613ae857600080fd5b6000613af6858286016139c5565b9250506020613b07858286016139c5565b9150509250929050565b600080600060608486031215613b2657600080fd5b6000613b34868287016139c5565b9350506020613b45868287016139c5565b9250506040613b5686828701613a82565b9150509250925092565b60008060008060808587031215613b7657600080fd5b6000613b84878288016139c5565b9450506020613b95878288016139c5565b9350506040613ba687828801613a82565b925050606085013567ffffffffffffffff811115613bc357600080fd5b613bcf87828801613a2e565b91505092959194509250565b60008060408385031215613bee57600080fd5b6000613bfc858286016139c5565b9250506020613c0d858286016139ef565b9150509250929050565b60008060408385031215613c2a57600080fd5b6000613c38858286016139c5565b9250506020613c4985828601613a82565b9150509250929050565b600060208284031215613c6557600080fd5b6000613c73848285016139ef565b91505092915050565b600060208284031215613c8e57600080fd5b6000613c9c84828501613a04565b91505092915050565b600060208284031215613cb757600080fd5b6000613cc584828501613a19565b91505092915050565b600060208284031215613ce057600080fd5b600082013567ffffffffffffffff811115613cfa57600080fd5b613d0684828501613a58565b91505092915050565b600060208284031215613d2157600080fd5b6000613d2f84828501613a82565b91505092915050565b600080600060608486031215613d4d57600080fd5b6000613d5b86828701613a82565b9350506020613d6c868287016139da565b9250506040613d7d86828701613a97565b9150509250925092565b60008060408385031215613d9a57600080fd5b6000613da885828601613a82565b9250506020613db985828601613a82565b9150509250929050565b6000613dcf838361438c565b60408301905092915050565b6000613de783836143bb565b60208301905092915050565b613dfc81614b2d565b82525050565b613e0b81614b1b565b82525050565b6000613e1c82614971565b613e2681856149b7565b9350613e318361493c565b8060005b83811015613e62578151613e498882613dc3565b9750613e548361499d565b925050600181019050613e35565b5085935050505092915050565b6000613e7a8261497c565b613e8481856149c8565b9350613e8f8361494c565b8060005b83811015613ec0578151613ea78882613ddb565b9750613eb2836149aa565b925050600181019050613e93565b5085935050505092915050565b613ed681614b3f565b82525050565b6000613ee782614987565b613ef181856149d9565b9350613f01818560208601614bc8565b613f0a81614d94565b840191505092915050565b6000613f2082614992565b613f2a81856149ea565b9350613f3a818560208601614bc8565b613f4381614d94565b840191505092915050565b6000613f5982614992565b613f6381856149fb565b9350613f73818560208601614bc8565b80840191505092915050565b60008154613f8c81614bfb565b613f9681866149fb565b94506001821660008114613fb15760018114613fc257613ff5565b60ff19831686528186019350613ff5565b613fcb8561495c565b60005b83811015613fed57815481890152600182019150602081019050613fce565b838801955050505b50505092915050565b600061400b602b836149ea565b915061401682614da5565b604082019050919050565b600061402e6014836149ea565b915061403982614df4565b602082019050919050565b60006140516032836149ea565b915061405c82614e1d565b604082019050919050565b60006140746026836149ea565b915061407f82614e6c565b604082019050919050565b60006140976026836149ea565b91506140a282614ebb565b604082019050919050565b60006140ba601c836149ea565b91506140c582614f0a565b602082019050919050565b60006140dd6024836149ea565b91506140e882614f33565b604082019050919050565b60006141006019836149ea565b915061410b82614f82565b602082019050919050565b6000614123602c836149ea565b915061412e82614fab565b604082019050919050565b60006141466020836149ea565b915061415182614ffa565b602082019050919050565b60006141696038836149ea565b915061417482615023565b604082019050919050565b600061418c602a836149ea565b915061419782615072565b604082019050919050565b60006141af6029836149ea565b91506141ba826150c1565b604082019050919050565b60006141d26020836149ea565b91506141dd82615110565b602082019050919050565b60006141f5602c836149ea565b915061420082615139565b604082019050919050565b60006142186020836149ea565b915061422382615188565b602082019050919050565b600061423b6029836149ea565b9150614246826151b1565b604082019050919050565b600061425e602f836149ea565b915061426982615200565b604082019050919050565b6000614281602f836149ea565b915061428c8261524f565b604082019050919050565b60006142a46021836149ea565b91506142af8261529e565b604082019050919050565b60006142c76016836149ea565b91506142d2826152ed565b602082019050919050565b60006142ea6031836149ea565b91506142f582615316565b604082019050919050565b600061430d602c836149ea565b915061431882615365565b604082019050919050565b60006143306025836149ea565b915061433b826153b4565b604082019050919050565b60006143536017836149ea565b915061435e82615403565b602082019050919050565b6000614376601b836149ea565b91506143818261542c565b602082019050919050565b6040820160008201516143a26000850182613df3565b5060208201516143b560208501826143d9565b50505050565b6143c481614b97565b82525050565b6143d381614b97565b82525050565b6143e281614ba1565b82525050565b60006143f48286613f4e565b91506144008285613f4e565b915061440c8284613f7f565b9150819050949350505050565b600060208201905061442e6000830184613e02565b92915050565b60006080820190506144496000830187613e02565b6144566020830186613e02565b61446360408301856143ca565b81810360608301526144758184613edc565b905095945050505050565b60006040820190506144956000830185613e02565b6144a260208301846143ca565b9392505050565b600060208201905081810360008301526144c38184613e11565b905092915050565b600060208201905081810360008301526144e58184613e6f565b905092915050565b60006020820190506145026000830184613ecd565b92915050565b600060208201905081810360008301526145228184613f15565b905092915050565b6000602082019050818103600083015261454381613ffe565b9050919050565b6000602082019050818103600083015261456381614021565b9050919050565b6000602082019050818103600083015261458381614044565b9050919050565b600060208201905081810360008301526145a381614067565b9050919050565b600060208201905081810360008301526145c38161408a565b9050919050565b600060208201905081810360008301526145e3816140ad565b9050919050565b60006020820190508181036000830152614603816140d0565b9050919050565b60006020820190508181036000830152614623816140f3565b9050919050565b6000602082019050818103600083015261464381614116565b9050919050565b6000602082019050818103600083015261466381614139565b9050919050565b600060208201905081810360008301526146838161415c565b9050919050565b600060208201905081810360008301526146a38161417f565b9050919050565b600060208201905081810360008301526146c3816141a2565b9050919050565b600060208201905081810360008301526146e3816141c5565b9050919050565b60006020820190508181036000830152614703816141e8565b9050919050565b600060208201905081810360008301526147238161420b565b9050919050565b600060208201905081810360008301526147438161422e565b9050919050565b6000602082019050818103600083015261476381614251565b9050919050565b6000602082019050818103600083015261478381614274565b9050919050565b600060208201905081810360008301526147a381614297565b9050919050565b600060208201905081810360008301526147c3816142ba565b9050919050565b600060208201905081810360008301526147e3816142dd565b9050919050565b6000602082019050818103600083015261480381614300565b9050919050565b6000602082019050818103600083015261482381614323565b9050919050565b6000602082019050818103600083015261484381614346565b9050919050565b6000602082019050818103600083015261486381614369565b9050919050565b600060208201905061487f60008301846143ca565b92915050565b600060408201905061489a60008301856143ca565b81810360208301526148ac8184613e11565b90509392505050565b60006148bf6148d0565b90506148cb8282614c2d565b919050565b6000604051905090565b600067ffffffffffffffff8211156148f5576148f4614d65565b5b6148fe82614d94565b9050602081019050919050565b600067ffffffffffffffff82111561492657614925614d65565b5b61492f82614d94565b9050602081019050919050565b6000819050602082019050919050565b6000819050602082019050919050565b60008190508160005260206000209050919050565b600081519050919050565b600081519050919050565b600081519050919050565b600081519050919050565b6000602082019050919050565b6000602082019050919050565b600082825260208201905092915050565b600082825260208201905092915050565b600082825260208201905092915050565b600082825260208201905092915050565b600081905092915050565b6000614a1182614b97565b9150614a1c83614b97565b9250827fffffffffffffffffffffffffffffffffffffffffffffffffffffffffffffffff03821115614a5157614a50614cd8565b5b828201905092915050565b6000614a6782614b97565b9150614a7283614b97565b925082614a8257614a81614d07565b5b828204905092915050565b6000614a9882614b97565b9150614aa383614b97565b9250817fffffffffffffffffffffffffffffffffffffffffffffffffffffffffffffffff0483118215151615614adc57614adb614cd8565b5b828202905092915050565b6000614af282614b97565b9150614afd83614b97565b925082821015614b1057614b0f614cd8565b5b828203905092915050565b6000614b2682614b77565b9050919050565b6000614b3882614b77565b9050919050565b60008115159050919050565b60007fffffffff0000000000000000000000000000000000000000000000000000000082169050919050565b600073ffffffffffffffffffffffffffffffffffffffff82169050919050565b6000819050919050565b60006bffffffffffffffffffffffff82169050919050565b82818337600083830152505050565b60005b83811015614be6578082015181840152602081019050614bcb565b83811115614bf5576000848401525b50505050565b60006002820490506001821680614c1357607f821691505b60208210811415614c2757614c26614d36565b5b50919050565b614c3682614d94565b810181811067ffffffffffffffff82111715614c5557614c54614d65565b5b80604052505050565b6000614c6982614b97565b91507fffffffffffffffffffffffffffffffffffffffffffffffffffffffffffffffff821415614c9c57614c9b614cd8565b5b600182019050919050565b6000614cb282614b97565b9150614cbd83614b97565b925082614ccd57614ccc614d07565b5b828206905092915050565b7f4e487b7100000000000000000000000000000000000000000000000000000000600052601160045260246000fd5b7f4e487b7100000000000000000000000000000000000000000000000000000000600052601260045260246000fd5b7f4e487b7100000000000000000000000000000000000000000000000000000000600052602260045260246000fd5b7f4e487b7100000000000000000000000000000000000000000000000000000000600052604160045260246000fd5b6000601f19601f8301169050919050565b7f455243373231456e756d657261626c653a206f776e657220696e646578206f7560008201527f74206f6620626f756e6473000000000000000000000000000000000000000000602082015250565b7f53616c6520686173206265656e20706175736564000000000000000000000000600082015250565b7f4552433732313a207472616e7366657220746f206e6f6e20455243373231526560008201527f63656976657220696d706c656d656e7465720000000000000000000000000000602082015250565b7f4d696e74696e672074686973206d616e7920776f756c6420657863656564207360008201527f7570706c79210000000000000000000000000000000000000000000000000000602082015250565b7f4f776e61626c653a206e6577206f776e657220697320746865207a65726f206160008201527f6464726573730000000000000000000000000000000000000000000000000000602082015250565b7f4552433732313a20746f6b656e20616c7265616479206d696e74656400000000600082015250565b7f4552433732313a207472616e7366657220746f20746865207a65726f2061646460008201527f7265737300000000000000000000000000000000000000000000000000000000602082015250565b7f4552433732313a20617070726f766520746f2063616c6c657200000000000000600082015250565b7f4552433732313a206f70657261746f7220717565727920666f72206e6f6e657860008201527f697374656e7420746f6b656e0000000000000000000000000000000000000000602082015250565b7f526f79616c74792076616c75652073686f756c6420626520706f736974697665600082015250565b7f4552433732313a20617070726f76652063616c6c6572206973206e6f74206f7760008201527f6e6572206e6f7220617070726f76656420666f7220616c6c0000000000000000602082015250565b7f4552433732313a2062616c616e636520717565727920666f7220746865207a6560008201527f726f206164647265737300000000000000000000000000000000000000000000602082015250565b7f4552433732313a206f776e657220717565727920666f72206e6f6e657869737460008201527f656e7420746f6b656e0000000000000000000000000000000000000000000000602082015250565b7f4552433732313a206d696e7420746f20746865207a65726f2061646472657373600082015250565b7f4552433732313a20617070726f76656420717565727920666f72206e6f6e657860008201527f697374656e7420746f6b656e0000000000000000000000000000000000000000602082015250565b7f4f776e61626c653a2063616c6c6572206973206e6f7420746865206f776e6572600082015250565b7f4552433732313a207472616e73666572206f6620746f6b656e2074686174206960008201527f73206e6f74206f776e0000000000000000000000000000000000000000000000602082015250565b7f4552433732314d657461646174613a2055524920717565727920666f72206e6f60008201527f6e6578697374656e7420746f6b656e0000000000000000000000000000000000602082015250565b7f54686572652069732061206c696d6974206f6e206d696e74696e6720746f6f2060008201527f6d616e7920617420612074696d65210000000000000000000000000000000000602082015250565b7f4552433732313a20617070726f76616c20746f2063757272656e74206f776e6560008201527f7200000000000000000000000000000000000000000000000000000000000000602082015250565b7f4e6f7420656e6f7567682065746865722073656e742100000000000000000000600082015250565b7f4552433732313a207472616e736665722063616c6c6572206973206e6f74206f60008201527f776e6572206e6f7220617070726f766564000000000000000000000000000000602082015250565b7f455243373231456e756d657261626c653a20676c6f62616c20696e646578206f60008201527f7574206f6620626f756e64730000000000000000000000000000000000000000602082015250565b7f526f79616c747920746f74616c2076616c75652073686f756c64206265203c2060008201527f3130303030000000000000000000000000000000000000000000000000000000602082015250565b7f4d757374206d696e742061746c656173742031204e4654000000000000000000600082015250565b7f526563697069656e742073686f756c642062652070726573656e740000000000600082015250565b61545e81614b1b565b811461546957600080fd5b50565b61547581614b2d565b811461548057600080fd5b50565b61548c81614b3f565b811461549757600080fd5b50565b6154a381614b4b565b81146154ae57600080fd5b50565b6154ba81614b97565b81146154c557600080fd5b50565b6154d181614ba1565b81146154dc57600080fd5b5056fea2646970667358221220dfd2275cb4e6c169649341a42cfe0034eb8ca1475830f82d9d8cd7fe9b65d15d64736f6c63430008020033",
  "devdoc": {
    "kind": "dev",
    "methods": {
      "approve(address,uint256)": {
        "details": "See {IERC721-approve}."
      },
      "balanceOf(address)": {
        "details": "See {IERC721-balanceOf}."
      },
      "getApproved(uint256)": {
        "details": "See {IERC721-getApproved}."
      },
      "isApprovedForAll(address,address)": {
        "details": "See {IERC721-isApprovedForAll}."
      },
      "name()": {
        "details": "See {IERC721Metadata-name}."
      },
      "owner()": {
        "details": "Returns the address of the current owner."
      },
      "ownerOf(uint256)": {
        "details": "See {IERC721-ownerOf}."
      },
      "renounceOwnership()": {
        "details": "Leaves the contract without owner. It will not be possible to call `onlyOwner` functions anymore. Can only be called by the current owner. NOTE: Renouncing ownership will leave the contract without an owner, thereby removing any functionality that is only available to the owner."
      },
      "safeTransferFrom(address,address,uint256)": {
        "details": "See {IERC721-safeTransferFrom}."
      },
      "safeTransferFrom(address,address,uint256,bytes)": {
        "details": "See {IERC721-safeTransferFrom}."
      },
      "setApprovalForAll(address,bool)": {
        "details": "See {IERC721-setApprovalForAll}."
      },
      "supportsInterface(bytes4)": {
        "details": "See {IERC165-supportsInterface}."
      },
      "symbol()": {
        "details": "See {IERC721Metadata-symbol}."
      },
      "tokenByIndex(uint256)": {
        "details": "See {IERC721Enumerable-tokenByIndex}."
      },
      "tokenOfOwnerByIndex(address,uint256)": {
        "details": "See {IERC721Enumerable-tokenOfOwnerByIndex}."
      },
      "tokenURI(uint256)": {
        "details": "See {IERC721Metadata-tokenURI}."
      },
      "totalSupply()": {
        "details": "See {IERC721Enumerable-totalSupply}."
      },
      "transferFrom(address,address,uint256)": {
        "details": "See {IERC721-transferFrom}."
      },
      "transferOwnership(address)": {
        "details": "Transfers ownership of the contract to a new account (`newOwner`). Can only be called by the current owner."
      }
    },
    "version": 1
  },
  "userdoc": {
    "kind": "user",
    "methods": {},
    "version": 1
  },
  "storageLayout": {
    "storage": [
      {
        "astId": 129,
        "contract": "contracts/NFT.sol:NFT",
        "label": "_name",
        "offset": 0,
        "slot": "0",
        "type": "t_string_storage"
      },
      {
        "astId": 131,
        "contract": "contracts/NFT.sol:NFT",
        "label": "_symbol",
        "offset": 0,
        "slot": "1",
        "type": "t_string_storage"
      },
      {
        "astId": 135,
        "contract": "contracts/NFT.sol:NFT",
        "label": "_owners",
        "offset": 0,
        "slot": "2",
        "type": "t_mapping(t_uint256,t_address)"
      },
      {
        "astId": 139,
        "contract": "contracts/NFT.sol:NFT",
        "label": "_balances",
        "offset": 0,
        "slot": "3",
        "type": "t_mapping(t_address,t_uint256)"
      },
      {
        "astId": 143,
        "contract": "contracts/NFT.sol:NFT",
        "label": "_tokenApprovals",
        "offset": 0,
        "slot": "4",
        "type": "t_mapping(t_uint256,t_address)"
      },
      {
        "astId": 149,
        "contract": "contracts/NFT.sol:NFT",
        "label": "_operatorApprovals",
        "offset": 0,
        "slot": "5",
        "type": "t_mapping(t_address,t_mapping(t_address,t_bool))"
      },
      {
        "astId": 1068,
        "contract": "contracts/NFT.sol:NFT",
        "label": "_ownedTokens",
        "offset": 0,
        "slot": "6",
        "type": "t_mapping(t_address,t_mapping(t_uint256,t_uint256))"
      },
      {
        "astId": 1072,
        "contract": "contracts/NFT.sol:NFT",
        "label": "_ownedTokensIndex",
        "offset": 0,
        "slot": "7",
        "type": "t_mapping(t_uint256,t_uint256)"
      },
      {
        "astId": 1075,
        "contract": "contracts/NFT.sol:NFT",
        "label": "_allTokens",
        "offset": 0,
        "slot": "8",
        "type": "t_array(t_uint256)dyn_storage"
      },
      {
        "astId": 1079,
        "contract": "contracts/NFT.sol:NFT",
        "label": "_allTokensIndex",
        "offset": 0,
        "slot": "9",
        "type": "t_mapping(t_uint256,t_uint256)"
      },
      {
        "astId": 7,
        "contract": "contracts/NFT.sol:NFT",
        "label": "_owner",
        "offset": 0,
        "slot": "10",
        "type": "t_address"
      },
      {
        "astId": 2178,
        "contract": "contracts/NFT.sol:NFT",
        "label": "royalties",
        "offset": 0,
        "slot": "11",
        "type": "t_mapping(t_uint256,t_array(t_struct(Part)2036_storage)dyn_storage)"
      },
      {
        "astId": 2468,
        "contract": "contracts/NFT.sol:NFT",
        "label": "baseURI",
        "offset": 0,
        "slot": "12",
        "type": "t_string_storage"
      },
      {
        "astId": 2471,
        "contract": "contracts/NFT.sol:NFT",
        "label": "baseExtension",
        "offset": 0,
        "slot": "13",
        "type": "t_string_storage"
      },
      {
        "astId": 2474,
        "contract": "contracts/NFT.sol:NFT",
        "label": "cost",
        "offset": 0,
        "slot": "14",
        "type": "t_uint256"
      },
      {
        "astId": 2477,
        "contract": "contracts/NFT.sol:NFT",
        "label": "maxSupply",
        "offset": 0,
        "slot": "15",
        "type": "t_uint256"
      },
      {
        "astId": 2480,
        "contract": "contracts/NFT.sol:NFT",
        "label": "maxMintAmount",
        "offset": 0,
        "slot": "16",
        "type": "t_uint256"
      },
      {
        "astId": 2483,
        "contract": "contracts/NFT.sol:NFT",
        "label": "paused",
        "offset": 0,
        "slot": "17",
        "type": "t_bool"
      }
    ],
    "types": {
      "t_address": {
        "encoding": "inplace",
        "label": "address",
        "numberOfBytes": "20"
      },
      "t_address_payable": {
        "encoding": "inplace",
        "label": "address payable",
        "numberOfBytes": "20"
      },
      "t_array(t_struct(Part)2036_storage)dyn_storage": {
        "base": "t_struct(Part)2036_storage",
        "encoding": "dynamic_array",
        "label": "struct LibPart.Part[]",
        "numberOfBytes": "32"
      },
      "t_array(t_uint256)dyn_storage": {
        "base": "t_uint256",
        "encoding": "dynamic_array",
        "label": "uint256[]",
        "numberOfBytes": "32"
      },
      "t_bool": {
        "encoding": "inplace",
        "label": "bool",
        "numberOfBytes": "1"
      },
      "t_mapping(t_address,t_bool)": {
        "encoding": "mapping",
        "key": "t_address",
        "label": "mapping(address => bool)",
        "numberOfBytes": "32",
        "value": "t_bool"
      },
      "t_mapping(t_address,t_mapping(t_address,t_bool))": {
        "encoding": "mapping",
        "key": "t_address",
        "label": "mapping(address => mapping(address => bool))",
        "numberOfBytes": "32",
        "value": "t_mapping(t_address,t_bool)"
      },
      "t_mapping(t_address,t_mapping(t_uint256,t_uint256))": {
        "encoding": "mapping",
        "key": "t_address",
        "label": "mapping(address => mapping(uint256 => uint256))",
        "numberOfBytes": "32",
        "value": "t_mapping(t_uint256,t_uint256)"
      },
      "t_mapping(t_address,t_uint256)": {
        "encoding": "mapping",
        "key": "t_address",
        "label": "mapping(address => uint256)",
        "numberOfBytes": "32",
        "value": "t_uint256"
      },
      "t_mapping(t_uint256,t_address)": {
        "encoding": "mapping",
        "key": "t_uint256",
        "label": "mapping(uint256 => address)",
        "numberOfBytes": "32",
        "value": "t_address"
      },
      "t_mapping(t_uint256,t_array(t_struct(Part)2036_storage)dyn_storage)": {
        "encoding": "mapping",
        "key": "t_uint256",
        "label": "mapping(uint256 => struct LibPart.Part[])",
        "numberOfBytes": "32",
        "value": "t_array(t_struct(Part)2036_storage)dyn_storage"
      },
      "t_mapping(t_uint256,t_uint256)": {
        "encoding": "mapping",
        "key": "t_uint256",
        "label": "mapping(uint256 => uint256)",
        "numberOfBytes": "32",
        "value": "t_uint256"
      },
      "t_string_storage": {
        "encoding": "bytes",
        "label": "string",
        "numberOfBytes": "32"
      },
      "t_struct(Part)2036_storage": {
        "encoding": "inplace",
        "label": "struct LibPart.Part",
        "members": [
          {
            "astId": 2033,
            "contract": "contracts/NFT.sol:NFT",
            "label": "account",
            "offset": 0,
            "slot": "0",
            "type": "t_address_payable"
          },
          {
            "astId": 2035,
            "contract": "contracts/NFT.sol:NFT",
            "label": "value",
            "offset": 20,
            "slot": "0",
            "type": "t_uint96"
          }
        ],
        "numberOfBytes": "32"
      },
      "t_uint256": {
        "encoding": "inplace",
        "label": "uint256",
        "numberOfBytes": "32"
      },
      "t_uint96": {
        "encoding": "inplace",
        "label": "uint96",
        "numberOfBytes": "12"
      }
    }
  }
}