{
  "address": "0x00847b306Eb388Aa043A5C952F86458B466907FF",
  "abi": [
    {
      "inputs": [],
      "stateMutability": "nonpayable",
      "type": "constructor"
    },
    {
      "anonymous": false,
      "inputs": [
        {
          "indexed": true,
          "internalType": "address",
          "name": "owner",
          "type": "address"
        },
        {
          "indexed": true,
          "internalType": "address",
          "name": "approved",
          "type": "address"
        },
        {
          "indexed": true,
          "internalType": "uint256",
          "name": "tokenId",
          "type": "uint256"
        }
      ],
      "name": "Approval",
      "type": "event"
    },
    {
      "anonymous": false,
      "inputs": [
        {
          "indexed": true,
          "internalType": "address",
          "name": "owner",
          "type": "address"
        },
        {
          "indexed": true,
          "internalType": "address",
          "name": "operator",
          "type": "address"
        },
        {
          "indexed": false,
          "internalType": "bool",
          "name": "approved",
          "type": "bool"
        }
      ],
      "name": "ApprovalForAll",
      "type": "event"
    },
    {
      "anonymous": false,
      "inputs": [
        {
          "indexed": true,
          "internalType": "address",
          "name": "previousOwner",
          "type": "address"
        },
        {
          "indexed": true,
          "internalType": "address",
          "name": "newOwner",
          "type": "address"
        }
      ],
      "name": "OwnershipTransferred",
      "type": "event"
    },
    {
      "anonymous": false,
      "inputs": [
        {
          "indexed": true,
          "internalType": "address",
          "name": "from",
          "type": "address"
        },
        {
          "indexed": true,
          "internalType": "address",
          "name": "to",
          "type": "address"
        },
        {
          "indexed": true,
          "internalType": "uint256",
          "name": "tokenId",
          "type": "uint256"
        }
      ],
      "name": "Transfer",
      "type": "event"
    },
    {
      "inputs": [
        {
          "internalType": "address",
          "name": "to",
          "type": "address"
        },
        {
          "internalType": "uint256",
          "name": "tokenId",
          "type": "uint256"
        }
      ],
      "name": "approve",
      "outputs": [],
      "stateMutability": "nonpayable",
      "type": "function"
    },
    {
      "inputs": [
        {
          "internalType": "address",
          "name": "owner",
          "type": "address"
        }
      ],
      "name": "balanceOf",
      "outputs": [
        {
          "internalType": "uint256",
          "name": "",
          "type": "uint256"
        }
      ],
      "stateMutability": "view",
      "type": "function"
    },
    {
      "inputs": [],
      "name": "cost",
      "outputs": [
        {
          "internalType": "uint256",
          "name": "",
          "type": "uint256"
        }
      ],
      "stateMutability": "view",
      "type": "function"
    },
    {
      "inputs": [
        {
          "internalType": "uint256",
          "name": "tokenId",
          "type": "uint256"
        }
      ],
      "name": "getApproved",
      "outputs": [
        {
          "internalType": "address",
          "name": "",
          "type": "address"
        }
      ],
      "stateMutability": "view",
      "type": "function"
    },
    {
      "inputs": [],
      "name": "getCost",
      "outputs": [
        {
          "internalType": "uint256",
          "name": "",
          "type": "uint256"
        }
      ],
      "stateMutability": "view",
      "type": "function"
    },
    {
      "inputs": [],
      "name": "getMaxMintAmount",
      "outputs": [
        {
          "internalType": "uint256",
          "name": "",
          "type": "uint256"
        }
      ],
      "stateMutability": "view",
      "type": "function"
    },
    {
      "inputs": [],
      "name": "getMaxSupply",
      "outputs": [
        {
          "internalType": "uint256",
          "name": "",
          "type": "uint256"
        }
      ],
      "stateMutability": "view",
      "type": "function"
    },
    {
      "inputs": [],
      "name": "getUriPrefix",
      "outputs": [
        {
          "internalType": "string",
          "name": "",
          "type": "string"
        }
      ],
      "stateMutability": "view",
      "type": "function"
    },
    {
      "inputs": [],
      "name": "getUriSuffix",
      "outputs": [
        {
          "internalType": "string",
          "name": "",
          "type": "string"
        }
      ],
      "stateMutability": "view",
      "type": "function"
    },
    {
      "inputs": [
        {
          "internalType": "address",
          "name": "owner",
          "type": "address"
        },
        {
          "internalType": "address",
          "name": "operator",
          "type": "address"
        }
      ],
      "name": "isApprovedForAll",
      "outputs": [
        {
          "internalType": "bool",
          "name": "",
          "type": "bool"
        }
      ],
      "stateMutability": "view",
      "type": "function"
    },
    {
      "inputs": [],
      "name": "isPaused",
      "outputs": [
        {
          "internalType": "bool",
          "name": "",
          "type": "bool"
        }
      ],
      "stateMutability": "view",
      "type": "function"
    },
    {
      "inputs": [],
      "name": "maxMintAmount",
      "outputs": [
        {
          "internalType": "uint256",
          "name": "",
          "type": "uint256"
        }
      ],
      "stateMutability": "view",
      "type": "function"
    },
    {
      "inputs": [],
      "name": "maxSupply",
      "outputs": [
        {
          "internalType": "uint256",
          "name": "",
          "type": "uint256"
        }
      ],
      "stateMutability": "view",
      "type": "function"
    },
    {
      "inputs": [],
      "name": "merkleRoot",
      "outputs": [
        {
          "internalType": "bytes32",
          "name": "",
          "type": "bytes32"
        }
      ],
      "stateMutability": "view",
      "type": "function"
    },
    {
      "inputs": [
        {
          "internalType": "uint256",
          "name": "_mintAmount",
          "type": "uint256"
        }
      ],
      "name": "mint",
      "outputs": [],
      "stateMutability": "payable",
      "type": "function"
    },
    {
      "inputs": [],
      "name": "name",
      "outputs": [
        {
          "internalType": "string",
          "name": "",
          "type": "string"
        }
      ],
      "stateMutability": "view",
      "type": "function"
    },
    {
      "inputs": [],
      "name": "owner",
      "outputs": [
        {
          "internalType": "address",
          "name": "",
          "type": "address"
        }
      ],
      "stateMutability": "view",
      "type": "function"
    },
    {
      "inputs": [
        {
          "internalType": "uint256",
          "name": "tokenId",
          "type": "uint256"
        }
      ],
      "name": "ownerOf",
      "outputs": [
        {
          "internalType": "address",
          "name": "",
          "type": "address"
        }
      ],
      "stateMutability": "view",
      "type": "function"
    },
    {
      "inputs": [],
      "name": "paused",
      "outputs": [
        {
          "internalType": "bool",
          "name": "",
          "type": "bool"
        }
      ],
      "stateMutability": "view",
      "type": "function"
    },
    {
      "inputs": [],
      "name": "renounceOwnership",
      "outputs": [],
      "stateMutability": "nonpayable",
      "type": "function"
    },
    {
      "inputs": [
        {
          "internalType": "address",
          "name": "from",
          "type": "address"
        },
        {
          "internalType": "address",
          "name": "to",
          "type": "address"
        },
        {
          "internalType": "uint256",
          "name": "tokenId",
          "type": "uint256"
        }
      ],
      "name": "safeTransferFrom",
      "outputs": [],
      "stateMutability": "nonpayable",
      "type": "function"
    },
    {
      "inputs": [
        {
          "internalType": "address",
          "name": "from",
          "type": "address"
        },
        {
          "internalType": "address",
          "name": "to",
          "type": "address"
        },
        {
          "internalType": "uint256",
          "name": "tokenId",
          "type": "uint256"
        },
        {
          "internalType": "bytes",
          "name": "_data",
          "type": "bytes"
        }
      ],
      "name": "safeTransferFrom",
      "outputs": [],
      "stateMutability": "nonpayable",
      "type": "function"
    },
    {
      "inputs": [
        {
          "internalType": "address",
          "name": "operator",
          "type": "address"
        },
        {
          "internalType": "bool",
          "name": "approved",
          "type": "bool"
        }
      ],
      "name": "setApprovalForAll",
      "outputs": [],
      "stateMutability": "nonpayable",
      "type": "function"
    },
    {
      "inputs": [
        {
          "internalType": "uint256",
          "name": "_newCost",
          "type": "uint256"
        }
      ],
      "name": "setCost",
      "outputs": [],
      "stateMutability": "nonpayable",
      "type": "function"
    },
    {
      "inputs": [
        {
          "internalType": "bool",
          "name": "_state",
          "type": "bool"
        }
      ],
      "name": "setPause",
      "outputs": [],
      "stateMutability": "nonpayable",
      "type": "function"
    },
    {
      "inputs": [
        {
          "internalType": "string",
          "name": "_uriPrefix",
          "type": "string"
        }
      ],
      "name": "setUriPrefix",
      "outputs": [],
      "stateMutability": "nonpayable",
      "type": "function"
    },
    {
      "inputs": [
        {
          "internalType": "string",
          "name": "_uriSuffix",
          "type": "string"
        }
      ],
      "name": "setUriSuffix",
      "outputs": [],
      "stateMutability": "nonpayable",
      "type": "function"
    },
    {
      "inputs": [
        {
          "internalType": "uint256",
          "name": "_newmaxMintAmount",
          "type": "uint256"
        }
      ],
      "name": "setmaxMintAmount",
      "outputs": [],
      "stateMutability": "nonpayable",
      "type": "function"
    },
    {
      "inputs": [
        {
          "internalType": "bytes4",
          "name": "interfaceId",
          "type": "bytes4"
        }
      ],
      "name": "supportsInterface",
      "outputs": [
        {
          "internalType": "bool",
          "name": "",
          "type": "bool"
        }
      ],
      "stateMutability": "view",
      "type": "function"
    },
    {
      "inputs": [],
      "name": "symbol",
      "outputs": [
        {
          "internalType": "string",
          "name": "",
          "type": "string"
        }
      ],
      "stateMutability": "view",
      "type": "function"
    },
    {
      "inputs": [
        {
          "internalType": "uint256",
          "name": "_tokenId",
          "type": "uint256"
        }
      ],
      "name": "tokenURI",
      "outputs": [
        {
          "internalType": "string",
          "name": "",
          "type": "string"
        }
      ],
      "stateMutability": "view",
      "type": "function"
    },
    {
      "inputs": [],
      "name": "totalSupply",
      "outputs": [
        {
          "internalType": "uint256",
          "name": "",
          "type": "uint256"
        }
      ],
      "stateMutability": "view",
      "type": "function"
    },
    {
      "inputs": [
        {
          "internalType": "address",
          "name": "from",
          "type": "address"
        },
        {
          "internalType": "address",
          "name": "to",
          "type": "address"
        },
        {
          "internalType": "uint256",
          "name": "tokenId",
          "type": "uint256"
        }
      ],
      "name": "transferFrom",
      "outputs": [],
      "stateMutability": "nonpayable",
      "type": "function"
    },
    {
      "inputs": [
        {
          "internalType": "address",
          "name": "newOwner",
          "type": "address"
        }
      ],
      "name": "transferOwnership",
      "outputs": [],
      "stateMutability": "nonpayable",
      "type": "function"
    },
    {
      "inputs": [],
      "name": "uriPrefix",
      "outputs": [
        {
          "internalType": "string",
          "name": "",
          "type": "string"
        }
      ],
      "stateMutability": "view",
      "type": "function"
    },
    {
      "inputs": [],
      "name": "uriSuffix",
      "outputs": [
        {
          "internalType": "string",
          "name": "",
          "type": "string"
        }
      ],
      "stateMutability": "view",
      "type": "function"
    },
    {
      "inputs": [
        {
          "internalType": "address",
          "name": "_owner",
          "type": "address"
        }
      ],
      "name": "walletOfOwner",
      "outputs": [
        {
          "internalType": "uint256[]",
          "name": "",
          "type": "uint256[]"
        }
      ],
      "stateMutability": "view",
      "type": "function"
    },
    {
      "inputs": [
        {
          "internalType": "bytes32[]",
          "name": "_merkleProof",
          "type": "bytes32[]"
        },
        {
          "internalType": "uint256",
          "name": "_mintAmount",
          "type": "uint256"
        }
      ],
      "name": "whiteListMint",
      "outputs": [],
      "stateMutability": "payable",
      "type": "function"
    },
    {
      "inputs": [
        {
          "internalType": "address",
          "name": "",
          "type": "address"
        }
      ],
      "name": "whitelistClaimed",
      "outputs": [
        {
          "internalType": "bool",
          "name": "",
          "type": "bool"
        }
      ],
      "stateMutability": "view",
      "type": "function"
    },
    {
      "inputs": [],
      "name": "withdraw",
      "outputs": [],
      "stateMutability": "nonpayable",
      "type": "function"
    },
    {
      "inputs": [
        {
          "internalType": "uint256",
          "name": "_mintAmount",
          "type": "uint256"
        },
        {
          "internalType": "address",
          "name": "_reciever",
          "type": "address"
        }
      ],
      "name": "zeroCostMint",
      "outputs": [],
      "stateMutability": "nonpayable",
      "type": "function"
    }
  ],
  "transactionHash": "0xc33e10c255fc52cab55ced3f8619e245e16d5792da8b65862d2cfad468f14367",
  "args": [],
  "solcInputHash": "389596e89f62d8f73a10f54a2b8f43e3",
  "bytecode": "0x608060405260405180602001604052806000815250600890805190602001906200002b92919062000372565b506040518060400160405280600581526020017f2e6a736f6e000000000000000000000000000000000000000000000000000000815250600990805190602001906200007992919062000372565b5066470de4df820000600a556064600b55600f600c556000600d60006101000a81548160ff0219169083151502179055507f343750465941b29921f50a28e0e43050e5e1c2611a3ea8d7fe1001090d5e143660001b600e55348015620000de57600080fd5b506040518060400160405280600681526020017f4e464633335400000000000000000000000000000000000000000000000000008152506040518060400160405280600481526020017f463333540000000000000000000000000000000000000000000000000000000081525081600090805190602001906200016392919062000372565b5080600190805190602001906200017c92919062000372565b5050506200019f62000193620001cf60201b60201c565b620001d760201b60201c565b620001c960405180606001604052806036815260200162004b9f603691396200029d60201b60201c565b620004fc565b600033905090565b6000600660009054906101000a900473ffffffffffffffffffffffffffffffffffffffff16905081600660006101000a81548173ffffffffffffffffffffffffffffffffffffffff021916908373ffffffffffffffffffffffffffffffffffffffff1602179055508173ffffffffffffffffffffffffffffffffffffffff168173ffffffffffffffffffffffffffffffffffffffff167f8be0079c531659141344cd1fd0a4f28419497f9722a3daafe3b4186f6b6457e060405160405180910390a35050565b620002ad620001cf60201b60201c565b73ffffffffffffffffffffffffffffffffffffffff16620002d36200034860201b60201c565b73ffffffffffffffffffffffffffffffffffffffff16146200032c576040517f08c379a0000000000000000000000000000000000000000000000000000000008152600401620003239062000464565b60405180910390fd5b80600890805190602001906200034492919062000372565b5050565b6000600660009054906101000a900473ffffffffffffffffffffffffffffffffffffffff16905090565b828054620003809062000497565b90600052602060002090601f016020900481019282620003a45760008555620003f0565b82601f10620003bf57805160ff1916838001178555620003f0565b82800160010185558215620003f0579182015b82811115620003ef578251825591602001919060010190620003d2565b5b509050620003ff919062000403565b5090565b5b808211156200041e57600081600090555060010162000404565b5090565b60006200043160208362000486565b91507f4f776e61626c653a2063616c6c6572206973206e6f7420746865206f776e65726000830152602082019050919050565b600060208201905081810360008301526200047f8162000422565b9050919050565b600082825260208201905092915050565b60006002820490506001821680620004b057607f821691505b60208210811415620004c757620004c6620004cd565b5b50919050565b7f4e487b7100000000000000000000000000000000000000000000000000000000600052602260045260246000fd5b614693806200050c6000396000f3fe6080604052600436106102465760003560e01c806370a0823111610139578063b88d4fde116100b6578063d1d647941161007a578063d1d647941461083c578063d5abeb0114610867578063d6e7b8e414610892578063db4bec44146108bd578063e985e9c5146108fa578063f2fde38b1461093757610246565b8063b88d4fde14610766578063bd3e19d41461078f578063bedb86fb146107ba578063c30bf318146107e3578063c87b56dd146107ff57610246565b806395d89b41116100fd57806395d89b41146106a0578063a0712d68146106cb578063a22cb465146106e7578063ae7c5f7614610710578063b187bd261461073b57610246565b806370a08231146105cf578063715018a61461060c5780637ec4a659146106235780637f00c7a61461064c5780638da5cb5b1461067557610246565b80632eb4a7ab116101c75780634c0f38c21161018b5780634c0f38c2146104e65780635503a0e8146105115780635c975abb1461053c57806362b99ad4146105675780636352211e1461059257610246565b80632eb4a7ab146104155780633ccfd60b1461044057806342842e0e14610457578063438b63001461048057806344a0d68a146104bd57610246565b806316ba10e01161020e57806316ba10e01461034457806318160ddd1461036d57806322f6451a14610398578063239c70ae146103c157806323b872dd146103ec57610246565b806301ffc9a71461024b57806306fdde0314610288578063081812fc146102b3578063095ea7b3146102f057806313faede614610319575b600080fd5b34801561025757600080fd5b50610272600480360381019061026d9190613271565b610960565b60405161027f9190613e03565b60405180910390f35b34801561029457600080fd5b5061029d610a42565b6040516102aa9190613e39565b60405180910390f35b3480156102bf57600080fd5b506102da60048036038101906102d59190613304565b610ad4565b6040516102e79190613d7a565b60405180910390f35b3480156102fc57600080fd5b50610317600480360381019061031291906131b4565b610b59565b005b34801561032557600080fd5b5061032e610c71565b60405161033b919061413b565b60405180910390f35b34801561035057600080fd5b5061036b600480360381019061036691906132c3565b610c77565b005b34801561037957600080fd5b50610382610d0d565b60405161038f919061413b565b60405180910390f35b3480156103a457600080fd5b506103bf60048036038101906103ba919061332d565b610d1e565b005b3480156103cd57600080fd5b506103d6610e54565b6040516103e3919061413b565b60405180910390f35b3480156103f857600080fd5b50610413600480360381019061040e91906130ae565b610e5a565b005b34801561042157600080fd5b5061042a610eba565b6040516104379190613e1e565b60405180910390f35b34801561044c57600080fd5b50610455610ec0565b005b34801561046357600080fd5b5061047e600480360381019061047991906130ae565b610f92565b005b34801561048c57600080fd5b506104a760048036038101906104a29190613049565b610fb2565b6040516104b49190613de1565b60405180910390f35b3480156104c957600080fd5b506104e460048036038101906104df9190613304565b611109565b005b3480156104f257600080fd5b506104fb61118f565b604051610508919061413b565b60405180910390f35b34801561051d57600080fd5b50610526611199565b6040516105339190613e39565b60405180910390f35b34801561054857600080fd5b50610551611227565b60405161055e9190613e03565b60405180910390f35b34801561057357600080fd5b5061057c61123a565b6040516105899190613e39565b60405180910390f35b34801561059e57600080fd5b506105b960048036038101906105b49190613304565b6112c8565b6040516105c69190613d7a565b60405180910390f35b3480156105db57600080fd5b506105f660048036038101906105f19190613049565b61137a565b604051610603919061413b565b60405180910390f35b34801561061857600080fd5b50610621611432565b005b34801561062f57600080fd5b5061064a600480360381019061064591906132c3565b6114ba565b005b34801561065857600080fd5b50610673600480360381019061066e9190613304565b611550565b005b34801561068157600080fd5b5061068a6115d6565b6040516106979190613d7a565b60405180910390f35b3480156106ac57600080fd5b506106b5611600565b6040516106c29190613e39565b60405180910390f35b6106e560048036038101906106e09190613304565b611692565b005b3480156106f357600080fd5b5061070e60048036038101906107099190613178565b6117eb565b005b34801561071c57600080fd5b5061072561196c565b6040516107329190613e39565b60405180910390f35b34801561074757600080fd5b506107506119fe565b60405161075d9190613e03565b60405180910390f35b34801561077257600080fd5b5061078d600480360381019061078891906130fd565b611a15565b005b34801561079b57600080fd5b506107a4611a77565b6040516107b1919061413b565b60405180910390f35b3480156107c657600080fd5b506107e160048036038101906107dc9190613248565b611a81565b005b6107fd60048036038101906107f891906131f0565b611b1a565b005b34801561080b57600080fd5b5061082660048036038101906108219190613304565b611dc3565b6040516108339190613e39565b60405180910390f35b34801561084857600080fd5b50610851611e6d565b60405161085e9190613e39565b60405180910390f35b34801561087357600080fd5b5061087c611eff565b604051610889919061413b565b60405180910390f35b34801561089e57600080fd5b506108a7611f05565b6040516108b4919061413b565b60405180910390f35b3480156108c957600080fd5b506108e460048036038101906108df9190613049565b611f0f565b6040516108f19190613e03565b60405180910390f35b34801561090657600080fd5b50610921600480360381019061091c9190613072565b611f2f565b60405161092e9190613e03565b60405180910390f35b34801561094357600080fd5b5061095e60048036038101906109599190613049565b611fc3565b005b60007f80ac58cd000000000000000000000000000000000000000000000000000000007bffffffffffffffffffffffffffffffffffffffffffffffffffffffff1916827bffffffffffffffffffffffffffffffffffffffffffffffffffffffff19161480610a2b57507f5b5e139f000000000000000000000000000000000000000000000000000000007bffffffffffffffffffffffffffffffffffffffffffffffffffffffff1916827bffffffffffffffffffffffffffffffffffffffffffffffffffffffff1916145b80610a3b5750610a3a826120bb565b5b9050919050565b606060008054610a519061444d565b80601f0160208091040260200160405190810160405280929190818152602001828054610a7d9061444d565b8015610aca5780601f10610a9f57610100808354040283529160200191610aca565b820191906000526020600020905b815481529060010190602001808311610aad57829003601f168201915b5050505050905090565b6000610adf82612125565b610b1e576040517f08c379a0000000000000000000000000000000000000000000000000000000008152600401610b1590613ffb565b60405180910390fd5b6004600083815260200190815260200160002060009054906101000a900473ffffffffffffffffffffffffffffffffffffffff169050919050565b6000610b64826112c8565b90508073ffffffffffffffffffffffffffffffffffffffff168373ffffffffffffffffffffffffffffffffffffffff161415610bd5576040517f08c379a0000000000000000000000000000000000000000000000000000000008152600401610bcc906140bb565b60405180910390fd5b8073ffffffffffffffffffffffffffffffffffffffff16610bf4612191565b73ffffffffffffffffffffffffffffffffffffffff161480610c235750610c2281610c1d612191565b611f2f565b5b610c62576040517f08c379a0000000000000000000000000000000000000000000000000000000008152600401610c5990613f5b565b60405180910390fd5b610c6c8383612199565b505050565b600a5481565b610c7f612191565b73ffffffffffffffffffffffffffffffffffffffff16610c9d6115d6565b73ffffffffffffffffffffffffffffffffffffffff1614610cf3576040517f08c379a0000000000000000000000000000000000000000000000000000000008152600401610cea9061403b565b60405180910390fd5b8060099080519060200190610d09929190612e23565b5050565b6000610d196007612252565b905090565b81600081118015610d315750600c548111155b610d70576040517f08c379a0000000000000000000000000000000000000000000000000000000008152600401610d679061401b565b60405180910390fd5b600b5481610d7e6007612252565b610d889190614278565b1115610dc9576040517f08c379a0000000000000000000000000000000000000000000000000000000008152600401610dc09061411b565b60405180910390fd5b610dd1612191565b73ffffffffffffffffffffffffffffffffffffffff16610def6115d6565b73ffffffffffffffffffffffffffffffffffffffff1614610e45576040517f08c379a0000000000000000000000000000000000000000000000000000000008152600401610e3c9061403b565b60405180910390fd5b610e4f8284612260565b505050565b600c5481565b610e6b610e65612191565b826122a0565b610eaa576040517f08c379a0000000000000000000000000000000000000000000000000000000008152600401610ea1906140db565b60405180910390fd5b610eb583838361237e565b505050565b600e5481565b610ec8612191565b73ffffffffffffffffffffffffffffffffffffffff16610ee66115d6565b73ffffffffffffffffffffffffffffffffffffffff1614610f3c576040517f08c379a0000000000000000000000000000000000000000000000000000000008152600401610f339061403b565b60405180910390fd5b6000610f466115d6565b90508073ffffffffffffffffffffffffffffffffffffffff166108fc479081150290604051600060405180830381858888f19350505050158015610f8e573d6000803e3d6000fd5b5050565b610fad83838360405180602001604052806000815250611a15565b505050565b60606000610fbf8361137a565b905060008167ffffffffffffffff811115611003577f4e487b7100000000000000000000000000000000000000000000000000000000600052604160045260246000fd5b6040519080825280602002602001820160405280156110315781602001602082028036833780820191505090505b50905060006001905060005b838110801561104e5750600b548211155b156110fd57600061105e836112c8565b90508673ffffffffffffffffffffffffffffffffffffffff168173ffffffffffffffffffffffffffffffffffffffff1614156110e957828483815181106110ce577f4e487b7100000000000000000000000000000000000000000000000000000000600052603260045260246000fd5b60200260200101818152505081806110e59061447f565b9250505b82806110f49061447f565b9350505061103d565b82945050505050919050565b611111612191565b73ffffffffffffffffffffffffffffffffffffffff1661112f6115d6565b73ffffffffffffffffffffffffffffffffffffffff1614611185576040517f08c379a000000000000000000000000000000000000000000000000000000000815260040161117c9061403b565b60405180910390fd5b80600a8190555050565b6000600b54905090565b600980546111a69061444d565b80601f01602080910402602001604051908101604052809291908181526020018280546111d29061444d565b801561121f5780601f106111f45761010080835404028352916020019161121f565b820191906000526020600020905b81548152906001019060200180831161120257829003601f168201915b505050505081565b600d60009054906101000a900460ff1681565b600880546112479061444d565b80601f01602080910402602001604051908101604052809291908181526020018280546112739061444d565b80156112c05780601f10611295576101008083540402835291602001916112c0565b820191906000526020600020905b8154815290600101906020018083116112a357829003601f168201915b505050505081565b6000806002600084815260200190815260200160002060009054906101000a900473ffffffffffffffffffffffffffffffffffffffff169050600073ffffffffffffffffffffffffffffffffffffffff168173ffffffffffffffffffffffffffffffffffffffff161415611371576040517f08c379a000000000000000000000000000000000000000000000000000000000815260040161136890613f9b565b60405180910390fd5b80915050919050565b60008073ffffffffffffffffffffffffffffffffffffffff168273ffffffffffffffffffffffffffffffffffffffff1614156113eb576040517f08c379a00000000000000000000000000000000000000000000000000000000081526004016113e290613f7b565b60405180910390fd5b600360008373ffffffffffffffffffffffffffffffffffffffff1673ffffffffffffffffffffffffffffffffffffffff168152602001908152602001600020549050919050565b61143a612191565b73ffffffffffffffffffffffffffffffffffffffff166114586115d6565b73ffffffffffffffffffffffffffffffffffffffff16146114ae576040517f08c379a00000000000000000000000000000000000000000000000000000000081526004016114a59061403b565b60405180910390fd5b6114b860006125da565b565b6114c2612191565b73ffffffffffffffffffffffffffffffffffffffff166114e06115d6565b73ffffffffffffffffffffffffffffffffffffffff1614611536576040517f08c379a000000000000000000000000000000000000000000000000000000000815260040161152d9061403b565b60405180910390fd5b806008908051906020019061154c929190612e23565b5050565b611558612191565b73ffffffffffffffffffffffffffffffffffffffff166115766115d6565b73ffffffffffffffffffffffffffffffffffffffff16146115cc576040517f08c379a00000000000000000000000000000000000000000000000000000000081526004016115c39061403b565b60405180910390fd5b80600c8190555050565b6000600660009054906101000a900473ffffffffffffffffffffffffffffffffffffffff16905090565b60606001805461160f9061444d565b80601f016020809104026020016040519081016040528092919081815260200182805461163b9061444d565b80156116885780601f1061165d57610100808354040283529160200191611688565b820191906000526020600020905b81548152906001019060200180831161166b57829003601f168201915b5050505050905090565b806000811180156116a55750600c548111155b6116e4576040517f08c379a00000000000000000000000000000000000000000000000000000000081526004016116db9061401b565b60405180910390fd5b600b54816116f26007612252565b6116fc9190614278565b111561173d576040517f08c379a00000000000000000000000000000000000000000000000000000000081526004016117349061411b565b60405180910390fd5b600d60009054906101000a900460ff161561178d576040517f08c379a000000000000000000000000000000000000000000000000000000000815260040161178490613fdb565b60405180910390fd5b81600a5461179b91906142ff565b3410156117dd576040517f08c379a00000000000000000000000000000000000000000000000000000000081526004016117d4906140fb565b60405180910390fd5b6117e73383612260565b5050565b6117f3612191565b73ffffffffffffffffffffffffffffffffffffffff168273ffffffffffffffffffffffffffffffffffffffff161415611861576040517f08c379a000000000000000000000000000000000000000000000000000000000815260040161185890613efb565b60405180910390fd5b806005600061186e612191565b73ffffffffffffffffffffffffffffffffffffffff1673ffffffffffffffffffffffffffffffffffffffff16815260200190815260200160002060008473ffffffffffffffffffffffffffffffffffffffff1673ffffffffffffffffffffffffffffffffffffffff16815260200190815260200160002060006101000a81548160ff0219169083151502179055508173ffffffffffffffffffffffffffffffffffffffff1661191b612191565b73ffffffffffffffffffffffffffffffffffffffff167f17307eab39ab6107e8899845ad3d59bd9653f200f220920489ca2b5937696c31836040516119609190613e03565b60405180910390a35050565b60606008805461197b9061444d565b80601f01602080910402602001604051908101604052809291908181526020018280546119a79061444d565b80156119f45780601f106119c9576101008083540402835291602001916119f4565b820191906000526020600020905b8154815290600101906020018083116119d757829003601f168201915b5050505050905090565b6000600d60009054906101000a900460ff16905090565b611a26611a20612191565b836122a0565b611a65576040517f08c379a0000000000000000000000000000000000000000000000000000000008152600401611a5c906140db565b60405180910390fd5b611a71848484846126a0565b50505050565b6000600a54905090565b611a89612191565b73ffffffffffffffffffffffffffffffffffffffff16611aa76115d6565b73ffffffffffffffffffffffffffffffffffffffff1614611afd576040517f08c379a0000000000000000000000000000000000000000000000000000000008152600401611af49061403b565b60405180910390fd5b80600d60006101000a81548160ff02191690831515021790555050565b80600081118015611b2d5750600c548111155b611b6c576040517f08c379a0000000000000000000000000000000000000000000000000000000008152600401611b639061401b565b60405180910390fd5b600b5481611b7a6007612252565b611b849190614278565b1115611bc5576040517f08c379a0000000000000000000000000000000000000000000000000000000008152600401611bbc9061411b565b60405180910390fd5b600d60009054906101000a900460ff1615611c15576040517f08c379a0000000000000000000000000000000000000000000000000000000008152600401611c0c90613e7b565b60405180910390fd5b600f60003373ffffffffffffffffffffffffffffffffffffffff1673ffffffffffffffffffffffffffffffffffffffff16815260200190815260200160002060009054906101000a900460ff1615611ca2576040517f08c379a0000000000000000000000000000000000000000000000000000000008152600401611c999061405b565b60405180910390fd5b600033604051602001611cb59190613d02565b604051602081830303815290604052805190602001209050611d1b858580806020026020016040519081016040528093929190818152602001838360200280828437600081840152601f19601f82011690508083019250505050505050600e54836126fc565b611d5a576040517f08c379a0000000000000000000000000000000000000000000000000000000008152600401611d5190613f3b565b60405180910390fd5b6001600f60003373ffffffffffffffffffffffffffffffffffffffff1673ffffffffffffffffffffffffffffffffffffffff16815260200190815260200160002060006101000a81548160ff021916908315150217905550611dbc3384612260565b5050505050565b6060611dce82612125565b611e0d576040517f08c379a0000000000000000000000000000000000000000000000000000000008152600401611e049061409b565b60405180910390fd5b6000611e176127d8565b90506000815111611e375760405180602001604052806000815250611e65565b80611e418461286a565b6009604051602001611e5593929190613d49565b6040516020818303038152906040525b915050919050565b606060098054611e7c9061444d565b80601f0160208091040260200160405190810160405280929190818152602001828054611ea89061444d565b8015611ef55780601f10611eca57610100808354040283529160200191611ef5565b820191906000526020600020905b815481529060010190602001808311611ed857829003601f168201915b5050505050905090565b600b5481565b6000600c54905090565b600f6020528060005260406000206000915054906101000a900460ff1681565b6000600560008473ffffffffffffffffffffffffffffffffffffffff1673ffffffffffffffffffffffffffffffffffffffff16815260200190815260200160002060008373ffffffffffffffffffffffffffffffffffffffff1673ffffffffffffffffffffffffffffffffffffffff16815260200190815260200160002060009054906101000a900460ff16905092915050565b611fcb612191565b73ffffffffffffffffffffffffffffffffffffffff16611fe96115d6565b73ffffffffffffffffffffffffffffffffffffffff161461203f576040517f08c379a00000000000000000000000000000000000000000000000000000000081526004016120369061403b565b60405180910390fd5b600073ffffffffffffffffffffffffffffffffffffffff168173ffffffffffffffffffffffffffffffffffffffff1614156120af576040517f08c379a00000000000000000000000000000000000000000000000000000000081526004016120a690613e9b565b60405180910390fd5b6120b8816125da565b50565b60007f01ffc9a7000000000000000000000000000000000000000000000000000000007bffffffffffffffffffffffffffffffffffffffffffffffffffffffff1916827bffffffffffffffffffffffffffffffffffffffffffffffffffffffff1916149050919050565b60008073ffffffffffffffffffffffffffffffffffffffff166002600084815260200190815260200160002060009054906101000a900473ffffffffffffffffffffffffffffffffffffffff1673ffffffffffffffffffffffffffffffffffffffff1614159050919050565b600033905090565b816004600083815260200190815260200160002060006101000a81548173ffffffffffffffffffffffffffffffffffffffff021916908373ffffffffffffffffffffffffffffffffffffffff160217905550808273ffffffffffffffffffffffffffffffffffffffff1661220c836112c8565b73ffffffffffffffffffffffffffffffffffffffff167f8c5be1e5ebec7d5bd14f71427d1e84f3dd0314c0f7b2291e5b200ac8c7c3b92560405160405180910390a45050565b600081600001549050919050565b60005b8181101561229b576122756007612a17565b612288836122836007612252565b612a2d565b80806122939061447f565b915050612263565b505050565b60006122ab82612125565b6122ea576040517f08c379a00000000000000000000000000000000000000000000000000000000081526004016122e190613f1b565b60405180910390fd5b60006122f5836112c8565b90508073ffffffffffffffffffffffffffffffffffffffff168473ffffffffffffffffffffffffffffffffffffffff16148061236457508373ffffffffffffffffffffffffffffffffffffffff1661234c84610ad4565b73ffffffffffffffffffffffffffffffffffffffff16145b8061237557506123748185611f2f565b5b91505092915050565b8273ffffffffffffffffffffffffffffffffffffffff1661239e826112c8565b73ffffffffffffffffffffffffffffffffffffffff16146123f4576040517f08c379a00000000000000000000000000000000000000000000000000000000081526004016123eb9061407b565b60405180910390fd5b600073ffffffffffffffffffffffffffffffffffffffff168273ffffffffffffffffffffffffffffffffffffffff161415612464576040517f08c379a000000000000000000000000000000000000000000000000000000000815260040161245b90613edb565b60405180910390fd5b61246f838383612a4b565b61247a600082612199565b6001600360008573ffffffffffffffffffffffffffffffffffffffff1673ffffffffffffffffffffffffffffffffffffffff16815260200190815260200160002060008282546124ca9190614359565b925050819055506001600360008473ffffffffffffffffffffffffffffffffffffffff1673ffffffffffffffffffffffffffffffffffffffff16815260200190815260200160002060008282546125219190614278565b92505081905550816002600083815260200190815260200160002060006101000a81548173ffffffffffffffffffffffffffffffffffffffff021916908373ffffffffffffffffffffffffffffffffffffffff160217905550808273ffffffffffffffffffffffffffffffffffffffff168473ffffffffffffffffffffffffffffffffffffffff167fddf252ad1be2c89b69c2b068fc378daa952ba7f163c4a11628f55a4df523b3ef60405160405180910390a4505050565b6000600660009054906101000a900473ffffffffffffffffffffffffffffffffffffffff16905081600660006101000a81548173ffffffffffffffffffffffffffffffffffffffff021916908373ffffffffffffffffffffffffffffffffffffffff1602179055508173ffffffffffffffffffffffffffffffffffffffff168173ffffffffffffffffffffffffffffffffffffffff167f8be0079c531659141344cd1fd0a4f28419497f9722a3daafe3b4186f6b6457e060405160405180910390a35050565b6126ab84848461237e565b6126b784848484612a50565b6126f6576040517f08c379a00000000000000000000000000000000000000000000000000000000081526004016126ed90613e5b565b60405180910390fd5b50505050565b60008082905060005b85518110156127ca576000868281518110612749577f4e487b7100000000000000000000000000000000000000000000000000000000600052603260045260246000fd5b6020026020010151905080831161278a57828160405160200161276d929190613d1d565b6040516020818303038152906040528051906020012092506127b6565b808360405160200161279d929190613d1d565b6040516020818303038152906040528051906020012092505b5080806127c29061447f565b915050612705565b508381149150509392505050565b6060600880546127e79061444d565b80601f01602080910402602001604051908101604052809291908181526020018280546128139061444d565b80156128605780601f1061283557610100808354040283529160200191612860565b820191906000526020600020905b81548152906001019060200180831161284357829003601f168201915b5050505050905090565b606060008214156128b2576040518060400160405280600181526020017f30000000000000000000000000000000000000000000000000000000000000008152509050612a12565b600082905060005b600082146128e45780806128cd9061447f565b915050600a826128dd91906142ce565b91506128ba565b60008167ffffffffffffffff811115612926577f4e487b7100000000000000000000000000000000000000000000000000000000600052604160045260246000fd5b6040519080825280601f01601f1916602001820160405280156129585781602001600182028036833780820191505090505b5090505b60008514612a0b576001826129719190614359565b9150600a8561298091906144f6565b603061298c9190614278565b60f81b8183815181106129c8577f4e487b7100000000000000000000000000000000000000000000000000000000600052603260045260246000fd5b60200101907effffffffffffffffffffffffffffffffffffffffffffffffffffffffffffff1916908160001a905350600a85612a0491906142ce565b945061295c565b8093505050505b919050565b6001816000016000828254019250508190555050565b612a47828260405180602001604052806000815250612be7565b5050565b505050565b6000612a718473ffffffffffffffffffffffffffffffffffffffff16612c42565b15612bda578373ffffffffffffffffffffffffffffffffffffffff1663150b7a02612a9a612191565b8786866040518563ffffffff1660e01b8152600401612abc9493929190613d95565b602060405180830381600087803b158015612ad657600080fd5b505af1925050508015612b0757506040513d601f19601f82011682018060405250810190612b04919061329a565b60015b612b8a573d8060008114612b37576040519150601f19603f3d011682016040523d82523d6000602084013e612b3c565b606091505b50600081511415612b82576040517f08c379a0000000000000000000000000000000000000000000000000000000008152600401612b7990613e5b565b60405180910390fd5b805181602001fd5b63150b7a0260e01b7bffffffffffffffffffffffffffffffffffffffffffffffffffffffff1916817bffffffffffffffffffffffffffffffffffffffffffffffffffffffff191614915050612bdf565b600190505b949350505050565b612bf18383612c55565b612bfe6000848484612a50565b612c3d576040517f08c379a0000000000000000000000000000000000000000000000000000000008152600401612c3490613e5b565b60405180910390fd5b505050565b600080823b905060008111915050919050565b600073ffffffffffffffffffffffffffffffffffffffff168273ffffffffffffffffffffffffffffffffffffffff161415612cc5576040517f08c379a0000000000000000000000000000000000000000000000000000000008152600401612cbc90613fbb565b60405180910390fd5b612cce81612125565b15612d0e576040517f08c379a0000000000000000000000000000000000000000000000000000000008152600401612d0590613ebb565b60405180910390fd5b612d1a60008383612a4b565b6001600360008473ffffffffffffffffffffffffffffffffffffffff1673ffffffffffffffffffffffffffffffffffffffff1681526020019081526020016000206000828254612d6a9190614278565b92505081905550816002600083815260200190815260200160002060006101000a81548173ffffffffffffffffffffffffffffffffffffffff021916908373ffffffffffffffffffffffffffffffffffffffff160217905550808273ffffffffffffffffffffffffffffffffffffffff16600073ffffffffffffffffffffffffffffffffffffffff167fddf252ad1be2c89b69c2b068fc378daa952ba7f163c4a11628f55a4df523b3ef60405160405180910390a45050565b828054612e2f9061444d565b90600052602060002090601f016020900481019282612e515760008555612e98565b82601f10612e6a57805160ff1916838001178555612e98565b82800160010185558215612e98579182015b82811115612e97578251825591602001919060010190612e7c565b5b509050612ea59190612ea9565b5090565b5b80821115612ec2576000816000905550600101612eaa565b5090565b6000612ed9612ed484614187565b614156565b905082815260208101848484011115612ef157600080fd5b612efc84828561440b565b509392505050565b6000612f17612f12846141b7565b614156565b905082815260208101848484011115612f2f57600080fd5b612f3a84828561440b565b509392505050565b600081359050612f5181614601565b92915050565b60008083601f840112612f6957600080fd5b8235905067ffffffffffffffff811115612f8257600080fd5b602083019150836020820283011115612f9a57600080fd5b9250929050565b600081359050612fb081614618565b92915050565b600081359050612fc58161462f565b92915050565b600081519050612fda8161462f565b92915050565b600082601f830112612ff157600080fd5b8135613001848260208601612ec6565b91505092915050565b600082601f83011261301b57600080fd5b813561302b848260208601612f04565b91505092915050565b60008135905061304381614646565b92915050565b60006020828403121561305b57600080fd5b600061306984828501612f42565b91505092915050565b6000806040838503121561308557600080fd5b600061309385828601612f42565b92505060206130a485828601612f42565b9150509250929050565b6000806000606084860312156130c357600080fd5b60006130d186828701612f42565b93505060206130e286828701612f42565b92505060406130f386828701613034565b9150509250925092565b6000806000806080858703121561311357600080fd5b600061312187828801612f42565b945050602061313287828801612f42565b935050604061314387828801613034565b925050606085013567ffffffffffffffff81111561316057600080fd5b61316c87828801612fe0565b91505092959194509250565b6000806040838503121561318b57600080fd5b600061319985828601612f42565b92505060206131aa85828601612fa1565b9150509250929050565b600080604083850312156131c757600080fd5b60006131d585828601612f42565b92505060206131e685828601613034565b9150509250929050565b60008060006040848603121561320557600080fd5b600084013567ffffffffffffffff81111561321f57600080fd5b61322b86828701612f57565b9350935050602061323e86828701613034565b9150509250925092565b60006020828403121561325a57600080fd5b600061326884828501612fa1565b91505092915050565b60006020828403121561328357600080fd5b600061329184828501612fb6565b91505092915050565b6000602082840312156132ac57600080fd5b60006132ba84828501612fcb565b91505092915050565b6000602082840312156132d557600080fd5b600082013567ffffffffffffffff8111156132ef57600080fd5b6132fb8482850161300a565b91505092915050565b60006020828403121561331657600080fd5b600061332484828501613034565b91505092915050565b6000806040838503121561334057600080fd5b600061334e85828601613034565b925050602061335f85828601612f42565b9150509250929050565b60006133758383613ce4565b60208301905092915050565b61338a8161438d565b82525050565b6133a161339c8261438d565b6144c8565b82525050565b60006133b28261420c565b6133bc818561423a565b93506133c7836141e7565b8060005b838110156133f85781516133df8882613369565b97506133ea8361422d565b9250506001810190506133cb565b5085935050505092915050565b61340e8161439f565b82525050565b61341d816143ab565b82525050565b61343461342f826143ab565b6144da565b82525050565b600061344582614217565b61344f818561424b565b935061345f81856020860161441a565b613468816145e3565b840191505092915050565b600061347e82614222565b613488818561425c565b935061349881856020860161441a565b6134a1816145e3565b840191505092915050565b60006134b782614222565b6134c1818561426d565b93506134d181856020860161441a565b80840191505092915050565b600081546134ea8161444d565b6134f4818661426d565b9450600182166000811461350f576001811461352057613553565b60ff19831686528186019350613553565b613529856141f7565b60005b8381101561354b5781548189015260018201915060208101905061352c565b838801955050505b50505092915050565b600061356960328361425c565b91507f4552433732313a207472616e7366657220746f206e6f6e20455243373231526560008301527f63656976657220696d706c656d656e74657200000000000000000000000000006020830152604082019050919050565b60006135cf60168361425c565b91507f54686520636f6e747261637420697320706175736564000000000000000000006000830152602082019050919050565b600061360f60268361425c565b91507f4f776e61626c653a206e6577206f776e657220697320746865207a65726f206160008301527f64647265737300000000000000000000000000000000000000000000000000006020830152604082019050919050565b6000613675601c8361425c565b91507f4552433732313a20746f6b656e20616c7265616479206d696e746564000000006000830152602082019050919050565b60006136b560248361425c565b91507f4552433732313a207472616e7366657220746f20746865207a65726f2061646460008301527f72657373000000000000000000000000000000000000000000000000000000006020830152604082019050919050565b600061371b60198361425c565b91507f4552433732313a20617070726f766520746f2063616c6c6572000000000000006000830152602082019050919050565b600061375b602c8361425c565b91507f4552433732313a206f70657261746f7220717565727920666f72206e6f6e657860008301527f697374656e7420746f6b656e00000000000000000000000000000000000000006020830152604082019050919050565b60006137c160158361425c565b91507f496e76616c696465204d65726b6c652050726f6f6600000000000000000000006000830152602082019050919050565b600061380160388361425c565b91507f4552433732313a20617070726f76652063616c6c6572206973206e6f74206f7760008301527f6e6572206e6f7220617070726f76656420666f7220616c6c00000000000000006020830152604082019050919050565b6000613867602a8361425c565b91507f4552433732313a2062616c616e636520717565727920666f7220746865207a6560008301527f726f2061646472657373000000000000000000000000000000000000000000006020830152604082019050919050565b60006138cd60298361425c565b91507f4552433732313a206f776e657220717565727920666f72206e6f6e657869737460008301527f656e7420746f6b656e00000000000000000000000000000000000000000000006020830152604082019050919050565b600061393360208361425c565b91507f4552433732313a206d696e7420746f20746865207a65726f20616464726573736000830152602082019050919050565b600061397360178361425c565b91507f54686520636f6e7472616374206973207061757365642e0000000000000000006000830152602082019050919050565b60006139b3602c8361425c565b91507f4552433732313a20617070726f76656420717565727920666f72206e6f6e657860008301527f697374656e7420746f6b656e00000000000000000000000000000000000000006020830152604082019050919050565b6000613a1960148361425c565b91507f496e76616c6964206d696e7420616d6f756e742e0000000000000000000000006000830152602082019050919050565b6000613a5960208361425c565b91507f4f776e61626c653a2063616c6c6572206973206e6f7420746865206f776e65726000830152602082019050919050565b6000613a9960178361425c565b91507f4164647265737320616c726561647920636c61696d65640000000000000000006000830152602082019050919050565b6000613ad960298361425c565b91507f4552433732313a207472616e73666572206f6620746f6b656e2074686174206960008301527f73206e6f74206f776e00000000000000000000000000000000000000000000006020830152604082019050919050565b6000613b3f602f8361425c565b91507f4552433732314d657461646174613a2055524920717565727920666f72206e6f60008301527f6e6578697374656e7420746f6b656e00000000000000000000000000000000006020830152604082019050919050565b6000613ba560218361425c565b91507f4552433732313a20617070726f76616c20746f2063757272656e74206f776e6560008301527f72000000000000000000000000000000000000000000000000000000000000006020830152604082019050919050565b6000613c0b60318361425c565b91507f4552433732313a207472616e736665722063616c6c6572206973206e6f74206f60008301527f776e6572206e6f7220617070726f7665640000000000000000000000000000006020830152604082019050919050565b6000613c7160138361425c565b91507f496e73756666696369656e742066756e647321000000000000000000000000006000830152602082019050919050565b6000613cb160148361425c565b91507f4d617820737570706c792065786365656465642e0000000000000000000000006000830152602082019050919050565b613ced81614401565b82525050565b613cfc81614401565b82525050565b6000613d0e8284613390565b60148201915081905092915050565b6000613d298285613423565b602082019150613d398284613423565b6020820191508190509392505050565b6000613d5582866134ac565b9150613d6182856134ac565b9150613d6d82846134dd565b9150819050949350505050565b6000602082019050613d8f6000830184613381565b92915050565b6000608082019050613daa6000830187613381565b613db76020830186613381565b613dc46040830185613cf3565b8181036060830152613dd6818461343a565b905095945050505050565b60006020820190508181036000830152613dfb81846133a7565b905092915050565b6000602082019050613e186000830184613405565b92915050565b6000602082019050613e336000830184613414565b92915050565b60006020820190508181036000830152613e538184613473565b905092915050565b60006020820190508181036000830152613e748161355c565b9050919050565b60006020820190508181036000830152613e94816135c2565b9050919050565b60006020820190508181036000830152613eb481613602565b9050919050565b60006020820190508181036000830152613ed481613668565b9050919050565b60006020820190508181036000830152613ef4816136a8565b9050919050565b60006020820190508181036000830152613f148161370e565b9050919050565b60006020820190508181036000830152613f348161374e565b9050919050565b60006020820190508181036000830152613f54816137b4565b9050919050565b60006020820190508181036000830152613f74816137f4565b9050919050565b60006020820190508181036000830152613f948161385a565b9050919050565b60006020820190508181036000830152613fb4816138c0565b9050919050565b60006020820190508181036000830152613fd481613926565b9050919050565b60006020820190508181036000830152613ff481613966565b9050919050565b60006020820190508181036000830152614014816139a6565b9050919050565b6000602082019050818103600083015261403481613a0c565b9050919050565b6000602082019050818103600083015261405481613a4c565b9050919050565b6000602082019050818103600083015261407481613a8c565b9050919050565b6000602082019050818103600083015261409481613acc565b9050919050565b600060208201905081810360008301526140b481613b32565b9050919050565b600060208201905081810360008301526140d481613b98565b9050919050565b600060208201905081810360008301526140f481613bfe565b9050919050565b6000602082019050818103600083015261411481613c64565b9050919050565b6000602082019050818103600083015261413481613ca4565b9050919050565b60006020820190506141506000830184613cf3565b92915050565b6000604051905081810181811067ffffffffffffffff8211171561417d5761417c6145b4565b5b8060405250919050565b600067ffffffffffffffff8211156141a2576141a16145b4565b5b601f19601f8301169050602081019050919050565b600067ffffffffffffffff8211156141d2576141d16145b4565b5b601f19601f8301169050602081019050919050565b6000819050602082019050919050565b60008190508160005260206000209050919050565b600081519050919050565b600081519050919050565b600081519050919050565b6000602082019050919050565b600082825260208201905092915050565b600082825260208201905092915050565b600082825260208201905092915050565b600081905092915050565b600061428382614401565b915061428e83614401565b9250827fffffffffffffffffffffffffffffffffffffffffffffffffffffffffffffffff038211156142c3576142c2614527565b5b828201905092915050565b60006142d982614401565b91506142e483614401565b9250826142f4576142f3614556565b5b828204905092915050565b600061430a82614401565b915061431583614401565b9250817fffffffffffffffffffffffffffffffffffffffffffffffffffffffffffffffff048311821515161561434e5761434d614527565b5b828202905092915050565b600061436482614401565b915061436f83614401565b92508282101561438257614381614527565b5b828203905092915050565b6000614398826143e1565b9050919050565b60008115159050919050565b6000819050919050565b60007fffffffff0000000000000000000000000000000000000000000000000000000082169050919050565b600073ffffffffffffffffffffffffffffffffffffffff82169050919050565b6000819050919050565b82818337600083830152505050565b60005b8381101561443857808201518184015260208101905061441d565b83811115614447576000848401525b50505050565b6000600282049050600182168061446557607f821691505b6020821081141561447957614478614585565b5b50919050565b600061448a82614401565b91507fffffffffffffffffffffffffffffffffffffffffffffffffffffffffffffffff8214156144bd576144bc614527565b5b600182019050919050565b60006144d3826144e4565b9050919050565b6000819050919050565b60006144ef826145f4565b9050919050565b600061450182614401565b915061450c83614401565b92508261451c5761451b614556565b5b828206905092915050565b7f4e487b7100000000000000000000000000000000000000000000000000000000600052601160045260246000fd5b7f4e487b7100000000000000000000000000000000000000000000000000000000600052601260045260246000fd5b7f4e487b7100000000000000000000000000000000000000000000000000000000600052602260045260246000fd5b7f4e487b7100000000000000000000000000000000000000000000000000000000600052604160045260246000fd5b6000601f19601f8301169050919050565b60008160601b9050919050565b61460a8161438d565b811461461557600080fd5b50565b6146218161439f565b811461462c57600080fd5b50565b614638816143b5565b811461464357600080fd5b50565b61464f81614401565b811461465a57600080fd5b5056fea2646970667358221220d0c7c820323454fafb0adbceab88dfbb96ffad4eb5f1d5ef3fdf21a3d1d08a9f64736f6c63430008000033697066733a2f2f516d6473487666565833457a58417a514d713747597047636156534b6d38597a716242586d614455774b336a55432f",
  "devdoc": {
    "kind": "dev",
    "methods": {
      "approve(address,uint256)": {
        "details": "See {IERC721-approve}."
      },
      "balanceOf(address)": {
        "details": "See {IERC721-balanceOf}."
      },
      "getApproved(uint256)": {
        "details": "See {IERC721-getApproved}."
      },
      "isApprovedForAll(address,address)": {
        "details": "See {IERC721-isApprovedForAll}."
      },
      "name()": {
        "details": "See {IERC721Metadata-name}."
      },
      "owner()": {
        "details": "Returns the address of the current owner."
      },
      "ownerOf(uint256)": {
        "details": "See {IERC721-ownerOf}."
      },
      "renounceOwnership()": {
        "details": "Leaves the contract without owner. It will not be possible to call `onlyOwner` functions anymore. Can only be called by the current owner. NOTE: Renouncing ownership will leave the contract without an owner, thereby removing any functionality that is only available to the owner."
      },
      "safeTransferFrom(address,address,uint256)": {
        "details": "See {IERC721-safeTransferFrom}."
      },
      "safeTransferFrom(address,address,uint256,bytes)": {
        "details": "See {IERC721-safeTransferFrom}."
      },
      "setApprovalForAll(address,bool)": {
        "details": "See {IERC721-setApprovalForAll}."
      },
      "supportsInterface(bytes4)": {
        "details": "See {IERC165-supportsInterface}."
      },
      "symbol()": {
        "details": "See {IERC721Metadata-symbol}."
      },
      "transferFrom(address,address,uint256)": {
        "details": "See {IERC721-transferFrom}."
      },
      "transferOwnership(address)": {
        "details": "Transfers ownership of the contract to a new account (`newOwner`). Can only be called by the current owner."
      }
    },
    "version": 1
  },
  "userdoc": {
    "kind": "user",
    "methods": {},
    "version": 1
  },
  "storageLayout": {
    "storage": [
      {
        "astId": 129,
        "contract": "contracts/NFT2.sol:NFF33T",
        "label": "_name",
        "offset": 0,
        "slot": "0",
        "type": "t_string_storage"
      },
      {
        "astId": 131,
        "contract": "contracts/NFT2.sol:NFF33T",
        "label": "_symbol",
        "offset": 0,
        "slot": "1",
        "type": "t_string_storage"
      },
      {
        "astId": 135,
        "contract": "contracts/NFT2.sol:NFF33T",
        "label": "_owners",
        "offset": 0,
        "slot": "2",
        "type": "t_mapping(t_uint256,t_address)"
      },
      {
        "astId": 139,
        "contract": "contracts/NFT2.sol:NFF33T",
        "label": "_balances",
        "offset": 0,
        "slot": "3",
        "type": "t_mapping(t_address,t_uint256)"
      },
      {
        "astId": 143,
        "contract": "contracts/NFT2.sol:NFF33T",
        "label": "_tokenApprovals",
        "offset": 0,
        "slot": "4",
        "type": "t_mapping(t_uint256,t_address)"
      },
      {
        "astId": 149,
        "contract": "contracts/NFT2.sol:NFF33T",
        "label": "_operatorApprovals",
        "offset": 0,
        "slot": "5",
        "type": "t_mapping(t_address,t_mapping(t_address,t_bool))"
      },
      {
        "astId": 7,
        "contract": "contracts/NFT2.sol:NFF33T",
        "label": "_owner",
        "offset": 0,
        "slot": "6",
        "type": "t_address"
      },
      {
        "astId": 2540,
        "contract": "contracts/NFT2.sol:NFF33T",
        "label": "supply",
        "offset": 0,
        "slot": "7",
        "type": "t_struct(Counter)1774_storage"
      },
      {
        "astId": 2543,
        "contract": "contracts/NFT2.sol:NFF33T",
        "label": "uriPrefix",
        "offset": 0,
        "slot": "8",
        "type": "t_string_storage"
      },
      {
        "astId": 2546,
        "contract": "contracts/NFT2.sol:NFF33T",
        "label": "uriSuffix",
        "offset": 0,
        "slot": "9",
        "type": "t_string_storage"
      },
      {
        "astId": 2549,
        "contract": "contracts/NFT2.sol:NFF33T",
        "label": "cost",
        "offset": 0,
        "slot": "10",
        "type": "t_uint256"
      },
      {
        "astId": 2552,
        "contract": "contracts/NFT2.sol:NFF33T",
        "label": "maxSupply",
        "offset": 0,
        "slot": "11",
        "type": "t_uint256"
      },
      {
        "astId": 2555,
        "contract": "contracts/NFT2.sol:NFF33T",
        "label": "maxMintAmount",
        "offset": 0,
        "slot": "12",
        "type": "t_uint256"
      },
      {
        "astId": 2558,
        "contract": "contracts/NFT2.sol:NFF33T",
        "label": "paused",
        "offset": 0,
        "slot": "13",
        "type": "t_bool"
      },
      {
        "astId": 2561,
        "contract": "contracts/NFT2.sol:NFF33T",
        "label": "merkleRoot",
        "offset": 0,
        "slot": "14",
        "type": "t_bytes32"
      },
      {
        "astId": 2565,
        "contract": "contracts/NFT2.sol:NFF33T",
        "label": "whitelistClaimed",
        "offset": 0,
        "slot": "15",
        "type": "t_mapping(t_address,t_bool)"
      }
    ],
    "types": {
      "t_address": {
        "encoding": "inplace",
        "label": "address",
        "numberOfBytes": "20"
      },
      "t_bool": {
        "encoding": "inplace",
        "label": "bool",
        "numberOfBytes": "1"
      },
      "t_bytes32": {
        "encoding": "inplace",
        "label": "bytes32",
        "numberOfBytes": "32"
      },
      "t_mapping(t_address,t_bool)": {
        "encoding": "mapping",
        "key": "t_address",
        "label": "mapping(address => bool)",
        "numberOfBytes": "32",
        "value": "t_bool"
      },
      "t_mapping(t_address,t_mapping(t_address,t_bool))": {
        "encoding": "mapping",
        "key": "t_address",
        "label": "mapping(address => mapping(address => bool))",
        "numberOfBytes": "32",
        "value": "t_mapping(t_address,t_bool)"
      },
      "t_mapping(t_address,t_uint256)": {
        "encoding": "mapping",
        "key": "t_address",
        "label": "mapping(address => uint256)",
        "numberOfBytes": "32",
        "value": "t_uint256"
      },
      "t_mapping(t_uint256,t_address)": {
        "encoding": "mapping",
        "key": "t_uint256",
        "label": "mapping(uint256 => address)",
        "numberOfBytes": "32",
        "value": "t_address"
      },
      "t_string_storage": {
        "encoding": "bytes",
        "label": "string",
        "numberOfBytes": "32"
      },
      "t_struct(Counter)1774_storage": {
        "encoding": "inplace",
        "label": "struct Counters.Counter",
        "members": [
          {
            "astId": 1773,
            "contract": "contracts/NFT2.sol:NFF33T",
            "label": "_value",
            "offset": 0,
            "slot": "0",
            "type": "t_uint256"
          }
        ],
        "numberOfBytes": "32"
      },
      "t_uint256": {
        "encoding": "inplace",
        "label": "uint256",
        "numberOfBytes": "32"
      }
    }
  }
}