{
  "address": "0xb94a8b00c16DF471c238347f716De19F3Bc83795",
  "abi": [
    {
      "inputs": [
        {
          "internalType": "string",
          "name": "_name",
          "type": "string"
        },
        {
          "internalType": "string",
          "name": "_symbol",
          "type": "string"
        },
        {
          "internalType": "string",
          "name": "_initBaseURI",
          "type": "string"
        }
      ],
      "stateMutability": "nonpayable",
      "type": "constructor"
    },
    {
      "anonymous": false,
      "inputs": [
        {
          "indexed": true,
          "internalType": "address",
          "name": "owner",
          "type": "address"
        },
        {
          "indexed": true,
          "internalType": "address",
          "name": "approved",
          "type": "address"
        },
        {
          "indexed": true,
          "internalType": "uint256",
          "name": "tokenId",
          "type": "uint256"
        }
      ],
      "name": "Approval",
      "type": "event"
    },
    {
      "anonymous": false,
      "inputs": [
        {
          "indexed": true,
          "internalType": "address",
          "name": "owner",
          "type": "address"
        },
        {
          "indexed": true,
          "internalType": "address",
          "name": "operator",
          "type": "address"
        },
        {
          "indexed": false,
          "internalType": "bool",
          "name": "approved",
          "type": "bool"
        }
      ],
      "name": "ApprovalForAll",
      "type": "event"
    },
    {
      "anonymous": false,
      "inputs": [
        {
          "indexed": true,
          "internalType": "address",
          "name": "previousOwner",
          "type": "address"
        },
        {
          "indexed": true,
          "internalType": "address",
          "name": "newOwner",
          "type": "address"
        }
      ],
      "name": "OwnershipTransferred",
      "type": "event"
    },
    {
      "anonymous": false,
      "inputs": [
        {
          "indexed": true,
          "internalType": "address",
          "name": "from",
          "type": "address"
        },
        {
          "indexed": true,
          "internalType": "address",
          "name": "to",
          "type": "address"
        },
        {
          "indexed": true,
          "internalType": "uint256",
          "name": "tokenId",
          "type": "uint256"
        }
      ],
      "name": "Transfer",
      "type": "event"
    },
    {
      "inputs": [
        {
          "internalType": "address",
          "name": "to",
          "type": "address"
        },
        {
          "internalType": "uint256",
          "name": "tokenId",
          "type": "uint256"
        }
      ],
      "name": "approve",
      "outputs": [],
      "stateMutability": "nonpayable",
      "type": "function"
    },
    {
      "inputs": [
        {
          "internalType": "address",
          "name": "owner",
          "type": "address"
        }
      ],
      "name": "balanceOf",
      "outputs": [
        {
          "internalType": "uint256",
          "name": "",
          "type": "uint256"
        }
      ],
      "stateMutability": "view",
      "type": "function"
    },
    {
      "inputs": [],
      "name": "baseExtension",
      "outputs": [
        {
          "internalType": "string",
          "name": "",
          "type": "string"
        }
      ],
      "stateMutability": "view",
      "type": "function"
    },
    {
      "inputs": [],
      "name": "cost",
      "outputs": [
        {
          "internalType": "uint256",
          "name": "",
          "type": "uint256"
        }
      ],
      "stateMutability": "view",
      "type": "function"
    },
    {
      "inputs": [
        {
          "internalType": "uint256",
          "name": "tokenId",
          "type": "uint256"
        }
      ],
      "name": "getApproved",
      "outputs": [
        {
          "internalType": "address",
          "name": "",
          "type": "address"
        }
      ],
      "stateMutability": "view",
      "type": "function"
    },
    {
      "inputs": [],
      "name": "getBaseURI",
      "outputs": [
        {
          "internalType": "string",
          "name": "",
          "type": "string"
        }
      ],
      "stateMutability": "view",
      "type": "function"
    },
    {
      "inputs": [],
      "name": "getBasedExtension",
      "outputs": [
        {
          "internalType": "string",
          "name": "",
          "type": "string"
        }
      ],
      "stateMutability": "view",
      "type": "function"
    },
    {
      "inputs": [],
      "name": "getCost",
      "outputs": [
        {
          "internalType": "uint256",
          "name": "",
          "type": "uint256"
        }
      ],
      "stateMutability": "view",
      "type": "function"
    },
    {
      "inputs": [],
      "name": "getMaxMintAmount",
      "outputs": [
        {
          "internalType": "uint256",
          "name": "",
          "type": "uint256"
        }
      ],
      "stateMutability": "view",
      "type": "function"
    },
    {
      "inputs": [],
      "name": "getMaxSupply",
      "outputs": [
        {
          "internalType": "uint256",
          "name": "",
          "type": "uint256"
        }
      ],
      "stateMutability": "view",
      "type": "function"
    },
    {
      "inputs": [
        {
          "internalType": "address",
          "name": "owner",
          "type": "address"
        },
        {
          "internalType": "address",
          "name": "operator",
          "type": "address"
        }
      ],
      "name": "isApprovedForAll",
      "outputs": [
        {
          "internalType": "bool",
          "name": "",
          "type": "bool"
        }
      ],
      "stateMutability": "view",
      "type": "function"
    },
    {
      "inputs": [],
      "name": "isPaused",
      "outputs": [
        {
          "internalType": "bool",
          "name": "",
          "type": "bool"
        }
      ],
      "stateMutability": "view",
      "type": "function"
    },
    {
      "inputs": [],
      "name": "maxMintAmount",
      "outputs": [
        {
          "internalType": "uint256",
          "name": "",
          "type": "uint256"
        }
      ],
      "stateMutability": "view",
      "type": "function"
    },
    {
      "inputs": [],
      "name": "maxSupply",
      "outputs": [
        {
          "internalType": "uint256",
          "name": "",
          "type": "uint256"
        }
      ],
      "stateMutability": "view",
      "type": "function"
    },
    {
      "inputs": [
        {
          "internalType": "uint256",
          "name": "_mintAmount",
          "type": "uint256"
        }
      ],
      "name": "mint",
      "outputs": [],
      "stateMutability": "payable",
      "type": "function"
    },
    {
      "inputs": [],
      "name": "name",
      "outputs": [
        {
          "internalType": "string",
          "name": "",
          "type": "string"
        }
      ],
      "stateMutability": "view",
      "type": "function"
    },
    {
      "inputs": [],
      "name": "owner",
      "outputs": [
        {
          "internalType": "address",
          "name": "",
          "type": "address"
        }
      ],
      "stateMutability": "view",
      "type": "function"
    },
    {
      "inputs": [
        {
          "internalType": "uint256",
          "name": "tokenId",
          "type": "uint256"
        }
      ],
      "name": "ownerOf",
      "outputs": [
        {
          "internalType": "address",
          "name": "",
          "type": "address"
        }
      ],
      "stateMutability": "view",
      "type": "function"
    },
    {
      "inputs": [
        {
          "internalType": "bool",
          "name": "_state",
          "type": "bool"
        }
      ],
      "name": "pause",
      "outputs": [],
      "stateMutability": "nonpayable",
      "type": "function"
    },
    {
      "inputs": [],
      "name": "paused",
      "outputs": [
        {
          "internalType": "bool",
          "name": "",
          "type": "bool"
        }
      ],
      "stateMutability": "view",
      "type": "function"
    },
    {
      "inputs": [],
      "name": "renounceOwnership",
      "outputs": [],
      "stateMutability": "nonpayable",
      "type": "function"
    },
    {
      "inputs": [
        {
          "internalType": "address",
          "name": "from",
          "type": "address"
        },
        {
          "internalType": "address",
          "name": "to",
          "type": "address"
        },
        {
          "internalType": "uint256",
          "name": "tokenId",
          "type": "uint256"
        }
      ],
      "name": "safeTransferFrom",
      "outputs": [],
      "stateMutability": "nonpayable",
      "type": "function"
    },
    {
      "inputs": [
        {
          "internalType": "address",
          "name": "from",
          "type": "address"
        },
        {
          "internalType": "address",
          "name": "to",
          "type": "address"
        },
        {
          "internalType": "uint256",
          "name": "tokenId",
          "type": "uint256"
        },
        {
          "internalType": "bytes",
          "name": "_data",
          "type": "bytes"
        }
      ],
      "name": "safeTransferFrom",
      "outputs": [],
      "stateMutability": "nonpayable",
      "type": "function"
    },
    {
      "inputs": [
        {
          "internalType": "address",
          "name": "operator",
          "type": "address"
        },
        {
          "internalType": "bool",
          "name": "approved",
          "type": "bool"
        }
      ],
      "name": "setApprovalForAll",
      "outputs": [],
      "stateMutability": "nonpayable",
      "type": "function"
    },
    {
      "inputs": [
        {
          "internalType": "string",
          "name": "_newBaseExtension",
          "type": "string"
        }
      ],
      "name": "setBaseExtension",
      "outputs": [],
      "stateMutability": "nonpayable",
      "type": "function"
    },
    {
      "inputs": [
        {
          "internalType": "string",
          "name": "_newBaseURI",
          "type": "string"
        }
      ],
      "name": "setBaseURI",
      "outputs": [],
      "stateMutability": "nonpayable",
      "type": "function"
    },
    {
      "inputs": [
        {
          "internalType": "uint256",
          "name": "_newCost",
          "type": "uint256"
        }
      ],
      "name": "setCost",
      "outputs": [],
      "stateMutability": "nonpayable",
      "type": "function"
    },
    {
      "inputs": [
        {
          "internalType": "uint256",
          "name": "_newmaxMintAmount",
          "type": "uint256"
        }
      ],
      "name": "setmaxMintAmount",
      "outputs": [],
      "stateMutability": "nonpayable",
      "type": "function"
    },
    {
      "inputs": [
        {
          "internalType": "bytes4",
          "name": "interfaceId",
          "type": "bytes4"
        }
      ],
      "name": "supportsInterface",
      "outputs": [
        {
          "internalType": "bool",
          "name": "",
          "type": "bool"
        }
      ],
      "stateMutability": "view",
      "type": "function"
    },
    {
      "inputs": [],
      "name": "symbol",
      "outputs": [
        {
          "internalType": "string",
          "name": "",
          "type": "string"
        }
      ],
      "stateMutability": "view",
      "type": "function"
    },
    {
      "inputs": [
        {
          "internalType": "uint256",
          "name": "index",
          "type": "uint256"
        }
      ],
      "name": "tokenByIndex",
      "outputs": [
        {
          "internalType": "uint256",
          "name": "",
          "type": "uint256"
        }
      ],
      "stateMutability": "view",
      "type": "function"
    },
    {
      "inputs": [
        {
          "internalType": "address",
          "name": "_owner",
          "type": "address"
        }
      ],
      "name": "tokenIdOfOwner",
      "outputs": [
        {
          "internalType": "uint256[]",
          "name": "",
          "type": "uint256[]"
        }
      ],
      "stateMutability": "view",
      "type": "function"
    },
    {
      "inputs": [
        {
          "internalType": "address",
          "name": "owner",
          "type": "address"
        },
        {
          "internalType": "uint256",
          "name": "index",
          "type": "uint256"
        }
      ],
      "name": "tokenOfOwnerByIndex",
      "outputs": [
        {
          "internalType": "uint256",
          "name": "",
          "type": "uint256"
        }
      ],
      "stateMutability": "view",
      "type": "function"
    },
    {
      "inputs": [
        {
          "internalType": "uint256",
          "name": "tokenId",
          "type": "uint256"
        }
      ],
      "name": "tokenURI",
      "outputs": [
        {
          "internalType": "string",
          "name": "",
          "type": "string"
        }
      ],
      "stateMutability": "view",
      "type": "function"
    },
    {
      "inputs": [],
      "name": "totalSupply",
      "outputs": [
        {
          "internalType": "uint256",
          "name": "",
          "type": "uint256"
        }
      ],
      "stateMutability": "view",
      "type": "function"
    },
    {
      "inputs": [
        {
          "internalType": "address",
          "name": "from",
          "type": "address"
        },
        {
          "internalType": "address",
          "name": "to",
          "type": "address"
        },
        {
          "internalType": "uint256",
          "name": "tokenId",
          "type": "uint256"
        }
      ],
      "name": "transferFrom",
      "outputs": [],
      "stateMutability": "nonpayable",
      "type": "function"
    },
    {
      "inputs": [
        {
          "internalType": "address",
          "name": "newOwner",
          "type": "address"
        }
      ],
      "name": "transferOwnership",
      "outputs": [],
      "stateMutability": "nonpayable",
      "type": "function"
    },
    {
      "inputs": [],
      "name": "withdraw",
      "outputs": [],
      "stateMutability": "nonpayable",
      "type": "function"
    }
  ],
  "transactionHash": "0x3b7a0b3bbbba106be5ff760c9e69159bebbb9bb58bb6b4da6d73c4c4be3ad93f",
  "args": [
    "NFF33T",
    "f33t",
    "ipfs://QmdsHvfVX3EzXAzQMq7GYpGcaVSKm8YzqbBXmaDUwK3jUC/"
  ],
  "solcInputHash": "cc915dde5c915ead02fa56a8e9fee9e4",
  "bytecode": "0x60806040526040518060400160405280600581526020017f2e6a736f6e000000000000000000000000000000000000000000000000000000815250600c908051906020019062000051929190620002c8565b5066470de4df820000600d55611b39600e55600f80556000601060006101000a81548160ff0219169083151502179055503480156200008f57600080fd5b5060405162004c5c38038062004c5c8339818101604052810190620000b59190620003ea565b82828160009080519060200190620000cf929190620002c8565b508060019080519060200190620000e8929190620002c8565b5050506200010b620000ff6200012560201b60201c565b6200012d60201b60201c565b6200011c81620001f360201b60201c565b50505062000631565b600033905090565b6000600a60009054906101000a900473ffffffffffffffffffffffffffffffffffffffff16905081600a60006101000a81548173ffffffffffffffffffffffffffffffffffffffff021916908373ffffffffffffffffffffffffffffffffffffffff1602179055508173ffffffffffffffffffffffffffffffffffffffff168173ffffffffffffffffffffffffffffffffffffffff167f8be0079c531659141344cd1fd0a4f28419497f9722a3daafe3b4186f6b6457e060405160405180910390a35050565b620002036200012560201b60201c565b73ffffffffffffffffffffffffffffffffffffffff16620002296200029e60201b60201c565b73ffffffffffffffffffffffffffffffffffffffff161462000282576040517f08c379a00000000000000000000000000000000000000000000000000000000081526004016200027990620004cd565b60405180910390fd5b80600b90805190602001906200029a929190620002c8565b5050565b6000600a60009054906101000a900473ffffffffffffffffffffffffffffffffffffffff16905090565b828054620002d6906200059d565b90600052602060002090601f016020900481019282620002fa576000855562000346565b82601f106200031557805160ff191683800117855562000346565b8280016001018555821562000346579182015b828111156200034557825182559160200191906001019062000328565b5b50905062000355919062000359565b5090565b5b80821115620003745760008160009055506001016200035a565b5090565b60006200038f620003898462000523565b620004ef565b905082815260208101848484011115620003a857600080fd5b620003b584828562000567565b509392505050565b600082601f830112620003cf57600080fd5b8151620003e184826020860162000378565b91505092915050565b6000806000606084860312156200040057600080fd5b600084015167ffffffffffffffff8111156200041b57600080fd5b6200042986828701620003bd565b935050602084015167ffffffffffffffff8111156200044757600080fd5b6200045586828701620003bd565b925050604084015167ffffffffffffffff8111156200047357600080fd5b6200048186828701620003bd565b9150509250925092565b60006200049a60208362000556565b91507f4f776e61626c653a2063616c6c6572206973206e6f7420746865206f776e65726000830152602082019050919050565b60006020820190508181036000830152620004e8816200048b565b9050919050565b6000604051905081810181811067ffffffffffffffff8211171562000519576200051862000602565b5b8060405250919050565b600067ffffffffffffffff82111562000541576200054062000602565b5b601f19601f8301169050602081019050919050565b600082825260208201905092915050565b60005b83811015620005875780820151818401526020810190506200056a565b8381111562000597576000848401525b50505050565b60006002820490506001821680620005b657607f821691505b60208210811415620005cd57620005cc620005d3565b5b50919050565b7f4e487b7100000000000000000000000000000000000000000000000000000000600052602260045260246000fd5b7f4e487b7100000000000000000000000000000000000000000000000000000000600052604160045260246000fd5b61461b80620006416000396000f3fe6080604052600436106102255760003560e01c8063714c539811610123578063b88d4fde116100ab578063d6e7b8e41161006f578063d6e7b8e4146107ea578063da3ef23f14610815578063da87741b1461083e578063e985e9c51461087b578063f2fde38b146108b857610225565b8063b88d4fde14610703578063bd3e19d41461072c578063c668286214610757578063c87b56dd14610782578063d5abeb01146107bf57610225565b806392de3bd4116100f257806392de3bd41461063d57806395d89b4114610668578063a0712d6814610693578063a22cb465146106af578063b187bd26146106d857610225565b8063714c5398146105a7578063715018a6146105d25780637f00c7a6146105e95780638da5cb5b1461061257610225565b80632f745c59116101b15780634f6ccce7116101755780634f6ccce71461049c57806355f804b3146104d95780635c975abb146105025780636352211e1461052d57806370a082311461056a57610225565b80632f745c59146103cb5780633ccfd60b1461040857806342842e0e1461041f57806344a0d68a146104485780634c0f38c21461047157610225565b8063095ea7b3116101f8578063095ea7b3146102f857806313faede61461032157806318160ddd1461034c578063239c70ae1461037757806323b872dd146103a257610225565b806301ffc9a71461022a57806302329a291461026757806306fdde0314610290578063081812fc146102bb575b600080fd5b34801561023657600080fd5b50610251600480360381019061024c9190613281565b6108e1565b60405161025e9190613deb565b60405180910390f35b34801561027357600080fd5b5061028e60048036038101906102899190613258565b61095b565b005b34801561029c57600080fd5b506102a56109f4565b6040516102b29190613e06565b60405180910390f35b3480156102c757600080fd5b506102e260048036038101906102dd9190613314565b610a86565b6040516102ef9190613d62565b60405180910390f35b34801561030457600080fd5b5061031f600480360381019061031a919061321c565b610b0b565b005b34801561032d57600080fd5b50610336610c23565b6040516103439190614108565b60405180910390f35b34801561035857600080fd5b50610361610c29565b60405161036e9190614108565b60405180910390f35b34801561038357600080fd5b5061038c610c36565b6040516103999190614108565b60405180910390f35b3480156103ae57600080fd5b506103c960048036038101906103c49190613116565b610c3c565b005b3480156103d757600080fd5b506103f260048036038101906103ed919061321c565b610c9c565b6040516103ff9190614108565b60405180910390f35b34801561041457600080fd5b5061041d610d41565b005b34801561042b57600080fd5b5061044660048036038101906104419190613116565b610e13565b005b34801561045457600080fd5b5061046f600480360381019061046a9190613314565b610e33565b005b34801561047d57600080fd5b50610486610eb9565b6040516104939190614108565b60405180910390f35b3480156104a857600080fd5b506104c360048036038101906104be9190613314565b610ec3565b6040516104d09190614108565b60405180910390f35b3480156104e557600080fd5b5061050060048036038101906104fb91906132d3565b610f5a565b005b34801561050e57600080fd5b50610517610ff0565b6040516105249190613deb565b60405180910390f35b34801561053957600080fd5b50610554600480360381019061054f9190613314565b611003565b6040516105619190613d62565b60405180910390f35b34801561057657600080fd5b50610591600480360381019061058c91906130b1565b6110b5565b60405161059e9190614108565b60405180910390f35b3480156105b357600080fd5b506105bc61116d565b6040516105c99190613e06565b60405180910390f35b3480156105de57600080fd5b506105e76111ff565b005b3480156105f557600080fd5b50610610600480360381019061060b9190613314565b611287565b005b34801561061e57600080fd5b5061062761130d565b6040516106349190613d62565b60405180910390f35b34801561064957600080fd5b50610652611337565b60405161065f9190613e06565b60405180910390f35b34801561067457600080fd5b5061067d6113c9565b60405161068a9190613e06565b60405180910390f35b6106ad60048036038101906106a89190613314565b61145b565b005b3480156106bb57600080fd5b506106d660048036038101906106d191906131e0565b611655565b005b3480156106e457600080fd5b506106ed6117d6565b6040516106fa9190613deb565b60405180910390f35b34801561070f57600080fd5b5061072a60048036038101906107259190613165565b6117ed565b005b34801561073857600080fd5b5061074161184f565b60405161074e9190614108565b60405180910390f35b34801561076357600080fd5b5061076c611859565b6040516107799190613e06565b60405180910390f35b34801561078e57600080fd5b506107a960048036038101906107a49190613314565b6118e7565b6040516107b69190613e06565b60405180910390f35b3480156107cb57600080fd5b506107d4611991565b6040516107e19190614108565b60405180910390f35b3480156107f657600080fd5b506107ff611997565b60405161080c9190614108565b60405180910390f35b34801561082157600080fd5b5061083c600480360381019061083791906132d3565b6119a1565b005b34801561084a57600080fd5b50610865600480360381019061086091906130b1565b611a37565b6040516108729190613dc9565b60405180910390f35b34801561088757600080fd5b506108a2600480360381019061089d91906130da565b611bb3565b6040516108af9190613deb565b60405180910390f35b3480156108c457600080fd5b506108df60048036038101906108da91906130b1565b611c47565b005b60007f780e9d63000000000000000000000000000000000000000000000000000000007bffffffffffffffffffffffffffffffffffffffffffffffffffffffff1916827bffffffffffffffffffffffffffffffffffffffffffffffffffffffff19161480610954575061095382611d3f565b5b9050919050565b610963611e21565b73ffffffffffffffffffffffffffffffffffffffff1661098161130d565b73ffffffffffffffffffffffffffffffffffffffff16146109d7576040517f08c379a00000000000000000000000000000000000000000000000000000000081526004016109ce90613fe8565b60405180910390fd5b80601060006101000a81548160ff02191690831515021790555050565b606060008054610a0390614410565b80601f0160208091040260200160405190810160405280929190818152602001828054610a2f90614410565b8015610a7c5780601f10610a5157610100808354040283529160200191610a7c565b820191906000526020600020905b815481529060010190602001808311610a5f57829003601f168201915b5050505050905090565b6000610a9182611e29565b610ad0576040517f08c379a0000000000000000000000000000000000000000000000000000000008152600401610ac790613fc8565b60405180910390fd5b6004600083815260200190815260200160002060009054906101000a900473ffffffffffffffffffffffffffffffffffffffff169050919050565b6000610b1682611003565b90508073ffffffffffffffffffffffffffffffffffffffff168373ffffffffffffffffffffffffffffffffffffffff161415610b87576040517f08c379a0000000000000000000000000000000000000000000000000000000008152600401610b7e90614068565b60405180910390fd5b8073ffffffffffffffffffffffffffffffffffffffff16610ba6611e21565b73ffffffffffffffffffffffffffffffffffffffff161480610bd55750610bd481610bcf611e21565b611bb3565b5b610c14576040517f08c379a0000000000000000000000000000000000000000000000000000000008152600401610c0b90613f48565b60405180910390fd5b610c1e8383611e95565b505050565b600d5481565b6000600880549050905090565b600f5481565b610c4d610c47611e21565b82611f4e565b610c8c576040517f08c379a0000000000000000000000000000000000000000000000000000000008152600401610c83906140a8565b60405180910390fd5b610c9783838361202c565b505050565b6000610ca7836110b5565b8210610ce8576040517f08c379a0000000000000000000000000000000000000000000000000000000008152600401610cdf90613e28565b60405180910390fd5b600660008473ffffffffffffffffffffffffffffffffffffffff1673ffffffffffffffffffffffffffffffffffffffff168152602001908152602001600020600083815260200190815260200160002054905092915050565b610d49611e21565b73ffffffffffffffffffffffffffffffffffffffff16610d6761130d565b73ffffffffffffffffffffffffffffffffffffffff1614610dbd576040517f08c379a0000000000000000000000000000000000000000000000000000000008152600401610db490613fe8565b60405180910390fd5b6000610dc761130d565b90508073ffffffffffffffffffffffffffffffffffffffff166108fc479081150290604051600060405180830381858888f19350505050158015610e0f573d6000803e3d6000fd5b5050565b610e2e838383604051806020016040528060008152506117ed565b505050565b610e3b611e21565b73ffffffffffffffffffffffffffffffffffffffff16610e5961130d565b73ffffffffffffffffffffffffffffffffffffffff1614610eaf576040517f08c379a0000000000000000000000000000000000000000000000000000000008152600401610ea690613fe8565b60405180910390fd5b80600d8190555050565b6000600e54905090565b6000610ecd610c29565b8210610f0e576040517f08c379a0000000000000000000000000000000000000000000000000000000008152600401610f05906140c8565b60405180910390fd5b60088281548110610f48577f4e487b7100000000000000000000000000000000000000000000000000000000600052603260045260246000fd5b90600052602060002001549050919050565b610f62611e21565b73ffffffffffffffffffffffffffffffffffffffff16610f8061130d565b73ffffffffffffffffffffffffffffffffffffffff1614610fd6576040517f08c379a0000000000000000000000000000000000000000000000000000000008152600401610fcd90613fe8565b60405180910390fd5b80600b9080519060200190610fec929190612ed5565b5050565b601060009054906101000a900460ff1681565b6000806002600084815260200190815260200160002060009054906101000a900473ffffffffffffffffffffffffffffffffffffffff169050600073ffffffffffffffffffffffffffffffffffffffff168173ffffffffffffffffffffffffffffffffffffffff1614156110ac576040517f08c379a00000000000000000000000000000000000000000000000000000000081526004016110a390613f88565b60405180910390fd5b80915050919050565b60008073ffffffffffffffffffffffffffffffffffffffff168273ffffffffffffffffffffffffffffffffffffffff161415611126576040517f08c379a000000000000000000000000000000000000000000000000000000000815260040161111d90613f68565b60405180910390fd5b600360008373ffffffffffffffffffffffffffffffffffffffff1673ffffffffffffffffffffffffffffffffffffffff168152602001908152602001600020549050919050565b6060600b805461117c90614410565b80601f01602080910402602001604051908101604052809291908181526020018280546111a890614410565b80156111f55780601f106111ca576101008083540402835291602001916111f5565b820191906000526020600020905b8154815290600101906020018083116111d857829003601f168201915b5050505050905090565b611207611e21565b73ffffffffffffffffffffffffffffffffffffffff1661122561130d565b73ffffffffffffffffffffffffffffffffffffffff161461127b576040517f08c379a000000000000000000000000000000000000000000000000000000000815260040161127290613fe8565b60405180910390fd5b6112856000612288565b565b61128f611e21565b73ffffffffffffffffffffffffffffffffffffffff166112ad61130d565b73ffffffffffffffffffffffffffffffffffffffff1614611303576040517f08c379a00000000000000000000000000000000000000000000000000000000081526004016112fa90613fe8565b60405180910390fd5b80600f8190555050565b6000600a60009054906101000a900473ffffffffffffffffffffffffffffffffffffffff16905090565b6060600c805461134690614410565b80601f016020809104026020016040519081016040528092919081815260200182805461137290614410565b80156113bf5780601f10611394576101008083540402835291602001916113bf565b820191906000526020600020905b8154815290600101906020018083116113a257829003601f168201915b5050505050905090565b6060600180546113d890614410565b80601f016020809104026020016040519081016040528092919081815260200182805461140490614410565b80156114515780601f1061142657610100808354040283529160200191611451565b820191906000526020600020905b81548152906001019060200180831161143457829003601f168201915b5050505050905090565b6000611465610c29565b9050601060009054906101000a900460ff16156114b7576040517f08c379a00000000000000000000000000000000000000000000000000000000081526004016114ae90613e48565b60405180910390fd5b600082116114fa576040517f08c379a00000000000000000000000000000000000000000000000000000000081526004016114f1906140e8565b60405180910390fd5b600f5482111561153f576040517f08c379a000000000000000000000000000000000000000000000000000000000815260040161153690614048565b60405180910390fd5b600e54828261154e9190614245565b111561158f576040517f08c379a000000000000000000000000000000000000000000000000000000000815260040161158690613e88565b60405180910390fd5b61159761130d565b73ffffffffffffffffffffffffffffffffffffffff163373ffffffffffffffffffffffffffffffffffffffff161461161a5781600d546115d791906142cc565b341015611619576040517f08c379a000000000000000000000000000000000000000000000000000000000815260040161161090614088565b60405180910390fd5b5b6000600190505b8281116116505761163d3382846116389190614245565b61234e565b808061164890614442565b915050611621565b505050565b61165d611e21565b73ffffffffffffffffffffffffffffffffffffffff168273ffffffffffffffffffffffffffffffffffffffff1614156116cb576040517f08c379a00000000000000000000000000000000000000000000000000000000081526004016116c290613f08565b60405180910390fd5b80600560006116d8611e21565b73ffffffffffffffffffffffffffffffffffffffff1673ffffffffffffffffffffffffffffffffffffffff16815260200190815260200160002060008473ffffffffffffffffffffffffffffffffffffffff1673ffffffffffffffffffffffffffffffffffffffff16815260200190815260200160002060006101000a81548160ff0219169083151502179055508173ffffffffffffffffffffffffffffffffffffffff16611785611e21565b73ffffffffffffffffffffffffffffffffffffffff167f17307eab39ab6107e8899845ad3d59bd9653f200f220920489ca2b5937696c31836040516117ca9190613deb565b60405180910390a35050565b6000601060009054906101000a900460ff16905090565b6117fe6117f8611e21565b83611f4e565b61183d576040517f08c379a0000000000000000000000000000000000000000000000000000000008152600401611834906140a8565b60405180910390fd5b6118498484848461236c565b50505050565b6000600d54905090565b600c805461186690614410565b80601f016020809104026020016040519081016040528092919081815260200182805461189290614410565b80156118df5780601f106118b4576101008083540402835291602001916118df565b820191906000526020600020905b8154815290600101906020018083116118c257829003601f168201915b505050505081565b60606118f282611e29565b611931576040517f08c379a000000000000000000000000000000000000000000000000000000000815260040161192890614028565b60405180910390fd5b600061193b6123c8565b9050600081511161195b5760405180602001604052806000815250611989565b806119658461245a565b600c60405160200161197993929190613d31565b6040516020818303038152906040525b915050919050565b600e5481565b6000600f54905090565b6119a9611e21565b73ffffffffffffffffffffffffffffffffffffffff166119c761130d565b73ffffffffffffffffffffffffffffffffffffffff1614611a1d576040517f08c379a0000000000000000000000000000000000000000000000000000000008152600401611a1490613fe8565b60405180910390fd5b80600c9080519060200190611a33929190612ed5565b5050565b60606000611a44836110b5565b90506000811415611ac757600067ffffffffffffffff811115611a90577f4e487b7100000000000000000000000000000000000000000000000000000000600052604160045260246000fd5b604051908082528060200260200182016040528015611abe5781602001602082028036833780820191505090505b50915050611bae565b60008167ffffffffffffffff811115611b09577f4e487b7100000000000000000000000000000000000000000000000000000000600052604160045260246000fd5b604051908082528060200260200182016040528015611b375781602001602082028036833780820191505090505b50905060005b82811015611ba757611b4f8582610c9c565b828281518110611b88577f4e487b7100000000000000000000000000000000000000000000000000000000600052603260045260246000fd5b6020026020010181815250508080611b9f90614442565b915050611b3d565b5080925050505b919050565b6000600560008473ffffffffffffffffffffffffffffffffffffffff1673ffffffffffffffffffffffffffffffffffffffff16815260200190815260200160002060008373ffffffffffffffffffffffffffffffffffffffff1673ffffffffffffffffffffffffffffffffffffffff16815260200190815260200160002060009054906101000a900460ff16905092915050565b611c4f611e21565b73ffffffffffffffffffffffffffffffffffffffff16611c6d61130d565b73ffffffffffffffffffffffffffffffffffffffff1614611cc3576040517f08c379a0000000000000000000000000000000000000000000000000000000008152600401611cba90613fe8565b60405180910390fd5b600073ffffffffffffffffffffffffffffffffffffffff168173ffffffffffffffffffffffffffffffffffffffff161415611d33576040517f08c379a0000000000000000000000000000000000000000000000000000000008152600401611d2a90613ea8565b60405180910390fd5b611d3c81612288565b50565b60007f80ac58cd000000000000000000000000000000000000000000000000000000007bffffffffffffffffffffffffffffffffffffffffffffffffffffffff1916827bffffffffffffffffffffffffffffffffffffffffffffffffffffffff19161480611e0a57507f5b5e139f000000000000000000000000000000000000000000000000000000007bffffffffffffffffffffffffffffffffffffffffffffffffffffffff1916827bffffffffffffffffffffffffffffffffffffffffffffffffffffffff1916145b80611e1a5750611e1982612607565b5b9050919050565b600033905090565b60008073ffffffffffffffffffffffffffffffffffffffff166002600084815260200190815260200160002060009054906101000a900473ffffffffffffffffffffffffffffffffffffffff1673ffffffffffffffffffffffffffffffffffffffff1614159050919050565b816004600083815260200190815260200160002060006101000a81548173ffffffffffffffffffffffffffffffffffffffff021916908373ffffffffffffffffffffffffffffffffffffffff160217905550808273ffffffffffffffffffffffffffffffffffffffff16611f0883611003565b73ffffffffffffffffffffffffffffffffffffffff167f8c5be1e5ebec7d5bd14f71427d1e84f3dd0314c0f7b2291e5b200ac8c7c3b92560405160405180910390a45050565b6000611f5982611e29565b611f98576040517f08c379a0000000000000000000000000000000000000000000000000000000008152600401611f8f90613f28565b60405180910390fd5b6000611fa383611003565b90508073ffffffffffffffffffffffffffffffffffffffff168473ffffffffffffffffffffffffffffffffffffffff16148061201257508373ffffffffffffffffffffffffffffffffffffffff16611ffa84610a86565b73ffffffffffffffffffffffffffffffffffffffff16145b8061202357506120228185611bb3565b5b91505092915050565b8273ffffffffffffffffffffffffffffffffffffffff1661204c82611003565b73ffffffffffffffffffffffffffffffffffffffff16146120a2576040517f08c379a000000000000000000000000000000000000000000000000000000000815260040161209990614008565b60405180910390fd5b600073ffffffffffffffffffffffffffffffffffffffff168273ffffffffffffffffffffffffffffffffffffffff161415612112576040517f08c379a000000000000000000000000000000000000000000000000000000000815260040161210990613ee8565b60405180910390fd5b61211d838383612671565b612128600082611e95565b6001600360008573ffffffffffffffffffffffffffffffffffffffff1673ffffffffffffffffffffffffffffffffffffffff16815260200190815260200160002060008282546121789190614326565b925050819055506001600360008473ffffffffffffffffffffffffffffffffffffffff1673ffffffffffffffffffffffffffffffffffffffff16815260200190815260200160002060008282546121cf9190614245565b92505081905550816002600083815260200190815260200160002060006101000a81548173ffffffffffffffffffffffffffffffffffffffff021916908373ffffffffffffffffffffffffffffffffffffffff160217905550808273ffffffffffffffffffffffffffffffffffffffff168473ffffffffffffffffffffffffffffffffffffffff167fddf252ad1be2c89b69c2b068fc378daa952ba7f163c4a11628f55a4df523b3ef60405160405180910390a4505050565b6000600a60009054906101000a900473ffffffffffffffffffffffffffffffffffffffff16905081600a60006101000a81548173ffffffffffffffffffffffffffffffffffffffff021916908373ffffffffffffffffffffffffffffffffffffffff1602179055508173ffffffffffffffffffffffffffffffffffffffff168173ffffffffffffffffffffffffffffffffffffffff167f8be0079c531659141344cd1fd0a4f28419497f9722a3daafe3b4186f6b6457e060405160405180910390a35050565b612368828260405180602001604052806000815250612785565b5050565b61237784848461202c565b612383848484846127e0565b6123c2576040517f08c379a00000000000000000000000000000000000000000000000000000000081526004016123b990613e68565b60405180910390fd5b50505050565b6060600b80546123d790614410565b80601f016020809104026020016040519081016040528092919081815260200182805461240390614410565b80156124505780601f1061242557610100808354040283529160200191612450565b820191906000526020600020905b81548152906001019060200180831161243357829003601f168201915b5050505050905090565b606060008214156124a2576040518060400160405280600181526020017f30000000000000000000000000000000000000000000000000000000000000008152509050612602565b600082905060005b600082146124d45780806124bd90614442565b915050600a826124cd919061429b565b91506124aa565b60008167ffffffffffffffff811115612516577f4e487b7100000000000000000000000000000000000000000000000000000000600052604160045260246000fd5b6040519080825280601f01601f1916602001820160405280156125485781602001600182028036833780820191505090505b5090505b600085146125fb576001826125619190614326565b9150600a85612570919061448b565b603061257c9190614245565b60f81b8183815181106125b8577f4e487b7100000000000000000000000000000000000000000000000000000000600052603260045260246000fd5b60200101907effffffffffffffffffffffffffffffffffffffffffffffffffffffffffffff1916908160001a905350600a856125f4919061429b565b945061254c565b8093505050505b919050565b60007f01ffc9a7000000000000000000000000000000000000000000000000000000007bffffffffffffffffffffffffffffffffffffffffffffffffffffffff1916827bffffffffffffffffffffffffffffffffffffffffffffffffffffffff1916149050919050565b61267c838383612977565b600073ffffffffffffffffffffffffffffffffffffffff168373ffffffffffffffffffffffffffffffffffffffff1614156126bf576126ba8161297c565b6126fe565b8173ffffffffffffffffffffffffffffffffffffffff168373ffffffffffffffffffffffffffffffffffffffff16146126fd576126fc83826129c5565b5b5b600073ffffffffffffffffffffffffffffffffffffffff168273ffffffffffffffffffffffffffffffffffffffff1614156127415761273c81612b32565b612780565b8273ffffffffffffffffffffffffffffffffffffffff168273ffffffffffffffffffffffffffffffffffffffff161461277f5761277e8282612c75565b5b5b505050565b61278f8383612cf4565b61279c60008484846127e0565b6127db576040517f08c379a00000000000000000000000000000000000000000000000000000000081526004016127d290613e68565b60405180910390fd5b505050565b60006128018473ffffffffffffffffffffffffffffffffffffffff16612ec2565b1561296a578373ffffffffffffffffffffffffffffffffffffffff1663150b7a0261282a611e21565b8786866040518563ffffffff1660e01b815260040161284c9493929190613d7d565b602060405180830381600087803b15801561286657600080fd5b505af192505050801561289757506040513d601f19601f8201168201806040525081019061289491906132aa565b60015b61291a573d80600081146128c7576040519150601f19603f3d011682016040523d82523d6000602084013e6128cc565b606091505b50600081511415612912576040517f08c379a000000000000000000000000000000000000000000000000000000000815260040161290990613e68565b60405180910390fd5b805181602001fd5b63150b7a0260e01b7bffffffffffffffffffffffffffffffffffffffffffffffffffffffff1916817bffffffffffffffffffffffffffffffffffffffffffffffffffffffff19161491505061296f565b600190505b949350505050565b505050565b6008805490506009600083815260200190815260200160002081905550600881908060018154018082558091505060019003906000526020600020016000909190919091505550565b600060016129d2846110b5565b6129dc9190614326565b9050600060076000848152602001908152602001600020549050818114612ac1576000600660008673ffffffffffffffffffffffffffffffffffffffff1673ffffffffffffffffffffffffffffffffffffffff168152602001908152602001600020600084815260200190815260200160002054905080600660008773ffffffffffffffffffffffffffffffffffffffff1673ffffffffffffffffffffffffffffffffffffffff168152602001908152602001600020600084815260200190815260200160002081905550816007600083815260200190815260200160002081905550505b6007600084815260200190815260200160002060009055600660008573ffffffffffffffffffffffffffffffffffffffff1673ffffffffffffffffffffffffffffffffffffffff16815260200190815260200160002060008381526020019081526020016000206000905550505050565b60006001600880549050612b469190614326565b9050600060096000848152602001908152602001600020549050600060088381548110612b9c577f4e487b7100000000000000000000000000000000000000000000000000000000600052603260045260246000fd5b906000526020600020015490508060088381548110612be4577f4e487b7100000000000000000000000000000000000000000000000000000000600052603260045260246000fd5b906000526020600020018190555081600960008381526020019081526020016000208190555060096000858152602001908152602001600020600090556008805480612c59577f4e487b7100000000000000000000000000000000000000000000000000000000600052603160045260246000fd5b6001900381819060005260206000200160009055905550505050565b6000612c80836110b5565b905081600660008573ffffffffffffffffffffffffffffffffffffffff1673ffffffffffffffffffffffffffffffffffffffff168152602001908152602001600020600083815260200190815260200160002081905550806007600084815260200190815260200160002081905550505050565b600073ffffffffffffffffffffffffffffffffffffffff168273ffffffffffffffffffffffffffffffffffffffff161415612d64576040517f08c379a0000000000000000000000000000000000000000000000000000000008152600401612d5b90613fa8565b60405180910390fd5b612d6d81611e29565b15612dad576040517f08c379a0000000000000000000000000000000000000000000000000000000008152600401612da490613ec8565b60405180910390fd5b612db960008383612671565b6001600360008473ffffffffffffffffffffffffffffffffffffffff1673ffffffffffffffffffffffffffffffffffffffff1681526020019081526020016000206000828254612e099190614245565b92505081905550816002600083815260200190815260200160002060006101000a81548173ffffffffffffffffffffffffffffffffffffffff021916908373ffffffffffffffffffffffffffffffffffffffff160217905550808273ffffffffffffffffffffffffffffffffffffffff16600073ffffffffffffffffffffffffffffffffffffffff167fddf252ad1be2c89b69c2b068fc378daa952ba7f163c4a11628f55a4df523b3ef60405160405180910390a45050565b600080823b905060008111915050919050565b828054612ee190614410565b90600052602060002090601f016020900481019282612f035760008555612f4a565b82601f10612f1c57805160ff1916838001178555612f4a565b82800160010185558215612f4a579182015b82811115612f49578251825591602001919060010190612f2e565b5b509050612f579190612f5b565b5090565b5b80821115612f74576000816000905550600101612f5c565b5090565b6000612f8b612f8684614154565b614123565b905082815260208101848484011115612fa357600080fd5b612fae8482856143ce565b509392505050565b6000612fc9612fc484614184565b614123565b905082815260208101848484011115612fe157600080fd5b612fec8482856143ce565b509392505050565b60008135905061300381614589565b92915050565b600081359050613018816145a0565b92915050565b60008135905061302d816145b7565b92915050565b600081519050613042816145b7565b92915050565b600082601f83011261305957600080fd5b8135613069848260208601612f78565b91505092915050565b600082601f83011261308357600080fd5b8135613093848260208601612fb6565b91505092915050565b6000813590506130ab816145ce565b92915050565b6000602082840312156130c357600080fd5b60006130d184828501612ff4565b91505092915050565b600080604083850312156130ed57600080fd5b60006130fb85828601612ff4565b925050602061310c85828601612ff4565b9150509250929050565b60008060006060848603121561312b57600080fd5b600061313986828701612ff4565b935050602061314a86828701612ff4565b925050604061315b8682870161309c565b9150509250925092565b6000806000806080858703121561317b57600080fd5b600061318987828801612ff4565b945050602061319a87828801612ff4565b93505060406131ab8782880161309c565b925050606085013567ffffffffffffffff8111156131c857600080fd5b6131d487828801613048565b91505092959194509250565b600080604083850312156131f357600080fd5b600061320185828601612ff4565b925050602061321285828601613009565b9150509250929050565b6000806040838503121561322f57600080fd5b600061323d85828601612ff4565b925050602061324e8582860161309c565b9150509250929050565b60006020828403121561326a57600080fd5b600061327884828501613009565b91505092915050565b60006020828403121561329357600080fd5b60006132a18482850161301e565b91505092915050565b6000602082840312156132bc57600080fd5b60006132ca84828501613033565b91505092915050565b6000602082840312156132e557600080fd5b600082013567ffffffffffffffff8111156132ff57600080fd5b61330b84828501613072565b91505092915050565b60006020828403121561332657600080fd5b60006133348482850161309c565b91505092915050565b60006133498383613d13565b60208301905092915050565b61335e8161435a565b82525050565b600061336f826141d9565b6133798185614207565b9350613384836141b4565b8060005b838110156133b557815161339c888261333d565b97506133a7836141fa565b925050600181019050613388565b5085935050505092915050565b6133cb8161436c565b82525050565b60006133dc826141e4565b6133e68185614218565b93506133f68185602086016143dd565b6133ff81614578565b840191505092915050565b6000613415826141ef565b61341f8185614229565b935061342f8185602086016143dd565b61343881614578565b840191505092915050565b600061344e826141ef565b613458818561423a565b93506134688185602086016143dd565b80840191505092915050565b6000815461348181614410565b61348b818661423a565b945060018216600081146134a657600181146134b7576134ea565b60ff198316865281860193506134ea565b6134c0856141c4565b60005b838110156134e2578154818901526001820191506020810190506134c3565b838801955050505b50505092915050565b6000613500602b83614229565b91507f455243373231456e756d657261626c653a206f776e657220696e646578206f7560008301527f74206f6620626f756e64730000000000000000000000000000000000000000006020830152604082019050919050565b6000613566601483614229565b91507f53616c6520686173206265656e207061757365640000000000000000000000006000830152602082019050919050565b60006135a6603283614229565b91507f4552433732313a207472616e7366657220746f206e6f6e20455243373231526560008301527f63656976657220696d706c656d656e74657200000000000000000000000000006020830152604082019050919050565b600061360c602683614229565b91507f4d696e74696e672074686973206d616e7920776f756c6420657863656564207360008301527f7570706c792100000000000000000000000000000000000000000000000000006020830152604082019050919050565b6000613672602683614229565b91507f4f776e61626c653a206e6577206f776e657220697320746865207a65726f206160008301527f64647265737300000000000000000000000000000000000000000000000000006020830152604082019050919050565b60006136d8601c83614229565b91507f4552433732313a20746f6b656e20616c7265616479206d696e746564000000006000830152602082019050919050565b6000613718602483614229565b91507f4552433732313a207472616e7366657220746f20746865207a65726f2061646460008301527f72657373000000000000000000000000000000000000000000000000000000006020830152604082019050919050565b600061377e601983614229565b91507f4552433732313a20617070726f766520746f2063616c6c6572000000000000006000830152602082019050919050565b60006137be602c83614229565b91507f4552433732313a206f70657261746f7220717565727920666f72206e6f6e657860008301527f697374656e7420746f6b656e00000000000000000000000000000000000000006020830152604082019050919050565b6000613824603883614229565b91507f4552433732313a20617070726f76652063616c6c6572206973206e6f74206f7760008301527f6e6572206e6f7220617070726f76656420666f7220616c6c00000000000000006020830152604082019050919050565b600061388a602a83614229565b91507f4552433732313a2062616c616e636520717565727920666f7220746865207a6560008301527f726f2061646472657373000000000000000000000000000000000000000000006020830152604082019050919050565b60006138f0602983614229565b91507f4552433732313a206f776e657220717565727920666f72206e6f6e657869737460008301527f656e7420746f6b656e00000000000000000000000000000000000000000000006020830152604082019050919050565b6000613956602083614229565b91507f4552433732313a206d696e7420746f20746865207a65726f20616464726573736000830152602082019050919050565b6000613996602c83614229565b91507f4552433732313a20617070726f76656420717565727920666f72206e6f6e657860008301527f697374656e7420746f6b656e00000000000000000000000000000000000000006020830152604082019050919050565b60006139fc602083614229565b91507f4f776e61626c653a2063616c6c6572206973206e6f7420746865206f776e65726000830152602082019050919050565b6000613a3c602983614229565b91507f4552433732313a207472616e73666572206f6620746f6b656e2074686174206960008301527f73206e6f74206f776e00000000000000000000000000000000000000000000006020830152604082019050919050565b6000613aa2602f83614229565b91507f4552433732314d657461646174613a2055524920717565727920666f72206e6f60008301527f6e6578697374656e7420746f6b656e00000000000000000000000000000000006020830152604082019050919050565b6000613b08602f83614229565b91507f54686572652069732061206c696d6974206f6e206d696e74696e6720746f6f2060008301527f6d616e7920617420612074696d652100000000000000000000000000000000006020830152604082019050919050565b6000613b6e602183614229565b91507f4552433732313a20617070726f76616c20746f2063757272656e74206f776e6560008301527f72000000000000000000000000000000000000000000000000000000000000006020830152604082019050919050565b6000613bd4601683614229565b91507f4e6f7420656e6f7567682065746865722073656e7421000000000000000000006000830152602082019050919050565b6000613c14603183614229565b91507f4552433732313a207472616e736665722063616c6c6572206973206e6f74206f60008301527f776e6572206e6f7220617070726f7665640000000000000000000000000000006020830152604082019050919050565b6000613c7a602c83614229565b91507f455243373231456e756d657261626c653a20676c6f62616c20696e646578206f60008301527f7574206f6620626f756e647300000000000000000000000000000000000000006020830152604082019050919050565b6000613ce0601783614229565b91507f4d757374206d696e742061746c656173742031204e46540000000000000000006000830152602082019050919050565b613d1c816143c4565b82525050565b613d2b816143c4565b82525050565b6000613d3d8286613443565b9150613d498285613443565b9150613d558284613474565b9150819050949350505050565b6000602082019050613d776000830184613355565b92915050565b6000608082019050613d926000830187613355565b613d9f6020830186613355565b613dac6040830185613d22565b8181036060830152613dbe81846133d1565b905095945050505050565b60006020820190508181036000830152613de38184613364565b905092915050565b6000602082019050613e0060008301846133c2565b92915050565b60006020820190508181036000830152613e20818461340a565b905092915050565b60006020820190508181036000830152613e41816134f3565b9050919050565b60006020820190508181036000830152613e6181613559565b9050919050565b60006020820190508181036000830152613e8181613599565b9050919050565b60006020820190508181036000830152613ea1816135ff565b9050919050565b60006020820190508181036000830152613ec181613665565b9050919050565b60006020820190508181036000830152613ee1816136cb565b9050919050565b60006020820190508181036000830152613f018161370b565b9050919050565b60006020820190508181036000830152613f2181613771565b9050919050565b60006020820190508181036000830152613f41816137b1565b9050919050565b60006020820190508181036000830152613f6181613817565b9050919050565b60006020820190508181036000830152613f818161387d565b9050919050565b60006020820190508181036000830152613fa1816138e3565b9050919050565b60006020820190508181036000830152613fc181613949565b9050919050565b60006020820190508181036000830152613fe181613989565b9050919050565b60006020820190508181036000830152614001816139ef565b9050919050565b6000602082019050818103600083015261402181613a2f565b9050919050565b6000602082019050818103600083015261404181613a95565b9050919050565b6000602082019050818103600083015261406181613afb565b9050919050565b6000602082019050818103600083015261408181613b61565b9050919050565b600060208201905081810360008301526140a181613bc7565b9050919050565b600060208201905081810360008301526140c181613c07565b9050919050565b600060208201905081810360008301526140e181613c6d565b9050919050565b6000602082019050818103600083015261410181613cd3565b9050919050565b600060208201905061411d6000830184613d22565b92915050565b6000604051905081810181811067ffffffffffffffff8211171561414a57614149614549565b5b8060405250919050565b600067ffffffffffffffff82111561416f5761416e614549565b5b601f19601f8301169050602081019050919050565b600067ffffffffffffffff82111561419f5761419e614549565b5b601f19601f8301169050602081019050919050565b6000819050602082019050919050565b60008190508160005260206000209050919050565b600081519050919050565b600081519050919050565b600081519050919050565b6000602082019050919050565b600082825260208201905092915050565b600082825260208201905092915050565b600082825260208201905092915050565b600081905092915050565b6000614250826143c4565b915061425b836143c4565b9250827fffffffffffffffffffffffffffffffffffffffffffffffffffffffffffffffff038211156142905761428f6144bc565b5b828201905092915050565b60006142a6826143c4565b91506142b1836143c4565b9250826142c1576142c06144eb565b5b828204905092915050565b60006142d7826143c4565b91506142e2836143c4565b9250817fffffffffffffffffffffffffffffffffffffffffffffffffffffffffffffffff048311821515161561431b5761431a6144bc565b5b828202905092915050565b6000614331826143c4565b915061433c836143c4565b92508282101561434f5761434e6144bc565b5b828203905092915050565b6000614365826143a4565b9050919050565b60008115159050919050565b60007fffffffff0000000000000000000000000000000000000000000000000000000082169050919050565b600073ffffffffffffffffffffffffffffffffffffffff82169050919050565b6000819050919050565b82818337600083830152505050565b60005b838110156143fb5780820151818401526020810190506143e0565b8381111561440a576000848401525b50505050565b6000600282049050600182168061442857607f821691505b6020821081141561443c5761443b61451a565b5b50919050565b600061444d826143c4565b91507fffffffffffffffffffffffffffffffffffffffffffffffffffffffffffffffff8214156144805761447f6144bc565b5b600182019050919050565b6000614496826143c4565b91506144a1836143c4565b9250826144b1576144b06144eb565b5b828206905092915050565b7f4e487b7100000000000000000000000000000000000000000000000000000000600052601160045260246000fd5b7f4e487b7100000000000000000000000000000000000000000000000000000000600052601260045260246000fd5b7f4e487b7100000000000000000000000000000000000000000000000000000000600052602260045260246000fd5b7f4e487b7100000000000000000000000000000000000000000000000000000000600052604160045260246000fd5b6000601f19601f8301169050919050565b6145928161435a565b811461459d57600080fd5b50565b6145a98161436c565b81146145b457600080fd5b50565b6145c081614378565b81146145cb57600080fd5b50565b6145d7816143c4565b81146145e257600080fd5b5056fea26469706673582212201eccc26b1eb47ff0e4eae6c37f1d7d4a35d3fb38067546fdcf08c3e36e0ff06364736f6c63430008000033",
  "devdoc": {
    "kind": "dev",
    "methods": {
      "approve(address,uint256)": {
        "details": "See {IERC721-approve}."
      },
      "balanceOf(address)": {
        "details": "See {IERC721-balanceOf}."
      },
      "getApproved(uint256)": {
        "details": "See {IERC721-getApproved}."
      },
      "isApprovedForAll(address,address)": {
        "details": "See {IERC721-isApprovedForAll}."
      },
      "name()": {
        "details": "See {IERC721Metadata-name}."
      },
      "owner()": {
        "details": "Returns the address of the current owner."
      },
      "ownerOf(uint256)": {
        "details": "See {IERC721-ownerOf}."
      },
      "renounceOwnership()": {
        "details": "Leaves the contract without owner. It will not be possible to call `onlyOwner` functions anymore. Can only be called by the current owner. NOTE: Renouncing ownership will leave the contract without an owner, thereby removing any functionality that is only available to the owner."
      },
      "safeTransferFrom(address,address,uint256)": {
        "details": "See {IERC721-safeTransferFrom}."
      },
      "safeTransferFrom(address,address,uint256,bytes)": {
        "details": "See {IERC721-safeTransferFrom}."
      },
      "setApprovalForAll(address,bool)": {
        "details": "See {IERC721-setApprovalForAll}."
      },
      "supportsInterface(bytes4)": {
        "details": "See {IERC165-supportsInterface}."
      },
      "symbol()": {
        "details": "See {IERC721Metadata-symbol}."
      },
      "tokenByIndex(uint256)": {
        "details": "See {IERC721Enumerable-tokenByIndex}."
      },
      "tokenOfOwnerByIndex(address,uint256)": {
        "details": "See {IERC721Enumerable-tokenOfOwnerByIndex}."
      },
      "tokenURI(uint256)": {
        "details": "See {IERC721Metadata-tokenURI}."
      },
      "totalSupply()": {
        "details": "See {IERC721Enumerable-totalSupply}."
      },
      "transferFrom(address,address,uint256)": {
        "details": "See {IERC721-transferFrom}."
      },
      "transferOwnership(address)": {
        "details": "Transfers ownership of the contract to a new account (`newOwner`). Can only be called by the current owner."
      }
    },
    "version": 1
  },
  "userdoc": {
    "kind": "user",
    "methods": {},
    "version": 1
  },
  "storageLayout": {
    "storage": [
      {
        "astId": 129,
        "contract": "contracts/NFT.sol:NFTMEME",
        "label": "_name",
        "offset": 0,
        "slot": "0",
        "type": "t_string_storage"
      },
      {
        "astId": 131,
        "contract": "contracts/NFT.sol:NFTMEME",
        "label": "_symbol",
        "offset": 0,
        "slot": "1",
        "type": "t_string_storage"
      },
      {
        "astId": 135,
        "contract": "contracts/NFT.sol:NFTMEME",
        "label": "_owners",
        "offset": 0,
        "slot": "2",
        "type": "t_mapping(t_uint256,t_address)"
      },
      {
        "astId": 139,
        "contract": "contracts/NFT.sol:NFTMEME",
        "label": "_balances",
        "offset": 0,
        "slot": "3",
        "type": "t_mapping(t_address,t_uint256)"
      },
      {
        "astId": 143,
        "contract": "contracts/NFT.sol:NFTMEME",
        "label": "_tokenApprovals",
        "offset": 0,
        "slot": "4",
        "type": "t_mapping(t_uint256,t_address)"
      },
      {
        "astId": 149,
        "contract": "contracts/NFT.sol:NFTMEME",
        "label": "_operatorApprovals",
        "offset": 0,
        "slot": "5",
        "type": "t_mapping(t_address,t_mapping(t_address,t_bool))"
      },
      {
        "astId": 1068,
        "contract": "contracts/NFT.sol:NFTMEME",
        "label": "_ownedTokens",
        "offset": 0,
        "slot": "6",
        "type": "t_mapping(t_address,t_mapping(t_uint256,t_uint256))"
      },
      {
        "astId": 1072,
        "contract": "contracts/NFT.sol:NFTMEME",
        "label": "_ownedTokensIndex",
        "offset": 0,
        "slot": "7",
        "type": "t_mapping(t_uint256,t_uint256)"
      },
      {
        "astId": 1075,
        "contract": "contracts/NFT.sol:NFTMEME",
        "label": "_allTokens",
        "offset": 0,
        "slot": "8",
        "type": "t_array(t_uint256)dyn_storage"
      },
      {
        "astId": 1079,
        "contract": "contracts/NFT.sol:NFTMEME",
        "label": "_allTokensIndex",
        "offset": 0,
        "slot": "9",
        "type": "t_mapping(t_uint256,t_uint256)"
      },
      {
        "astId": 7,
        "contract": "contracts/NFT.sol:NFTMEME",
        "label": "_owner",
        "offset": 0,
        "slot": "10",
        "type": "t_address"
      },
      {
        "astId": 2165,
        "contract": "contracts/NFT.sol:NFTMEME",
        "label": "baseURI",
        "offset": 0,
        "slot": "11",
        "type": "t_string_storage"
      },
      {
        "astId": 2168,
        "contract": "contracts/NFT.sol:NFTMEME",
        "label": "baseExtension",
        "offset": 0,
        "slot": "12",
        "type": "t_string_storage"
      },
      {
        "astId": 2171,
        "contract": "contracts/NFT.sol:NFTMEME",
        "label": "cost",
        "offset": 0,
        "slot": "13",
        "type": "t_uint256"
      },
      {
        "astId": 2174,
        "contract": "contracts/NFT.sol:NFTMEME",
        "label": "maxSupply",
        "offset": 0,
        "slot": "14",
        "type": "t_uint256"
      },
      {
        "astId": 2177,
        "contract": "contracts/NFT.sol:NFTMEME",
        "label": "maxMintAmount",
        "offset": 0,
        "slot": "15",
        "type": "t_uint256"
      },
      {
        "astId": 2180,
        "contract": "contracts/NFT.sol:NFTMEME",
        "label": "paused",
        "offset": 0,
        "slot": "16",
        "type": "t_bool"
      }
    ],
    "types": {
      "t_address": {
        "encoding": "inplace",
        "label": "address",
        "numberOfBytes": "20"
      },
      "t_array(t_uint256)dyn_storage": {
        "base": "t_uint256",
        "encoding": "dynamic_array",
        "label": "uint256[]",
        "numberOfBytes": "32"
      },
      "t_bool": {
        "encoding": "inplace",
        "label": "bool",
        "numberOfBytes": "1"
      },
      "t_mapping(t_address,t_bool)": {
        "encoding": "mapping",
        "key": "t_address",
        "label": "mapping(address => bool)",
        "numberOfBytes": "32",
        "value": "t_bool"
      },
      "t_mapping(t_address,t_mapping(t_address,t_bool))": {
        "encoding": "mapping",
        "key": "t_address",
        "label": "mapping(address => mapping(address => bool))",
        "numberOfBytes": "32",
        "value": "t_mapping(t_address,t_bool)"
      },
      "t_mapping(t_address,t_mapping(t_uint256,t_uint256))": {
        "encoding": "mapping",
        "key": "t_address",
        "label": "mapping(address => mapping(uint256 => uint256))",
        "numberOfBytes": "32",
        "value": "t_mapping(t_uint256,t_uint256)"
      },
      "t_mapping(t_address,t_uint256)": {
        "encoding": "mapping",
        "key": "t_address",
        "label": "mapping(address => uint256)",
        "numberOfBytes": "32",
        "value": "t_uint256"
      },
      "t_mapping(t_uint256,t_address)": {
        "encoding": "mapping",
        "key": "t_uint256",
        "label": "mapping(uint256 => address)",
        "numberOfBytes": "32",
        "value": "t_address"
      },
      "t_mapping(t_uint256,t_uint256)": {
        "encoding": "mapping",
        "key": "t_uint256",
        "label": "mapping(uint256 => uint256)",
        "numberOfBytes": "32",
        "value": "t_uint256"
      },
      "t_string_storage": {
        "encoding": "bytes",
        "label": "string",
        "numberOfBytes": "32"
      },
      "t_uint256": {
        "encoding": "inplace",
        "label": "uint256",
        "numberOfBytes": "32"
      }
    }
  }
}