{
  "address": "0x534b7C57e91A8f86f6311B7637324De0dFAE05f0",
  "abi": [
    {
      "inputs": [],
      "stateMutability": "nonpayable",
      "type": "constructor"
    },
    {
      "anonymous": false,
      "inputs": [
        {
          "indexed": true,
          "internalType": "address",
          "name": "owner",
          "type": "address"
        },
        {
          "indexed": true,
          "internalType": "address",
          "name": "approved",
          "type": "address"
        },
        {
          "indexed": true,
          "internalType": "uint256",
          "name": "tokenId",
          "type": "uint256"
        }
      ],
      "name": "Approval",
      "type": "event"
    },
    {
      "anonymous": false,
      "inputs": [
        {
          "indexed": true,
          "internalType": "address",
          "name": "owner",
          "type": "address"
        },
        {
          "indexed": true,
          "internalType": "address",
          "name": "operator",
          "type": "address"
        },
        {
          "indexed": false,
          "internalType": "bool",
          "name": "approved",
          "type": "bool"
        }
      ],
      "name": "ApprovalForAll",
      "type": "event"
    },
    {
      "anonymous": false,
      "inputs": [
        {
          "indexed": true,
          "internalType": "address",
          "name": "previousOwner",
          "type": "address"
        },
        {
          "indexed": true,
          "internalType": "address",
          "name": "newOwner",
          "type": "address"
        }
      ],
      "name": "OwnershipTransferred",
      "type": "event"
    },
    {
      "anonymous": false,
      "inputs": [
        {
          "indexed": true,
          "internalType": "address",
          "name": "from",
          "type": "address"
        },
        {
          "indexed": true,
          "internalType": "address",
          "name": "to",
          "type": "address"
        },
        {
          "indexed": true,
          "internalType": "uint256",
          "name": "tokenId",
          "type": "uint256"
        }
      ],
      "name": "Transfer",
      "type": "event"
    },
    {
      "inputs": [
        {
          "internalType": "address",
          "name": "to",
          "type": "address"
        },
        {
          "internalType": "uint256",
          "name": "tokenId",
          "type": "uint256"
        }
      ],
      "name": "approve",
      "outputs": [],
      "stateMutability": "nonpayable",
      "type": "function"
    },
    {
      "inputs": [
        {
          "internalType": "address",
          "name": "owner",
          "type": "address"
        }
      ],
      "name": "balanceOf",
      "outputs": [
        {
          "internalType": "uint256",
          "name": "",
          "type": "uint256"
        }
      ],
      "stateMutability": "view",
      "type": "function"
    },
    {
      "inputs": [],
      "name": "cost",
      "outputs": [
        {
          "internalType": "uint256",
          "name": "",
          "type": "uint256"
        }
      ],
      "stateMutability": "view",
      "type": "function"
    },
    {
      "inputs": [
        {
          "internalType": "uint256",
          "name": "tokenId",
          "type": "uint256"
        }
      ],
      "name": "getApproved",
      "outputs": [
        {
          "internalType": "address",
          "name": "",
          "type": "address"
        }
      ],
      "stateMutability": "view",
      "type": "function"
    },
    {
      "inputs": [],
      "name": "getCost",
      "outputs": [
        {
          "internalType": "uint256",
          "name": "",
          "type": "uint256"
        }
      ],
      "stateMutability": "view",
      "type": "function"
    },
    {
      "inputs": [],
      "name": "getMaxMintAmount",
      "outputs": [
        {
          "internalType": "uint256",
          "name": "",
          "type": "uint256"
        }
      ],
      "stateMutability": "view",
      "type": "function"
    },
    {
      "inputs": [],
      "name": "getMaxSupply",
      "outputs": [
        {
          "internalType": "uint256",
          "name": "",
          "type": "uint256"
        }
      ],
      "stateMutability": "view",
      "type": "function"
    },
    {
      "inputs": [],
      "name": "getUriPrefix",
      "outputs": [
        {
          "internalType": "string",
          "name": "",
          "type": "string"
        }
      ],
      "stateMutability": "view",
      "type": "function"
    },
    {
      "inputs": [],
      "name": "getUriSuffix",
      "outputs": [
        {
          "internalType": "string",
          "name": "",
          "type": "string"
        }
      ],
      "stateMutability": "view",
      "type": "function"
    },
    {
      "inputs": [
        {
          "internalType": "address",
          "name": "owner",
          "type": "address"
        },
        {
          "internalType": "address",
          "name": "operator",
          "type": "address"
        }
      ],
      "name": "isApprovedForAll",
      "outputs": [
        {
          "internalType": "bool",
          "name": "",
          "type": "bool"
        }
      ],
      "stateMutability": "view",
      "type": "function"
    },
    {
      "inputs": [],
      "name": "isPaused",
      "outputs": [
        {
          "internalType": "bool",
          "name": "",
          "type": "bool"
        }
      ],
      "stateMutability": "view",
      "type": "function"
    },
    {
      "inputs": [],
      "name": "maxMintAmount",
      "outputs": [
        {
          "internalType": "uint256",
          "name": "",
          "type": "uint256"
        }
      ],
      "stateMutability": "view",
      "type": "function"
    },
    {
      "inputs": [],
      "name": "maxSupply",
      "outputs": [
        {
          "internalType": "uint256",
          "name": "",
          "type": "uint256"
        }
      ],
      "stateMutability": "view",
      "type": "function"
    },
    {
      "inputs": [],
      "name": "merkleRoot",
      "outputs": [
        {
          "internalType": "bytes32",
          "name": "",
          "type": "bytes32"
        }
      ],
      "stateMutability": "view",
      "type": "function"
    },
    {
      "inputs": [
        {
          "internalType": "uint256",
          "name": "_mintAmount",
          "type": "uint256"
        }
      ],
      "name": "mint",
      "outputs": [],
      "stateMutability": "payable",
      "type": "function"
    },
    {
      "inputs": [],
      "name": "name",
      "outputs": [
        {
          "internalType": "string",
          "name": "",
          "type": "string"
        }
      ],
      "stateMutability": "view",
      "type": "function"
    },
    {
      "inputs": [],
      "name": "owner",
      "outputs": [
        {
          "internalType": "address",
          "name": "",
          "type": "address"
        }
      ],
      "stateMutability": "view",
      "type": "function"
    },
    {
      "inputs": [
        {
          "internalType": "uint256",
          "name": "tokenId",
          "type": "uint256"
        }
      ],
      "name": "ownerOf",
      "outputs": [
        {
          "internalType": "address",
          "name": "",
          "type": "address"
        }
      ],
      "stateMutability": "view",
      "type": "function"
    },
    {
      "inputs": [],
      "name": "paused",
      "outputs": [
        {
          "internalType": "bool",
          "name": "",
          "type": "bool"
        }
      ],
      "stateMutability": "view",
      "type": "function"
    },
    {
      "inputs": [],
      "name": "renounceOwnership",
      "outputs": [],
      "stateMutability": "nonpayable",
      "type": "function"
    },
    {
      "inputs": [
        {
          "internalType": "address",
          "name": "from",
          "type": "address"
        },
        {
          "internalType": "address",
          "name": "to",
          "type": "address"
        },
        {
          "internalType": "uint256",
          "name": "tokenId",
          "type": "uint256"
        }
      ],
      "name": "safeTransferFrom",
      "outputs": [],
      "stateMutability": "nonpayable",
      "type": "function"
    },
    {
      "inputs": [
        {
          "internalType": "address",
          "name": "from",
          "type": "address"
        },
        {
          "internalType": "address",
          "name": "to",
          "type": "address"
        },
        {
          "internalType": "uint256",
          "name": "tokenId",
          "type": "uint256"
        },
        {
          "internalType": "bytes",
          "name": "_data",
          "type": "bytes"
        }
      ],
      "name": "safeTransferFrom",
      "outputs": [],
      "stateMutability": "nonpayable",
      "type": "function"
    },
    {
      "inputs": [
        {
          "internalType": "address",
          "name": "operator",
          "type": "address"
        },
        {
          "internalType": "bool",
          "name": "approved",
          "type": "bool"
        }
      ],
      "name": "setApprovalForAll",
      "outputs": [],
      "stateMutability": "nonpayable",
      "type": "function"
    },
    {
      "inputs": [
        {
          "internalType": "uint256",
          "name": "_newCost",
          "type": "uint256"
        }
      ],
      "name": "setCost",
      "outputs": [],
      "stateMutability": "nonpayable",
      "type": "function"
    },
    {
      "inputs": [
        {
          "internalType": "bytes32",
          "name": "_newMerkleRoot",
          "type": "bytes32"
        }
      ],
      "name": "setMerkleRoot",
      "outputs": [],
      "stateMutability": "nonpayable",
      "type": "function"
    },
    {
      "inputs": [
        {
          "internalType": "bool",
          "name": "_state",
          "type": "bool"
        }
      ],
      "name": "setPause",
      "outputs": [],
      "stateMutability": "nonpayable",
      "type": "function"
    },
    {
      "inputs": [
        {
          "internalType": "string",
          "name": "_uriPrefix",
          "type": "string"
        }
      ],
      "name": "setUriPrefix",
      "outputs": [],
      "stateMutability": "nonpayable",
      "type": "function"
    },
    {
      "inputs": [
        {
          "internalType": "string",
          "name": "_uriSuffix",
          "type": "string"
        }
      ],
      "name": "setUriSuffix",
      "outputs": [],
      "stateMutability": "nonpayable",
      "type": "function"
    },
    {
      "inputs": [
        {
          "internalType": "uint256",
          "name": "_newmaxMintAmount",
          "type": "uint256"
        }
      ],
      "name": "setmaxMintAmount",
      "outputs": [],
      "stateMutability": "nonpayable",
      "type": "function"
    },
    {
      "inputs": [
        {
          "internalType": "bytes4",
          "name": "interfaceId",
          "type": "bytes4"
        }
      ],
      "name": "supportsInterface",
      "outputs": [
        {
          "internalType": "bool",
          "name": "",
          "type": "bool"
        }
      ],
      "stateMutability": "view",
      "type": "function"
    },
    {
      "inputs": [],
      "name": "symbol",
      "outputs": [
        {
          "internalType": "string",
          "name": "",
          "type": "string"
        }
      ],
      "stateMutability": "view",
      "type": "function"
    },
    {
      "inputs": [
        {
          "internalType": "uint256",
          "name": "_tokenId",
          "type": "uint256"
        }
      ],
      "name": "tokenURI",
      "outputs": [
        {
          "internalType": "string",
          "name": "",
          "type": "string"
        }
      ],
      "stateMutability": "view",
      "type": "function"
    },
    {
      "inputs": [],
      "name": "totalSupply",
      "outputs": [
        {
          "internalType": "uint256",
          "name": "",
          "type": "uint256"
        }
      ],
      "stateMutability": "view",
      "type": "function"
    },
    {
      "inputs": [
        {
          "internalType": "address",
          "name": "from",
          "type": "address"
        },
        {
          "internalType": "address",
          "name": "to",
          "type": "address"
        },
        {
          "internalType": "uint256",
          "name": "tokenId",
          "type": "uint256"
        }
      ],
      "name": "transferFrom",
      "outputs": [],
      "stateMutability": "nonpayable",
      "type": "function"
    },
    {
      "inputs": [
        {
          "internalType": "address",
          "name": "newOwner",
          "type": "address"
        }
      ],
      "name": "transferOwnership",
      "outputs": [],
      "stateMutability": "nonpayable",
      "type": "function"
    },
    {
      "inputs": [],
      "name": "uriPrefix",
      "outputs": [
        {
          "internalType": "string",
          "name": "",
          "type": "string"
        }
      ],
      "stateMutability": "view",
      "type": "function"
    },
    {
      "inputs": [],
      "name": "uriSuffix",
      "outputs": [
        {
          "internalType": "string",
          "name": "",
          "type": "string"
        }
      ],
      "stateMutability": "view",
      "type": "function"
    },
    {
      "inputs": [
        {
          "internalType": "address",
          "name": "_owner",
          "type": "address"
        }
      ],
      "name": "walletOfOwner",
      "outputs": [
        {
          "internalType": "uint256[]",
          "name": "",
          "type": "uint256[]"
        }
      ],
      "stateMutability": "view",
      "type": "function"
    },
    {
      "inputs": [
        {
          "internalType": "bytes32[]",
          "name": "_merkleProof",
          "type": "bytes32[]"
        },
        {
          "internalType": "uint256",
          "name": "_mintAmount",
          "type": "uint256"
        }
      ],
      "name": "whiteListMint",
      "outputs": [],
      "stateMutability": "payable",
      "type": "function"
    },
    {
      "inputs": [
        {
          "internalType": "address",
          "name": "",
          "type": "address"
        }
      ],
      "name": "whitelistClaimed",
      "outputs": [
        {
          "internalType": "bool",
          "name": "",
          "type": "bool"
        }
      ],
      "stateMutability": "view",
      "type": "function"
    },
    {
      "inputs": [],
      "name": "withdraw",
      "outputs": [],
      "stateMutability": "nonpayable",
      "type": "function"
    },
    {
      "inputs": [
        {
          "internalType": "uint256",
          "name": "_mintAmount",
          "type": "uint256"
        },
        {
          "internalType": "address",
          "name": "_reciever",
          "type": "address"
        }
      ],
      "name": "zeroCostMint",
      "outputs": [],
      "stateMutability": "nonpayable",
      "type": "function"
    }
  ],
  "transactionHash": "0xf5cec36dba12b8a73185a1377a670a407fb741e0bf2abd4f679a5e5a92585977",
  "args": [],
  "solcInputHash": "6243df972052fe81dda7b7967e362c7d",
  "bytecode": "0x608060405260405180602001604052806000815250600890805190602001906200002b92919062000373565b506040518060400160405280600581526020017f2e6a736f6e000000000000000000000000000000000000000000000000000000815250600990805190602001906200007992919062000373565b5066f5232269808000600a55611b39600b55600f600c556000600d60006101000a81548160ff0219169083151502179055507f53c4e5e25bcbb26b82784b9793d8a74a02719aabab34c2d0358b26231e2f4bbe60001b600e55348015620000df57600080fd5b506040518060400160405280600681526020017f74657374307800000000000000000000000000000000000000000000000000008152506040518060400160405280600381526020017f743078000000000000000000000000000000000000000000000000000000000081525081600090805190602001906200016492919062000373565b5080600190805190602001906200017d92919062000373565b505050620001a062000194620001d060201b60201c565b620001d860201b60201c565b620001ca60405180606001604052806036815260200162004caf603691396200029e60201b60201c565b620004fd565b600033905090565b6000600660009054906101000a900473ffffffffffffffffffffffffffffffffffffffff16905081600660006101000a81548173ffffffffffffffffffffffffffffffffffffffff021916908373ffffffffffffffffffffffffffffffffffffffff1602179055508173ffffffffffffffffffffffffffffffffffffffff168173ffffffffffffffffffffffffffffffffffffffff167f8be0079c531659141344cd1fd0a4f28419497f9722a3daafe3b4186f6b6457e060405160405180910390a35050565b620002ae620001d060201b60201c565b73ffffffffffffffffffffffffffffffffffffffff16620002d46200034960201b60201c565b73ffffffffffffffffffffffffffffffffffffffff16146200032d576040517f08c379a0000000000000000000000000000000000000000000000000000000008152600401620003249062000465565b60405180910390fd5b80600890805190602001906200034592919062000373565b5050565b6000600660009054906101000a900473ffffffffffffffffffffffffffffffffffffffff16905090565b828054620003819062000498565b90600052602060002090601f016020900481019282620003a55760008555620003f1565b82601f10620003c057805160ff1916838001178555620003f1565b82800160010185558215620003f1579182015b82811115620003f0578251825591602001919060010190620003d3565b5b50905062000400919062000404565b5090565b5b808211156200041f57600081600090555060010162000405565b5090565b60006200043260208362000487565b91507f4f776e61626c653a2063616c6c6572206973206e6f7420746865206f776e65726000830152602082019050919050565b60006020820190508181036000830152620004808162000423565b9050919050565b600082825260208201905092915050565b60006002820490506001821680620004b157607f821691505b60208210811415620004c857620004c7620004ce565b5b50919050565b7f4e487b7100000000000000000000000000000000000000000000000000000000600052602260045260246000fd5b6147a2806200050d6000396000f3fe6080604052600436106102515760003560e01c8063715018a611610139578063b88d4fde116100b6578063d1d647941161007a578063d1d6479414610870578063d5abeb011461089b578063d6e7b8e4146108c6578063db4bec44146108f1578063e985e9c51461092e578063f2fde38b1461096b57610251565b8063b88d4fde1461079a578063bd3e19d4146107c3578063bedb86fb146107ee578063c30bf31814610817578063c87b56dd1461083357610251565b806395d89b41116100fd57806395d89b41146106d4578063a0712d68146106ff578063a22cb4651461071b578063ae7c5f7614610744578063b187bd261461076f57610251565b8063715018a6146106175780637cb647591461062e5780637ec4a659146106575780637f00c7a6146106805780638da5cb5b146106a957610251565b80632eb4a7ab116101d25780634c0f38c2116101965780634c0f38c2146104f15780635503a0e81461051c5780635c975abb1461054757806362b99ad4146105725780636352211e1461059d57806370a08231146105da57610251565b80632eb4a7ab146104205780633ccfd60b1461044b57806342842e0e14610462578063438b63001461048b57806344a0d68a146104c857610251565b806316ba10e01161021957806316ba10e01461034f57806318160ddd1461037857806322f6451a146103a3578063239c70ae146103cc57806323b872dd146103f757610251565b806301ffc9a71461025657806306fdde0314610293578063081812fc146102be578063095ea7b3146102fb57806313faede614610324575b600080fd5b34801561026257600080fd5b5061027d60048036038101906102789190613369565b610994565b60405161028a9190613efb565b60405180910390f35b34801561029f57600080fd5b506102a8610a76565b6040516102b59190613f31565b60405180910390f35b3480156102ca57600080fd5b506102e560048036038101906102e091906133fc565b610b08565b6040516102f29190613e72565b60405180910390f35b34801561030757600080fd5b50610322600480360381019061031d9190613283565b610b8d565b005b34801561033057600080fd5b50610339610ca5565b6040516103469190614233565b60405180910390f35b34801561035b57600080fd5b50610376600480360381019061037191906133bb565b610cab565b005b34801561038457600080fd5b5061038d610d41565b60405161039a9190614233565b60405180910390f35b3480156103af57600080fd5b506103ca60048036038101906103c59190613425565b610d52565b005b3480156103d857600080fd5b506103e1610e88565b6040516103ee9190614233565b60405180910390f35b34801561040357600080fd5b5061041e6004803603810190610419919061317d565b610e8e565b005b34801561042c57600080fd5b50610435610eee565b6040516104429190613f16565b60405180910390f35b34801561045757600080fd5b50610460610ef4565b005b34801561046e57600080fd5b506104896004803603810190610484919061317d565b610fc6565b005b34801561049757600080fd5b506104b260048036038101906104ad9190613118565b610fe6565b6040516104bf9190613ed9565b60405180910390f35b3480156104d457600080fd5b506104ef60048036038101906104ea91906133fc565b61113d565b005b3480156104fd57600080fd5b506105066111c3565b6040516105139190614233565b60405180910390f35b34801561052857600080fd5b506105316111cd565b60405161053e9190613f31565b60405180910390f35b34801561055357600080fd5b5061055c61125b565b6040516105699190613efb565b60405180910390f35b34801561057e57600080fd5b5061058761126e565b6040516105949190613f31565b60405180910390f35b3480156105a957600080fd5b506105c460048036038101906105bf91906133fc565b6112fc565b6040516105d19190613e72565b60405180910390f35b3480156105e657600080fd5b5061060160048036038101906105fc9190613118565b6113ae565b60405161060e9190614233565b60405180910390f35b34801561062357600080fd5b5061062c611466565b005b34801561063a57600080fd5b5061065560048036038101906106509190613340565b6114ee565b005b34801561066357600080fd5b5061067e600480360381019061067991906133bb565b611574565b005b34801561068c57600080fd5b506106a760048036038101906106a291906133fc565b61160a565b005b3480156106b557600080fd5b506106be611690565b6040516106cb9190613e72565b60405180910390f35b3480156106e057600080fd5b506106e96116ba565b6040516106f69190613f31565b60405180910390f35b610719600480360381019061071491906133fc565b61174c565b005b34801561072757600080fd5b50610742600480360381019061073d9190613247565b6118a5565b005b34801561075057600080fd5b50610759611a26565b6040516107669190613f31565b60405180910390f35b34801561077b57600080fd5b50610784611ab8565b6040516107919190613efb565b60405180910390f35b3480156107a657600080fd5b506107c160048036038101906107bc91906131cc565b611acf565b005b3480156107cf57600080fd5b506107d8611b31565b6040516107e59190614233565b60405180910390f35b3480156107fa57600080fd5b5061081560048036038101906108109190613317565b611b3b565b005b610831600480360381019061082c91906132bf565b611bd4565b005b34801561083f57600080fd5b5061085a600480360381019061085591906133fc565b611e7d565b6040516108679190613f31565b60405180910390f35b34801561087c57600080fd5b50610885611f27565b6040516108929190613f31565b60405180910390f35b3480156108a757600080fd5b506108b0611fb9565b6040516108bd9190614233565b60405180910390f35b3480156108d257600080fd5b506108db611fbf565b6040516108e89190614233565b60405180910390f35b3480156108fd57600080fd5b5061091860048036038101906109139190613118565b611fc9565b6040516109259190613efb565b60405180910390f35b34801561093a57600080fd5b5061095560048036038101906109509190613141565b611fe9565b6040516109629190613efb565b60405180910390f35b34801561097757600080fd5b50610992600480360381019061098d9190613118565b61207d565b005b60007f80ac58cd000000000000000000000000000000000000000000000000000000007bffffffffffffffffffffffffffffffffffffffffffffffffffffffff1916827bffffffffffffffffffffffffffffffffffffffffffffffffffffffff19161480610a5f57507f5b5e139f000000000000000000000000000000000000000000000000000000007bffffffffffffffffffffffffffffffffffffffffffffffffffffffff1916827bffffffffffffffffffffffffffffffffffffffffffffffffffffffff1916145b80610a6f5750610a6e82612175565b5b9050919050565b606060008054610a8590614545565b80601f0160208091040260200160405190810160405280929190818152602001828054610ab190614545565b8015610afe5780601f10610ad357610100808354040283529160200191610afe565b820191906000526020600020905b815481529060010190602001808311610ae157829003601f168201915b5050505050905090565b6000610b13826121df565b610b52576040517f08c379a0000000000000000000000000000000000000000000000000000000008152600401610b49906140f3565b60405180910390fd5b6004600083815260200190815260200160002060009054906101000a900473ffffffffffffffffffffffffffffffffffffffff169050919050565b6000610b98826112fc565b90508073ffffffffffffffffffffffffffffffffffffffff168373ffffffffffffffffffffffffffffffffffffffff161415610c09576040517f08c379a0000000000000000000000000000000000000000000000000000000008152600401610c00906141b3565b60405180910390fd5b8073ffffffffffffffffffffffffffffffffffffffff16610c2861224b565b73ffffffffffffffffffffffffffffffffffffffff161480610c575750610c5681610c5161224b565b611fe9565b5b610c96576040517f08c379a0000000000000000000000000000000000000000000000000000000008152600401610c8d90614053565b60405180910390fd5b610ca08383612253565b505050565b600a5481565b610cb361224b565b73ffffffffffffffffffffffffffffffffffffffff16610cd1611690565b73ffffffffffffffffffffffffffffffffffffffff1614610d27576040517f08c379a0000000000000000000000000000000000000000000000000000000008152600401610d1e90614133565b60405180910390fd5b8060099080519060200190610d3d929190612edd565b5050565b6000610d4d600761230c565b905090565b81600081118015610d655750600c548111155b610da4576040517f08c379a0000000000000000000000000000000000000000000000000000000008152600401610d9b90614113565b60405180910390fd5b600b5481610db2600761230c565b610dbc9190614370565b1115610dfd576040517f08c379a0000000000000000000000000000000000000000000000000000000008152600401610df490614213565b60405180910390fd5b610e0561224b565b73ffffffffffffffffffffffffffffffffffffffff16610e23611690565b73ffffffffffffffffffffffffffffffffffffffff1614610e79576040517f08c379a0000000000000000000000000000000000000000000000000000000008152600401610e7090614133565b60405180910390fd5b610e83828461231a565b505050565b600c5481565b610e9f610e9961224b565b8261235a565b610ede576040517f08c379a0000000000000000000000000000000000000000000000000000000008152600401610ed5906141d3565b60405180910390fd5b610ee9838383612438565b505050565b600e5481565b610efc61224b565b73ffffffffffffffffffffffffffffffffffffffff16610f1a611690565b73ffffffffffffffffffffffffffffffffffffffff1614610f70576040517f08c379a0000000000000000000000000000000000000000000000000000000008152600401610f6790614133565b60405180910390fd5b6000610f7a611690565b90508073ffffffffffffffffffffffffffffffffffffffff166108fc479081150290604051600060405180830381858888f19350505050158015610fc2573d6000803e3d6000fd5b5050565b610fe183838360405180602001604052806000815250611acf565b505050565b60606000610ff3836113ae565b905060008167ffffffffffffffff811115611037577f4e487b7100000000000000000000000000000000000000000000000000000000600052604160045260246000fd5b6040519080825280602002602001820160405280156110655781602001602082028036833780820191505090505b50905060006001905060005b83811080156110825750600b548211155b15611131576000611092836112fc565b90508673ffffffffffffffffffffffffffffffffffffffff168173ffffffffffffffffffffffffffffffffffffffff16141561111d5782848381518110611102577f4e487b7100000000000000000000000000000000000000000000000000000000600052603260045260246000fd5b602002602001018181525050818061111990614577565b9250505b828061112890614577565b93505050611071565b82945050505050919050565b61114561224b565b73ffffffffffffffffffffffffffffffffffffffff16611163611690565b73ffffffffffffffffffffffffffffffffffffffff16146111b9576040517f08c379a00000000000000000000000000000000000000000000000000000000081526004016111b090614133565b60405180910390fd5b80600a8190555050565b6000600b54905090565b600980546111da90614545565b80601f016020809104026020016040519081016040528092919081815260200182805461120690614545565b80156112535780601f1061122857610100808354040283529160200191611253565b820191906000526020600020905b81548152906001019060200180831161123657829003601f168201915b505050505081565b600d60009054906101000a900460ff1681565b6008805461127b90614545565b80601f01602080910402602001604051908101604052809291908181526020018280546112a790614545565b80156112f45780601f106112c9576101008083540402835291602001916112f4565b820191906000526020600020905b8154815290600101906020018083116112d757829003601f168201915b505050505081565b6000806002600084815260200190815260200160002060009054906101000a900473ffffffffffffffffffffffffffffffffffffffff169050600073ffffffffffffffffffffffffffffffffffffffff168173ffffffffffffffffffffffffffffffffffffffff1614156113a5576040517f08c379a000000000000000000000000000000000000000000000000000000000815260040161139c90614093565b60405180910390fd5b80915050919050565b60008073ffffffffffffffffffffffffffffffffffffffff168273ffffffffffffffffffffffffffffffffffffffff16141561141f576040517f08c379a000000000000000000000000000000000000000000000000000000000815260040161141690614073565b60405180910390fd5b600360008373ffffffffffffffffffffffffffffffffffffffff1673ffffffffffffffffffffffffffffffffffffffff168152602001908152602001600020549050919050565b61146e61224b565b73ffffffffffffffffffffffffffffffffffffffff1661148c611690565b73ffffffffffffffffffffffffffffffffffffffff16146114e2576040517f08c379a00000000000000000000000000000000000000000000000000000000081526004016114d990614133565b60405180910390fd5b6114ec6000612694565b565b6114f661224b565b73ffffffffffffffffffffffffffffffffffffffff16611514611690565b73ffffffffffffffffffffffffffffffffffffffff161461156a576040517f08c379a000000000000000000000000000000000000000000000000000000000815260040161156190614133565b60405180910390fd5b80600e8190555050565b61157c61224b565b73ffffffffffffffffffffffffffffffffffffffff1661159a611690565b73ffffffffffffffffffffffffffffffffffffffff16146115f0576040517f08c379a00000000000000000000000000000000000000000000000000000000081526004016115e790614133565b60405180910390fd5b8060089080519060200190611606929190612edd565b5050565b61161261224b565b73ffffffffffffffffffffffffffffffffffffffff16611630611690565b73ffffffffffffffffffffffffffffffffffffffff1614611686576040517f08c379a000000000000000000000000000000000000000000000000000000000815260040161167d90614133565b60405180910390fd5b80600c8190555050565b6000600660009054906101000a900473ffffffffffffffffffffffffffffffffffffffff16905090565b6060600180546116c990614545565b80601f01602080910402602001604051908101604052809291908181526020018280546116f590614545565b80156117425780601f1061171757610100808354040283529160200191611742565b820191906000526020600020905b81548152906001019060200180831161172557829003601f168201915b5050505050905090565b8060008111801561175f5750600c548111155b61179e576040517f08c379a000000000000000000000000000000000000000000000000000000000815260040161179590614113565b60405180910390fd5b600b54816117ac600761230c565b6117b69190614370565b11156117f7576040517f08c379a00000000000000000000000000000000000000000000000000000000081526004016117ee90614213565b60405180910390fd5b600d60009054906101000a900460ff1615611847576040517f08c379a000000000000000000000000000000000000000000000000000000000815260040161183e906140d3565b60405180910390fd5b81600a5461185591906143f7565b341015611897576040517f08c379a000000000000000000000000000000000000000000000000000000000815260040161188e906141f3565b60405180910390fd5b6118a1338361231a565b5050565b6118ad61224b565b73ffffffffffffffffffffffffffffffffffffffff168273ffffffffffffffffffffffffffffffffffffffff16141561191b576040517f08c379a000000000000000000000000000000000000000000000000000000000815260040161191290613ff3565b60405180910390fd5b806005600061192861224b565b73ffffffffffffffffffffffffffffffffffffffff1673ffffffffffffffffffffffffffffffffffffffff16815260200190815260200160002060008473ffffffffffffffffffffffffffffffffffffffff1673ffffffffffffffffffffffffffffffffffffffff16815260200190815260200160002060006101000a81548160ff0219169083151502179055508173ffffffffffffffffffffffffffffffffffffffff166119d561224b565b73ffffffffffffffffffffffffffffffffffffffff167f17307eab39ab6107e8899845ad3d59bd9653f200f220920489ca2b5937696c3183604051611a1a9190613efb565b60405180910390a35050565b606060088054611a3590614545565b80601f0160208091040260200160405190810160405280929190818152602001828054611a6190614545565b8015611aae5780601f10611a8357610100808354040283529160200191611aae565b820191906000526020600020905b815481529060010190602001808311611a9157829003601f168201915b5050505050905090565b6000600d60009054906101000a900460ff16905090565b611ae0611ada61224b565b8361235a565b611b1f576040517f08c379a0000000000000000000000000000000000000000000000000000000008152600401611b16906141d3565b60405180910390fd5b611b2b8484848461275a565b50505050565b6000600a54905090565b611b4361224b565b73ffffffffffffffffffffffffffffffffffffffff16611b61611690565b73ffffffffffffffffffffffffffffffffffffffff1614611bb7576040517f08c379a0000000000000000000000000000000000000000000000000000000008152600401611bae90614133565b60405180910390fd5b80600d60006101000a81548160ff02191690831515021790555050565b80600081118015611be75750600c548111155b611c26576040517f08c379a0000000000000000000000000000000000000000000000000000000008152600401611c1d90614113565b60405180910390fd5b600b5481611c34600761230c565b611c3e9190614370565b1115611c7f576040517f08c379a0000000000000000000000000000000000000000000000000000000008152600401611c7690614213565b60405180910390fd5b600d60009054906101000a900460ff1615611ccf576040517f08c379a0000000000000000000000000000000000000000000000000000000008152600401611cc690613f73565b60405180910390fd5b600f60003373ffffffffffffffffffffffffffffffffffffffff1673ffffffffffffffffffffffffffffffffffffffff16815260200190815260200160002060009054906101000a900460ff1615611d5c576040517f08c379a0000000000000000000000000000000000000000000000000000000008152600401611d5390614153565b60405180910390fd5b600033604051602001611d6f9190613dfa565b604051602081830303815290604052805190602001209050611dd5858580806020026020016040519081016040528093929190818152602001838360200280828437600081840152601f19601f82011690508083019250505050505050600e54836127b6565b611e14576040517f08c379a0000000000000000000000000000000000000000000000000000000008152600401611e0b90614033565b60405180910390fd5b6001600f60003373ffffffffffffffffffffffffffffffffffffffff1673ffffffffffffffffffffffffffffffffffffffff16815260200190815260200160002060006101000a81548160ff021916908315150217905550611e76338461231a565b5050505050565b6060611e88826121df565b611ec7576040517f08c379a0000000000000000000000000000000000000000000000000000000008152600401611ebe90614193565b60405180910390fd5b6000611ed1612892565b90506000815111611ef15760405180602001604052806000815250611f1f565b80611efb84612924565b6009604051602001611f0f93929190613e41565b6040516020818303038152906040525b915050919050565b606060098054611f3690614545565b80601f0160208091040260200160405190810160405280929190818152602001828054611f6290614545565b8015611faf5780601f10611f8457610100808354040283529160200191611faf565b820191906000526020600020905b815481529060010190602001808311611f9257829003601f168201915b5050505050905090565b600b5481565b6000600c54905090565b600f6020528060005260406000206000915054906101000a900460ff1681565b6000600560008473ffffffffffffffffffffffffffffffffffffffff1673ffffffffffffffffffffffffffffffffffffffff16815260200190815260200160002060008373ffffffffffffffffffffffffffffffffffffffff1673ffffffffffffffffffffffffffffffffffffffff16815260200190815260200160002060009054906101000a900460ff16905092915050565b61208561224b565b73ffffffffffffffffffffffffffffffffffffffff166120a3611690565b73ffffffffffffffffffffffffffffffffffffffff16146120f9576040517f08c379a00000000000000000000000000000000000000000000000000000000081526004016120f090614133565b60405180910390fd5b600073ffffffffffffffffffffffffffffffffffffffff168173ffffffffffffffffffffffffffffffffffffffff161415612169576040517f08c379a000000000000000000000000000000000000000000000000000000000815260040161216090613f93565b60405180910390fd5b61217281612694565b50565b60007f01ffc9a7000000000000000000000000000000000000000000000000000000007bffffffffffffffffffffffffffffffffffffffffffffffffffffffff1916827bffffffffffffffffffffffffffffffffffffffffffffffffffffffff1916149050919050565b60008073ffffffffffffffffffffffffffffffffffffffff166002600084815260200190815260200160002060009054906101000a900473ffffffffffffffffffffffffffffffffffffffff1673ffffffffffffffffffffffffffffffffffffffff1614159050919050565b600033905090565b816004600083815260200190815260200160002060006101000a81548173ffffffffffffffffffffffffffffffffffffffff021916908373ffffffffffffffffffffffffffffffffffffffff160217905550808273ffffffffffffffffffffffffffffffffffffffff166122c6836112fc565b73ffffffffffffffffffffffffffffffffffffffff167f8c5be1e5ebec7d5bd14f71427d1e84f3dd0314c0f7b2291e5b200ac8c7c3b92560405160405180910390a45050565b600081600001549050919050565b60005b818110156123555761232f6007612ad1565b6123428361233d600761230c565b612ae7565b808061234d90614577565b91505061231d565b505050565b6000612365826121df565b6123a4576040517f08c379a000000000000000000000000000000000000000000000000000000000815260040161239b90614013565b60405180910390fd5b60006123af836112fc565b90508073ffffffffffffffffffffffffffffffffffffffff168473ffffffffffffffffffffffffffffffffffffffff16148061241e57508373ffffffffffffffffffffffffffffffffffffffff1661240684610b08565b73ffffffffffffffffffffffffffffffffffffffff16145b8061242f575061242e8185611fe9565b5b91505092915050565b8273ffffffffffffffffffffffffffffffffffffffff16612458826112fc565b73ffffffffffffffffffffffffffffffffffffffff16146124ae576040517f08c379a00000000000000000000000000000000000000000000000000000000081526004016124a590614173565b60405180910390fd5b600073ffffffffffffffffffffffffffffffffffffffff168273ffffffffffffffffffffffffffffffffffffffff16141561251e576040517f08c379a000000000000000000000000000000000000000000000000000000000815260040161251590613fd3565b60405180910390fd5b612529838383612b05565b612534600082612253565b6001600360008573ffffffffffffffffffffffffffffffffffffffff1673ffffffffffffffffffffffffffffffffffffffff16815260200190815260200160002060008282546125849190614451565b925050819055506001600360008473ffffffffffffffffffffffffffffffffffffffff1673ffffffffffffffffffffffffffffffffffffffff16815260200190815260200160002060008282546125db9190614370565b92505081905550816002600083815260200190815260200160002060006101000a81548173ffffffffffffffffffffffffffffffffffffffff021916908373ffffffffffffffffffffffffffffffffffffffff160217905550808273ffffffffffffffffffffffffffffffffffffffff168473ffffffffffffffffffffffffffffffffffffffff167fddf252ad1be2c89b69c2b068fc378daa952ba7f163c4a11628f55a4df523b3ef60405160405180910390a4505050565b6000600660009054906101000a900473ffffffffffffffffffffffffffffffffffffffff16905081600660006101000a81548173ffffffffffffffffffffffffffffffffffffffff021916908373ffffffffffffffffffffffffffffffffffffffff1602179055508173ffffffffffffffffffffffffffffffffffffffff168173ffffffffffffffffffffffffffffffffffffffff167f8be0079c531659141344cd1fd0a4f28419497f9722a3daafe3b4186f6b6457e060405160405180910390a35050565b612765848484612438565b61277184848484612b0a565b6127b0576040517f08c379a00000000000000000000000000000000000000000000000000000000081526004016127a790613f53565b60405180910390fd5b50505050565b60008082905060005b8551811015612884576000868281518110612803577f4e487b7100000000000000000000000000000000000000000000000000000000600052603260045260246000fd5b60200260200101519050808311612844578281604051602001612827929190613e15565b604051602081830303815290604052805190602001209250612870565b8083604051602001612857929190613e15565b6040516020818303038152906040528051906020012092505b50808061287c90614577565b9150506127bf565b508381149150509392505050565b6060600880546128a190614545565b80601f01602080910402602001604051908101604052809291908181526020018280546128cd90614545565b801561291a5780601f106128ef5761010080835404028352916020019161291a565b820191906000526020600020905b8154815290600101906020018083116128fd57829003601f168201915b5050505050905090565b6060600082141561296c576040518060400160405280600181526020017f30000000000000000000000000000000000000000000000000000000000000008152509050612acc565b600082905060005b6000821461299e57808061298790614577565b915050600a8261299791906143c6565b9150612974565b60008167ffffffffffffffff8111156129e0577f4e487b7100000000000000000000000000000000000000000000000000000000600052604160045260246000fd5b6040519080825280601f01601f191660200182016040528015612a125781602001600182028036833780820191505090505b5090505b60008514612ac557600182612a2b9190614451565b9150600a85612a3a91906145ee565b6030612a469190614370565b60f81b818381518110612a82577f4e487b7100000000000000000000000000000000000000000000000000000000600052603260045260246000fd5b60200101907effffffffffffffffffffffffffffffffffffffffffffffffffffffffffffff1916908160001a905350600a85612abe91906143c6565b9450612a16565b8093505050505b919050565b6001816000016000828254019250508190555050565b612b01828260405180602001604052806000815250612ca1565b5050565b505050565b6000612b2b8473ffffffffffffffffffffffffffffffffffffffff16612cfc565b15612c94578373ffffffffffffffffffffffffffffffffffffffff1663150b7a02612b5461224b565b8786866040518563ffffffff1660e01b8152600401612b769493929190613e8d565b602060405180830381600087803b158015612b9057600080fd5b505af1925050508015612bc157506040513d601f19601f82011682018060405250810190612bbe9190613392565b60015b612c44573d8060008114612bf1576040519150601f19603f3d011682016040523d82523d6000602084013e612bf6565b606091505b50600081511415612c3c576040517f08c379a0000000000000000000000000000000000000000000000000000000008152600401612c3390613f53565b60405180910390fd5b805181602001fd5b63150b7a0260e01b7bffffffffffffffffffffffffffffffffffffffffffffffffffffffff1916817bffffffffffffffffffffffffffffffffffffffffffffffffffffffff191614915050612c99565b600190505b949350505050565b612cab8383612d0f565b612cb86000848484612b0a565b612cf7576040517f08c379a0000000000000000000000000000000000000000000000000000000008152600401612cee90613f53565b60405180910390fd5b505050565b600080823b905060008111915050919050565b600073ffffffffffffffffffffffffffffffffffffffff168273ffffffffffffffffffffffffffffffffffffffff161415612d7f576040517f08c379a0000000000000000000000000000000000000000000000000000000008152600401612d76906140b3565b60405180910390fd5b612d88816121df565b15612dc8576040517f08c379a0000000000000000000000000000000000000000000000000000000008152600401612dbf90613fb3565b60405180910390fd5b612dd460008383612b05565b6001600360008473ffffffffffffffffffffffffffffffffffffffff1673ffffffffffffffffffffffffffffffffffffffff1681526020019081526020016000206000828254612e249190614370565b92505081905550816002600083815260200190815260200160002060006101000a81548173ffffffffffffffffffffffffffffffffffffffff021916908373ffffffffffffffffffffffffffffffffffffffff160217905550808273ffffffffffffffffffffffffffffffffffffffff16600073ffffffffffffffffffffffffffffffffffffffff167fddf252ad1be2c89b69c2b068fc378daa952ba7f163c4a11628f55a4df523b3ef60405160405180910390a45050565b828054612ee990614545565b90600052602060002090601f016020900481019282612f0b5760008555612f52565b82601f10612f2457805160ff1916838001178555612f52565b82800160010185558215612f52579182015b82811115612f51578251825591602001919060010190612f36565b5b509050612f5f9190612f63565b5090565b5b80821115612f7c576000816000905550600101612f64565b5090565b6000612f93612f8e8461427f565b61424e565b905082815260208101848484011115612fab57600080fd5b612fb6848285614503565b509392505050565b6000612fd1612fcc846142af565b61424e565b905082815260208101848484011115612fe957600080fd5b612ff4848285614503565b509392505050565b60008135905061300b816146f9565b92915050565b60008083601f84011261302357600080fd5b8235905067ffffffffffffffff81111561303c57600080fd5b60208301915083602082028301111561305457600080fd5b9250929050565b60008135905061306a81614710565b92915050565b60008135905061307f81614727565b92915050565b6000813590506130948161473e565b92915050565b6000815190506130a98161473e565b92915050565b600082601f8301126130c057600080fd5b81356130d0848260208601612f80565b91505092915050565b600082601f8301126130ea57600080fd5b81356130fa848260208601612fbe565b91505092915050565b60008135905061311281614755565b92915050565b60006020828403121561312a57600080fd5b600061313884828501612ffc565b91505092915050565b6000806040838503121561315457600080fd5b600061316285828601612ffc565b925050602061317385828601612ffc565b9150509250929050565b60008060006060848603121561319257600080fd5b60006131a086828701612ffc565b93505060206131b186828701612ffc565b92505060406131c286828701613103565b9150509250925092565b600080600080608085870312156131e257600080fd5b60006131f087828801612ffc565b945050602061320187828801612ffc565b935050604061321287828801613103565b925050606085013567ffffffffffffffff81111561322f57600080fd5b61323b878288016130af565b91505092959194509250565b6000806040838503121561325a57600080fd5b600061326885828601612ffc565b92505060206132798582860161305b565b9150509250929050565b6000806040838503121561329657600080fd5b60006132a485828601612ffc565b92505060206132b585828601613103565b9150509250929050565b6000806000604084860312156132d457600080fd5b600084013567ffffffffffffffff8111156132ee57600080fd5b6132fa86828701613011565b9350935050602061330d86828701613103565b9150509250925092565b60006020828403121561332957600080fd5b60006133378482850161305b565b91505092915050565b60006020828403121561335257600080fd5b600061336084828501613070565b91505092915050565b60006020828403121561337b57600080fd5b600061338984828501613085565b91505092915050565b6000602082840312156133a457600080fd5b60006133b28482850161309a565b91505092915050565b6000602082840312156133cd57600080fd5b600082013567ffffffffffffffff8111156133e757600080fd5b6133f3848285016130d9565b91505092915050565b60006020828403121561340e57600080fd5b600061341c84828501613103565b91505092915050565b6000806040838503121561343857600080fd5b600061344685828601613103565b925050602061345785828601612ffc565b9150509250929050565b600061346d8383613ddc565b60208301905092915050565b61348281614485565b82525050565b61349961349482614485565b6145c0565b82525050565b60006134aa82614304565b6134b48185614332565b93506134bf836142df565b8060005b838110156134f05781516134d78882613461565b97506134e283614325565b9250506001810190506134c3565b5085935050505092915050565b61350681614497565b82525050565b613515816144a3565b82525050565b61352c613527826144a3565b6145d2565b82525050565b600061353d8261430f565b6135478185614343565b9350613557818560208601614512565b613560816146db565b840191505092915050565b60006135768261431a565b6135808185614354565b9350613590818560208601614512565b613599816146db565b840191505092915050565b60006135af8261431a565b6135b98185614365565b93506135c9818560208601614512565b80840191505092915050565b600081546135e281614545565b6135ec8186614365565b9450600182166000811461360757600181146136185761364b565b60ff1983168652818601935061364b565b613621856142ef565b60005b8381101561364357815481890152600182019150602081019050613624565b838801955050505b50505092915050565b6000613661603283614354565b91507f4552433732313a207472616e7366657220746f206e6f6e20455243373231526560008301527f63656976657220696d706c656d656e74657200000000000000000000000000006020830152604082019050919050565b60006136c7601683614354565b91507f54686520636f6e747261637420697320706175736564000000000000000000006000830152602082019050919050565b6000613707602683614354565b91507f4f776e61626c653a206e6577206f776e657220697320746865207a65726f206160008301527f64647265737300000000000000000000000000000000000000000000000000006020830152604082019050919050565b600061376d601c83614354565b91507f4552433732313a20746f6b656e20616c7265616479206d696e746564000000006000830152602082019050919050565b60006137ad602483614354565b91507f4552433732313a207472616e7366657220746f20746865207a65726f2061646460008301527f72657373000000000000000000000000000000000000000000000000000000006020830152604082019050919050565b6000613813601983614354565b91507f4552433732313a20617070726f766520746f2063616c6c6572000000000000006000830152602082019050919050565b6000613853602c83614354565b91507f4552433732313a206f70657261746f7220717565727920666f72206e6f6e657860008301527f697374656e7420746f6b656e00000000000000000000000000000000000000006020830152604082019050919050565b60006138b9601583614354565b91507f496e76616c696465204d65726b6c652050726f6f6600000000000000000000006000830152602082019050919050565b60006138f9603883614354565b91507f4552433732313a20617070726f76652063616c6c6572206973206e6f74206f7760008301527f6e6572206e6f7220617070726f76656420666f7220616c6c00000000000000006020830152604082019050919050565b600061395f602a83614354565b91507f4552433732313a2062616c616e636520717565727920666f7220746865207a6560008301527f726f2061646472657373000000000000000000000000000000000000000000006020830152604082019050919050565b60006139c5602983614354565b91507f4552433732313a206f776e657220717565727920666f72206e6f6e657869737460008301527f656e7420746f6b656e00000000000000000000000000000000000000000000006020830152604082019050919050565b6000613a2b602083614354565b91507f4552433732313a206d696e7420746f20746865207a65726f20616464726573736000830152602082019050919050565b6000613a6b601783614354565b91507f54686520636f6e7472616374206973207061757365642e0000000000000000006000830152602082019050919050565b6000613aab602c83614354565b91507f4552433732313a20617070726f76656420717565727920666f72206e6f6e657860008301527f697374656e7420746f6b656e00000000000000000000000000000000000000006020830152604082019050919050565b6000613b11601483614354565b91507f496e76616c6964206d696e7420616d6f756e742e0000000000000000000000006000830152602082019050919050565b6000613b51602083614354565b91507f4f776e61626c653a2063616c6c6572206973206e6f7420746865206f776e65726000830152602082019050919050565b6000613b91601783614354565b91507f4164647265737320616c726561647920636c61696d65640000000000000000006000830152602082019050919050565b6000613bd1602983614354565b91507f4552433732313a207472616e73666572206f6620746f6b656e2074686174206960008301527f73206e6f74206f776e00000000000000000000000000000000000000000000006020830152604082019050919050565b6000613c37602f83614354565b91507f4552433732314d657461646174613a2055524920717565727920666f72206e6f60008301527f6e6578697374656e7420746f6b656e00000000000000000000000000000000006020830152604082019050919050565b6000613c9d602183614354565b91507f4552433732313a20617070726f76616c20746f2063757272656e74206f776e6560008301527f72000000000000000000000000000000000000000000000000000000000000006020830152604082019050919050565b6000613d03603183614354565b91507f4552433732313a207472616e736665722063616c6c6572206973206e6f74206f60008301527f776e6572206e6f7220617070726f7665640000000000000000000000000000006020830152604082019050919050565b6000613d69601383614354565b91507f496e73756666696369656e742066756e647321000000000000000000000000006000830152602082019050919050565b6000613da9601483614354565b91507f4d617820737570706c792065786365656465642e0000000000000000000000006000830152602082019050919050565b613de5816144f9565b82525050565b613df4816144f9565b82525050565b6000613e068284613488565b60148201915081905092915050565b6000613e21828561351b565b602082019150613e31828461351b565b6020820191508190509392505050565b6000613e4d82866135a4565b9150613e5982856135a4565b9150613e6582846135d5565b9150819050949350505050565b6000602082019050613e876000830184613479565b92915050565b6000608082019050613ea26000830187613479565b613eaf6020830186613479565b613ebc6040830185613deb565b8181036060830152613ece8184613532565b905095945050505050565b60006020820190508181036000830152613ef3818461349f565b905092915050565b6000602082019050613f1060008301846134fd565b92915050565b6000602082019050613f2b600083018461350c565b92915050565b60006020820190508181036000830152613f4b818461356b565b905092915050565b60006020820190508181036000830152613f6c81613654565b9050919050565b60006020820190508181036000830152613f8c816136ba565b9050919050565b60006020820190508181036000830152613fac816136fa565b9050919050565b60006020820190508181036000830152613fcc81613760565b9050919050565b60006020820190508181036000830152613fec816137a0565b9050919050565b6000602082019050818103600083015261400c81613806565b9050919050565b6000602082019050818103600083015261402c81613846565b9050919050565b6000602082019050818103600083015261404c816138ac565b9050919050565b6000602082019050818103600083015261406c816138ec565b9050919050565b6000602082019050818103600083015261408c81613952565b9050919050565b600060208201905081810360008301526140ac816139b8565b9050919050565b600060208201905081810360008301526140cc81613a1e565b9050919050565b600060208201905081810360008301526140ec81613a5e565b9050919050565b6000602082019050818103600083015261410c81613a9e565b9050919050565b6000602082019050818103600083015261412c81613b04565b9050919050565b6000602082019050818103600083015261414c81613b44565b9050919050565b6000602082019050818103600083015261416c81613b84565b9050919050565b6000602082019050818103600083015261418c81613bc4565b9050919050565b600060208201905081810360008301526141ac81613c2a565b9050919050565b600060208201905081810360008301526141cc81613c90565b9050919050565b600060208201905081810360008301526141ec81613cf6565b9050919050565b6000602082019050818103600083015261420c81613d5c565b9050919050565b6000602082019050818103600083015261422c81613d9c565b9050919050565b60006020820190506142486000830184613deb565b92915050565b6000604051905081810181811067ffffffffffffffff82111715614275576142746146ac565b5b8060405250919050565b600067ffffffffffffffff82111561429a576142996146ac565b5b601f19601f8301169050602081019050919050565b600067ffffffffffffffff8211156142ca576142c96146ac565b5b601f19601f8301169050602081019050919050565b6000819050602082019050919050565b60008190508160005260206000209050919050565b600081519050919050565b600081519050919050565b600081519050919050565b6000602082019050919050565b600082825260208201905092915050565b600082825260208201905092915050565b600082825260208201905092915050565b600081905092915050565b600061437b826144f9565b9150614386836144f9565b9250827fffffffffffffffffffffffffffffffffffffffffffffffffffffffffffffffff038211156143bb576143ba61461f565b5b828201905092915050565b60006143d1826144f9565b91506143dc836144f9565b9250826143ec576143eb61464e565b5b828204905092915050565b6000614402826144f9565b915061440d836144f9565b9250817fffffffffffffffffffffffffffffffffffffffffffffffffffffffffffffffff04831182151516156144465761444561461f565b5b828202905092915050565b600061445c826144f9565b9150614467836144f9565b92508282101561447a5761447961461f565b5b828203905092915050565b6000614490826144d9565b9050919050565b60008115159050919050565b6000819050919050565b60007fffffffff0000000000000000000000000000000000000000000000000000000082169050919050565b600073ffffffffffffffffffffffffffffffffffffffff82169050919050565b6000819050919050565b82818337600083830152505050565b60005b83811015614530578082015181840152602081019050614515565b8381111561453f576000848401525b50505050565b6000600282049050600182168061455d57607f821691505b602082108114156145715761457061467d565b5b50919050565b6000614582826144f9565b91507fffffffffffffffffffffffffffffffffffffffffffffffffffffffffffffffff8214156145b5576145b461461f565b5b600182019050919050565b60006145cb826145dc565b9050919050565b6000819050919050565b60006145e7826146ec565b9050919050565b60006145f9826144f9565b9150614604836144f9565b9250826146145761461361464e565b5b828206905092915050565b7f4e487b7100000000000000000000000000000000000000000000000000000000600052601160045260246000fd5b7f4e487b7100000000000000000000000000000000000000000000000000000000600052601260045260246000fd5b7f4e487b7100000000000000000000000000000000000000000000000000000000600052602260045260246000fd5b7f4e487b7100000000000000000000000000000000000000000000000000000000600052604160045260246000fd5b6000601f19601f8301169050919050565b60008160601b9050919050565b61470281614485565b811461470d57600080fd5b50565b61471981614497565b811461472457600080fd5b50565b614730816144a3565b811461473b57600080fd5b50565b614747816144ad565b811461475257600080fd5b50565b61475e816144f9565b811461476957600080fd5b5056fea2646970667358221220594383962fc9b7b0863e60853c9d9560bf49ca222e60f2370afa985e8ec681b864736f6c63430008000033697066733a2f2f516d6473487666565833457a58417a514d713747597047636156534b6d38597a716242586d614455774b336a55432f",
  "devdoc": {
    "kind": "dev",
    "methods": {
      "approve(address,uint256)": {
        "details": "See {IERC721-approve}."
      },
      "balanceOf(address)": {
        "details": "See {IERC721-balanceOf}."
      },
      "getApproved(uint256)": {
        "details": "See {IERC721-getApproved}."
      },
      "isApprovedForAll(address,address)": {
        "details": "See {IERC721-isApprovedForAll}."
      },
      "name()": {
        "details": "See {IERC721Metadata-name}."
      },
      "owner()": {
        "details": "Returns the address of the current owner."
      },
      "ownerOf(uint256)": {
        "details": "See {IERC721-ownerOf}."
      },
      "renounceOwnership()": {
        "details": "Leaves the contract without owner. It will not be possible to call `onlyOwner` functions anymore. Can only be called by the current owner. NOTE: Renouncing ownership will leave the contract without an owner, thereby removing any functionality that is only available to the owner."
      },
      "safeTransferFrom(address,address,uint256)": {
        "details": "See {IERC721-safeTransferFrom}."
      },
      "safeTransferFrom(address,address,uint256,bytes)": {
        "details": "See {IERC721-safeTransferFrom}."
      },
      "setApprovalForAll(address,bool)": {
        "details": "See {IERC721-setApprovalForAll}."
      },
      "supportsInterface(bytes4)": {
        "details": "See {IERC165-supportsInterface}."
      },
      "symbol()": {
        "details": "See {IERC721Metadata-symbol}."
      },
      "transferFrom(address,address,uint256)": {
        "details": "See {IERC721-transferFrom}."
      },
      "transferOwnership(address)": {
        "details": "Transfers ownership of the contract to a new account (`newOwner`). Can only be called by the current owner."
      }
    },
    "version": 1
  },
  "userdoc": {
    "kind": "user",
    "methods": {},
    "version": 1
  },
  "storageLayout": {
    "storage": [
      {
        "astId": 129,
        "contract": "contracts/NFT2.sol:test0x",
        "label": "_name",
        "offset": 0,
        "slot": "0",
        "type": "t_string_storage"
      },
      {
        "astId": 131,
        "contract": "contracts/NFT2.sol:test0x",
        "label": "_symbol",
        "offset": 0,
        "slot": "1",
        "type": "t_string_storage"
      },
      {
        "astId": 135,
        "contract": "contracts/NFT2.sol:test0x",
        "label": "_owners",
        "offset": 0,
        "slot": "2",
        "type": "t_mapping(t_uint256,t_address)"
      },
      {
        "astId": 139,
        "contract": "contracts/NFT2.sol:test0x",
        "label": "_balances",
        "offset": 0,
        "slot": "3",
        "type": "t_mapping(t_address,t_uint256)"
      },
      {
        "astId": 143,
        "contract": "contracts/NFT2.sol:test0x",
        "label": "_tokenApprovals",
        "offset": 0,
        "slot": "4",
        "type": "t_mapping(t_uint256,t_address)"
      },
      {
        "astId": 149,
        "contract": "contracts/NFT2.sol:test0x",
        "label": "_operatorApprovals",
        "offset": 0,
        "slot": "5",
        "type": "t_mapping(t_address,t_mapping(t_address,t_bool))"
      },
      {
        "astId": 7,
        "contract": "contracts/NFT2.sol:test0x",
        "label": "_owner",
        "offset": 0,
        "slot": "6",
        "type": "t_address"
      },
      {
        "astId": 2540,
        "contract": "contracts/NFT2.sol:test0x",
        "label": "supply",
        "offset": 0,
        "slot": "7",
        "type": "t_struct(Counter)1774_storage"
      },
      {
        "astId": 2543,
        "contract": "contracts/NFT2.sol:test0x",
        "label": "uriPrefix",
        "offset": 0,
        "slot": "8",
        "type": "t_string_storage"
      },
      {
        "astId": 2546,
        "contract": "contracts/NFT2.sol:test0x",
        "label": "uriSuffix",
        "offset": 0,
        "slot": "9",
        "type": "t_string_storage"
      },
      {
        "astId": 2549,
        "contract": "contracts/NFT2.sol:test0x",
        "label": "cost",
        "offset": 0,
        "slot": "10",
        "type": "t_uint256"
      },
      {
        "astId": 2552,
        "contract": "contracts/NFT2.sol:test0x",
        "label": "maxSupply",
        "offset": 0,
        "slot": "11",
        "type": "t_uint256"
      },
      {
        "astId": 2555,
        "contract": "contracts/NFT2.sol:test0x",
        "label": "maxMintAmount",
        "offset": 0,
        "slot": "12",
        "type": "t_uint256"
      },
      {
        "astId": 2558,
        "contract": "contracts/NFT2.sol:test0x",
        "label": "paused",
        "offset": 0,
        "slot": "13",
        "type": "t_bool"
      },
      {
        "astId": 2561,
        "contract": "contracts/NFT2.sol:test0x",
        "label": "merkleRoot",
        "offset": 0,
        "slot": "14",
        "type": "t_bytes32"
      },
      {
        "astId": 2565,
        "contract": "contracts/NFT2.sol:test0x",
        "label": "whitelistClaimed",
        "offset": 0,
        "slot": "15",
        "type": "t_mapping(t_address,t_bool)"
      }
    ],
    "types": {
      "t_address": {
        "encoding": "inplace",
        "label": "address",
        "numberOfBytes": "20"
      },
      "t_bool": {
        "encoding": "inplace",
        "label": "bool",
        "numberOfBytes": "1"
      },
      "t_bytes32": {
        "encoding": "inplace",
        "label": "bytes32",
        "numberOfBytes": "32"
      },
      "t_mapping(t_address,t_bool)": {
        "encoding": "mapping",
        "key": "t_address",
        "label": "mapping(address => bool)",
        "numberOfBytes": "32",
        "value": "t_bool"
      },
      "t_mapping(t_address,t_mapping(t_address,t_bool))": {
        "encoding": "mapping",
        "key": "t_address",
        "label": "mapping(address => mapping(address => bool))",
        "numberOfBytes": "32",
        "value": "t_mapping(t_address,t_bool)"
      },
      "t_mapping(t_address,t_uint256)": {
        "encoding": "mapping",
        "key": "t_address",
        "label": "mapping(address => uint256)",
        "numberOfBytes": "32",
        "value": "t_uint256"
      },
      "t_mapping(t_uint256,t_address)": {
        "encoding": "mapping",
        "key": "t_uint256",
        "label": "mapping(uint256 => address)",
        "numberOfBytes": "32",
        "value": "t_address"
      },
      "t_string_storage": {
        "encoding": "bytes",
        "label": "string",
        "numberOfBytes": "32"
      },
      "t_struct(Counter)1774_storage": {
        "encoding": "inplace",
        "label": "struct Counters.Counter",
        "members": [
          {
            "astId": 1773,
            "contract": "contracts/NFT2.sol:test0x",
            "label": "_value",
            "offset": 0,
            "slot": "0",
            "type": "t_uint256"
          }
        ],
        "numberOfBytes": "32"
      },
      "t_uint256": {
        "encoding": "inplace",
        "label": "uint256",
        "numberOfBytes": "32"
      }
    }
  }
}